{
	"data": {
		"bytecode": {
			"linkReferences": {},
			"object": "6080604052348015600e575f80fd5b506103758061001c5f395ff3fe608060405234801561000f575f80fd5b5060043610610060575f3560e01c8063165c4a16146100645780633ef5e44514610080578063653721471461009c578063771602f7146100ba578063de292789146100d6578063f88e9fbf146100f4575b5f80fd5b61007e600480360381019061007991906101a8565b610110565b005b61009a600480360381019061009591906101a8565b610125565b005b6100a461013a565b6040516100b191906101f5565b60405180910390f35b6100d460048036038101906100cf91906101a8565b61013f565b005b6100de610154565b6040516100eb91906101f5565b60405180910390f35b61010e600480360381019061010991906101a8565b61015c565b005b808261011c919061023b565b5f819055505050565b8082610131919061027c565b5f819055505050565b5f5481565b808261014b91906102af565b5f819055505050565b5f8054905090565b8082610168919061030f565b5f819055505050565b5f80fd5b5f819050919050565b61018781610175565b8114610191575f80fd5b50565b5f813590506101a28161017e565b92915050565b5f80604083850312156101be576101bd610171565b5b5f6101cb85828601610194565b92505060206101dc85828601610194565b9150509250929050565b6101ef81610175565b82525050565b5f6020820190506102085f8301846101e6565b92915050565b7f4e487b71000000000000000000000000000000000000000000000000000000005f52601160045260245ffd5b5f61024582610175565b915061025083610175565b925082820261025e81610175565b915082820484148315176102755761027461020e565b5b5092915050565b5f61028682610175565b915061029183610175565b92508282039050818111156102a9576102a861020e565b5b92915050565b5f6102b982610175565b91506102c483610175565b92508282019050808211156102dc576102db61020e565b5b92915050565b7f4e487b71000000000000000000000000000000000000000000000000000000005f52601260045260245ffd5b5f61031982610175565b915061032483610175565b925082610334576103336102e2565b5b82820490509291505056fea26469706673582212203c171f8346053311196cc5f02670e84e70d6899c4a7c58b6518bae8eb6ec5a4064736f6c634300081a0033",
			"opcodes": "PUSH1 0x80 PUSH1 0x40 MSTORE CALLVALUE DUP1 ISZERO PUSH1 0xE JUMPI PUSH0 DUP1 REVERT JUMPDEST POP PUSH2 0x375 DUP1 PUSH2 0x1C PUSH0 CODECOPY PUSH0 RETURN INVALID PUSH1 0x80 PUSH1 0x40 MSTORE CALLVALUE DUP1 ISZERO PUSH2 0xF JUMPI PUSH0 DUP1 REVERT JUMPDEST POP PUSH1 0x4 CALLDATASIZE LT PUSH2 0x60 JUMPI PUSH0 CALLDATALOAD PUSH1 0xE0 SHR DUP1 PUSH4 0x165C4A16 EQ PUSH2 0x64 JUMPI DUP1 PUSH4 0x3EF5E445 EQ PUSH2 0x80 JUMPI DUP1 PUSH4 0x65372147 EQ PUSH2 0x9C JUMPI DUP1 PUSH4 0x771602F7 EQ PUSH2 0xBA JUMPI DUP1 PUSH4 0xDE292789 EQ PUSH2 0xD6 JUMPI DUP1 PUSH4 0xF88E9FBF EQ PUSH2 0xF4 JUMPI JUMPDEST PUSH0 DUP1 REVERT JUMPDEST PUSH2 0x7E PUSH1 0x4 DUP1 CALLDATASIZE SUB DUP2 ADD SWAP1 PUSH2 0x79 SWAP2 SWAP1 PUSH2 0x1A8 JUMP JUMPDEST PUSH2 0x110 JUMP JUMPDEST STOP JUMPDEST PUSH2 0x9A PUSH1 0x4 DUP1 CALLDATASIZE SUB DUP2 ADD SWAP1 PUSH2 0x95 SWAP2 SWAP1 PUSH2 0x1A8 JUMP JUMPDEST PUSH2 0x125 JUMP JUMPDEST STOP JUMPDEST PUSH2 0xA4 PUSH2 0x13A JUMP JUMPDEST PUSH1 0x40 MLOAD PUSH2 0xB1 SWAP2 SWAP1 PUSH2 0x1F5 JUMP JUMPDEST PUSH1 0x40 MLOAD DUP1 SWAP2 SUB SWAP1 RETURN JUMPDEST PUSH2 0xD4 PUSH1 0x4 DUP1 CALLDATASIZE SUB DUP2 ADD SWAP1 PUSH2 0xCF SWAP2 SWAP1 PUSH2 0x1A8 JUMP JUMPDEST PUSH2 0x13F JUMP JUMPDEST STOP JUMPDEST PUSH2 0xDE PUSH2 0x154 JUMP JUMPDEST PUSH1 0x40 MLOAD PUSH2 0xEB SWAP2 SWAP1 PUSH2 0x1F5 JUMP JUMPDEST PUSH1 0x40 MLOAD DUP1 SWAP2 SUB SWAP1 RETURN JUMPDEST PUSH2 0x10E PUSH1 0x4 DUP1 CALLDATASIZE SUB DUP2 ADD SWAP1 PUSH2 0x109 SWAP2 SWAP1 PUSH2 0x1A8 JUMP JUMPDEST PUSH2 0x15C JUMP JUMPDEST STOP JUMPDEST DUP1 DUP3 PUSH2 0x11C SWAP2 SWAP1 PUSH2 0x23B JUMP JUMPDEST PUSH0 DUP2 SWAP1 SSTORE POP POP POP JUMP JUMPDEST DUP1 DUP3 PUSH2 0x131 SWAP2 SWAP1 PUSH2 0x27C JUMP JUMPDEST PUSH0 DUP2 SWAP1 SSTORE POP POP POP JUMP JUMPDEST PUSH0 SLOAD DUP2 JUMP JUMPDEST DUP1 DUP3 PUSH2 0x14B SWAP2 SWAP1 PUSH2 0x2AF JUMP JUMPDEST PUSH0 DUP2 SWAP1 SSTORE POP POP POP JUMP JUMPDEST PUSH0 DUP1 SLOAD SWAP1 POP SWAP1 JUMP JUMPDEST DUP1 DUP3 PUSH2 0x168 SWAP2 SWAP1 PUSH2 0x30F JUMP JUMPDEST PUSH0 DUP2 SWAP1 SSTORE POP POP POP JUMP JUMPDEST PUSH0 DUP1 REVERT JUMPDEST PUSH0 DUP2 SWAP1 POP SWAP2 SWAP1 POP JUMP JUMPDEST PUSH2 0x187 DUP2 PUSH2 0x175 JUMP JUMPDEST DUP2 EQ PUSH2 0x191 JUMPI PUSH0 DUP1 REVERT JUMPDEST POP JUMP JUMPDEST PUSH0 DUP2 CALLDATALOAD SWAP1 POP PUSH2 0x1A2 DUP2 PUSH2 0x17E JUMP JUMPDEST SWAP3 SWAP2 POP POP JUMP JUMPDEST PUSH0 DUP1 PUSH1 0x40 DUP4 DUP6 SUB SLT ISZERO PUSH2 0x1BE JUMPI PUSH2 0x1BD PUSH2 0x171 JUMP JUMPDEST JUMPDEST PUSH0 PUSH2 0x1CB DUP6 DUP3 DUP7 ADD PUSH2 0x194 JUMP JUMPDEST SWAP3 POP POP PUSH1 0x20 PUSH2 0x1DC DUP6 DUP3 DUP7 ADD PUSH2 0x194 JUMP JUMPDEST SWAP2 POP POP SWAP3 POP SWAP3 SWAP1 POP JUMP JUMPDEST PUSH2 0x1EF DUP2 PUSH2 0x175 JUMP JUMPDEST DUP3 MSTORE POP POP JUMP JUMPDEST PUSH0 PUSH1 0x20 DUP3 ADD SWAP1 POP PUSH2 0x208 PUSH0 DUP4 ADD DUP5 PUSH2 0x1E6 JUMP JUMPDEST SWAP3 SWAP2 POP POP JUMP JUMPDEST PUSH32 0x4E487B7100000000000000000000000000000000000000000000000000000000 PUSH0 MSTORE PUSH1 0x11 PUSH1 0x4 MSTORE PUSH1 0x24 PUSH0 REVERT JUMPDEST PUSH0 PUSH2 0x245 DUP3 PUSH2 0x175 JUMP JUMPDEST SWAP2 POP PUSH2 0x250 DUP4 PUSH2 0x175 JUMP JUMPDEST SWAP3 POP DUP3 DUP3 MUL PUSH2 0x25E DUP2 PUSH2 0x175 JUMP JUMPDEST SWAP2 POP DUP3 DUP3 DIV DUP5 EQ DUP4 ISZERO OR PUSH2 0x275 JUMPI PUSH2 0x274 PUSH2 0x20E JUMP JUMPDEST JUMPDEST POP SWAP3 SWAP2 POP POP JUMP JUMPDEST PUSH0 PUSH2 0x286 DUP3 PUSH2 0x175 JUMP JUMPDEST SWAP2 POP PUSH2 0x291 DUP4 PUSH2 0x175 JUMP JUMPDEST SWAP3 POP DUP3 DUP3 SUB SWAP1 POP DUP2 DUP2 GT ISZERO PUSH2 0x2A9 JUMPI PUSH2 0x2A8 PUSH2 0x20E JUMP JUMPDEST JUMPDEST SWAP3 SWAP2 POP POP JUMP JUMPDEST PUSH0 PUSH2 0x2B9 DUP3 PUSH2 0x175 JUMP JUMPDEST SWAP2 POP PUSH2 0x2C4 DUP4 PUSH2 0x175 JUMP JUMPDEST SWAP3 POP DUP3 DUP3 ADD SWAP1 POP DUP1 DUP3 GT ISZERO PUSH2 0x2DC JUMPI PUSH2 0x2DB PUSH2 0x20E JUMP JUMPDEST JUMPDEST SWAP3 SWAP2 POP POP JUMP JUMPDEST PUSH32 0x4E487B7100000000000000000000000000000000000000000000000000000000 PUSH0 MSTORE PUSH1 0x12 PUSH1 0x4 MSTORE PUSH1 0x24 PUSH0 REVERT JUMPDEST PUSH0 PUSH2 0x319 DUP3 PUSH2 0x175 JUMP JUMPDEST SWAP2 POP PUSH2 0x324 DUP4 PUSH2 0x175 JUMP JUMPDEST SWAP3 POP DUP3 PUSH2 0x334 JUMPI PUSH2 0x333 PUSH2 0x2E2 JUMP JUMPDEST JUMPDEST DUP3 DUP3 DIV SWAP1 POP SWAP3 SWAP2 POP POP JUMP INVALID LOG2 PUSH5 0x6970667358 0x22 SLT KECCAK256 EXTCODECOPY OR 0x1F DUP4 CHAINID SDIV CALLER GT NOT PUSH13 0xC5F02670E84E70D6899C4A7C58 0xB6 MLOAD DUP12 0xAE DUP15 0xB6 0xEC GAS BLOCKHASH PUSH5 0x736F6C6343 STOP ADDMOD BYTE STOP CALLER "
		},
		"gasEstimates": {
			"creation": {
				"codeDepositCost": "177000",
				"executionCost": "218",
				"totalCost": "177218"
			},
			"external": {
				"add(uint256,uint256)": "infinite",
				"divide(uint256,uint256)": "infinite",
				"getResult()": "2498",
				"multiply(uint256,uint256)": "infinite",
				"result()": "2446",
				"subtract(uint256,uint256)": "infinite"
			}
		},
		"methodIdentifiers": {
			"add(uint256,uint256)": "771602f7",
			"divide(uint256,uint256)": "f88e9fbf",
			"getResult()": "de292789",
			"multiply(uint256,uint256)": "165c4a16",
			"result()": "65372147",
			"subtract(uint256,uint256)": "3ef5e445"
		}
	},
	"abi": [
		{
			"inputs": [
				{
					"internalType": "uint256",
					"name": "x",
					"type": "uint256"
				},
				{
					"internalType": "uint256",
					"name": "y",
					"type": "uint256"
				}
			],
			"name": "add",
			"outputs": [],
			"stateMutability": "nonpayable",
			"type": "function"
		},
		{
			"inputs": [
				{
					"internalType": "uint256",
					"name": "x",
					"type": "uint256"
				},
				{
					"internalType": "uint256",
					"name": "y",
					"type": "uint256"
				}
			],
			"name": "divide",
			"outputs": [],
			"stateMutability": "nonpayable",
			"type": "function"
		},
		{
			"inputs": [],
			"name": "getResult",
			"outputs": [
				{
					"internalType": "uint256",
					"name": "",
					"type": "uint256"
				}
			],
			"stateMutability": "view",
			"type": "function"
		},
		{
			"inputs": [
				{
					"internalType": "uint256",
					"name": "x",
					"type": "uint256"
				},
				{
					"internalType": "uint256",
					"name": "y",
					"type": "uint256"
				}
			],
			"name": "multiply",
			"outputs": [],
			"stateMutability": "nonpayable",
			"type": "function"
		},
		{
			"inputs": [],
			"name": "result",
			"outputs": [
				{
					"internalType": "uint256",
					"name": "",
					"type": "uint256"
				}
			],
			"stateMutability": "view",
			"type": "function"
		},
		{
			"inputs": [
				{
					"internalType": "uint256",
					"name": "x",
					"type": "uint256"
				},
				{
					"internalType": "uint256",
					"name": "y",
					"type": "uint256"
				}
			],
			"name": "subtract",
			"outputs": [],
			"stateMutability": "nonpayable",
			"type": "function"
		}
	]
}