{
	"contracts/advancedCalculator.sol": {
		"AdvancedCalculator": {
			"abi": [
				{
					"inputs": [],
					"name": "getvalue",
					"outputs": [
						{
							"internalType": "uint256",
							"name": "",
							"type": "uint256"
						}
					],
					"stateMutability": "view",
					"type": "function"
				},
				{
					"inputs": [
						{
							"internalType": "uint256",
							"name": "x",
							"type": "uint256"
						},
						{
							"internalType": "uint256",
							"name": "y",
							"type": "uint256"
						},
						{
							"internalType": "uint8",
							"name": "operation",
							"type": "uint8"
						}
					],
					"name": "operationToCal",
					"outputs": [],
					"stateMutability": "nonpayable",
					"type": "function"
				}
			],
			"devdoc": {
				"kind": "dev",
				"methods": {},
				"version": 1
			},
			"evm": {
				"assembly": "    /* \"contracts/advancedCalculator.sol\":272:952  contract AdvancedCalculator is SimpleCalculator{... */\n  mstore(0x40, 0x80)\n  callvalue\n  dup1\n  iszero\n  tag_1\n  jumpi\n  0x00\n  dup1\n  revert\ntag_1:\n  pop\n  dataSize(sub_0)\n  dup1\n  dataOffset(sub_0)\n  0x00\n  codecopy\n  0x00\n  return\nstop\n\nsub_0: assembly {\n        /* \"contracts/advancedCalculator.sol\":272:952  contract AdvancedCalculator is SimpleCalculator{... */\n      mstore(0x40, 0x80)\n      callvalue\n      dup1\n      iszero\n      tag_1\n      jumpi\n      0x00\n      dup1\n      revert\n    tag_1:\n      pop\n      jumpi(tag_2, lt(calldatasize, 0x04))\n      shr(0xe0, calldataload(0x00))\n      dup1\n      0x69bd01c4\n      eq\n      tag_3\n      jumpi\n      dup1\n      0xd7d301a7\n      eq\n      tag_4\n      jumpi\n    tag_2:\n      0x00\n      dup1\n      revert\n        /* \"contracts/advancedCalculator.sol\":873:948  function getvalue() public view returns(uint){... */\n    tag_3:\n      tag_5\n      tag_6\n      jump\t// in\n    tag_5:\n      mload(0x40)\n      tag_7\n      swap2\n      swap1\n      tag_8\n      jump\t// in\n    tag_7:\n      mload(0x40)\n      dup1\n      swap2\n      sub\n      swap1\n      return\n        /* \"contracts/advancedCalculator.sol\":485:867  function operationToCal(uint x, uint y, uint8 operation) public {... */\n    tag_4:\n      tag_9\n      0x04\n      dup1\n      calldatasize\n      sub\n      dup2\n      add\n      swap1\n      tag_10\n      swap2\n      swap1\n      tag_11\n      jump\t// in\n    tag_10:\n      tag_12\n      jump\t// in\n    tag_9:\n      stop\n        /* \"contracts/advancedCalculator.sol\":873:948  function getvalue() public view returns(uint){... */\n    tag_6:\n        /* \"contracts/advancedCalculator.sol\":913:917  uint */\n      0x00\n        /* \"contracts/advancedCalculator.sol\":935:941  result */\n      dup1\n      sload\n        /* \"contracts/advancedCalculator.sol\":928:941  return result */\n      swap1\n      pop\n        /* \"contracts/advancedCalculator.sol\":873:948  function getvalue() public view returns(uint){... */\n      swap1\n      jump\t// out\n        /* \"contracts/advancedCalculator.sol\":485:867  function operationToCal(uint x, uint y, uint8 operation) public {... */\n    tag_12:\n        /* \"contracts/advancedCalculator.sol\":575:576  1 */\n      0x01\n        /* \"contracts/advancedCalculator.sol\":562:571  operation */\n      dup2\n        /* \"contracts/advancedCalculator.sol\":562:576  operation == 1 */\n      0xff\n      and\n      sub\n        /* \"contracts/advancedCalculator.sol\":559:861  if(operation == 1){... */\n      tag_15\n      jumpi\n        /* \"contracts/advancedCalculator.sol\":591:607  addNumbers(x, y) */\n      tag_16\n        /* \"contracts/advancedCalculator.sol\":602:603  x */\n      dup4\n        /* \"contracts/advancedCalculator.sol\":605:606  y */\n      dup4\n        /* \"contracts/advancedCalculator.sol\":591:601  addNumbers */\n      tag_17\n        /* \"contracts/advancedCalculator.sol\":591:607  addNumbers(x, y) */\n      jump\t// in\n    tag_16:\n        /* \"contracts/advancedCalculator.sol\":559:861  if(operation == 1){... */\n      jump(tag_18)\n    tag_15:\n        /* \"contracts/advancedCalculator.sol\":639:640  2 */\n      0x02\n        /* \"contracts/advancedCalculator.sol\":626:635  operation */\n      dup2\n        /* \"contracts/advancedCalculator.sol\":626:640  operation == 2 */\n      0xff\n      and\n      sub\n        /* \"contracts/advancedCalculator.sol\":623:861  if(operation == 2){... */\n      tag_19\n      jumpi\n        /* \"contracts/advancedCalculator.sol\":655:672  subtractNum(x, y) */\n      tag_20\n        /* \"contracts/advancedCalculator.sol\":667:668  x */\n      dup4\n        /* \"contracts/advancedCalculator.sol\":670:671  y */\n      dup4\n        /* \"contracts/advancedCalculator.sol\":655:666  subtractNum */\n      tag_21\n        /* \"contracts/advancedCalculator.sol\":655:672  subtractNum(x, y) */\n      jump\t// in\n    tag_20:\n        /* \"contracts/advancedCalculator.sol\":623:861  if(operation == 2){... */\n      jump(tag_22)\n    tag_19:\n        /* \"contracts/advancedCalculator.sol\":704:705  3 */\n      0x03\n        /* \"contracts/advancedCalculator.sol\":691:700  operation */\n      dup2\n        /* \"contracts/advancedCalculator.sol\":691:705  operation == 3 */\n      0xff\n      and\n      sub\n        /* \"contracts/advancedCalculator.sol\":688:861  if(operation == 3){... */\n      tag_23\n      jumpi\n        /* \"contracts/advancedCalculator.sol\":720:734  multiply(x, y) */\n      tag_24\n        /* \"contracts/advancedCalculator.sol\":729:730  x */\n      dup4\n        /* \"contracts/advancedCalculator.sol\":732:733  y */\n      dup4\n        /* \"contracts/advancedCalculator.sol\":720:728  multiply */\n      tag_25\n        /* \"contracts/advancedCalculator.sol\":720:734  multiply(x, y) */\n      jump\t// in\n    tag_24:\n        /* \"contracts/advancedCalculator.sol\":688:861  if(operation == 3){... */\n      jump(tag_26)\n    tag_23:\n        /* \"contracts/advancedCalculator.sol\":766:767  4 */\n      0x04\n        /* \"contracts/advancedCalculator.sol\":753:762  operation */\n      dup2\n        /* \"contracts/advancedCalculator.sol\":753:767  operation == 4 */\n      0xff\n      and\n      sub\n        /* \"contracts/advancedCalculator.sol\":750:861  if(operation == 4){... */\n      tag_27\n      jumpi\n        /* \"contracts/advancedCalculator.sol\":782:794  divide(x, y) */\n      tag_28\n        /* \"contracts/advancedCalculator.sol\":789:790  x */\n      dup4\n        /* \"contracts/advancedCalculator.sol\":792:793  y */\n      dup4\n        /* \"contracts/advancedCalculator.sol\":782:788  divide */\n      tag_29\n        /* \"contracts/advancedCalculator.sol\":782:794  divide(x, y) */\n      jump\t// in\n    tag_28:\n        /* \"contracts/advancedCalculator.sol\":750:861  if(operation == 4){... */\n      jump(tag_30)\n    tag_27:\n        /* \"contracts/advancedCalculator.sol\":823:850  revert(\"Invalid Operation\") */\n      mload(0x40)\n      0x08c379a000000000000000000000000000000000000000000000000000000000\n      dup2\n      mstore\n      0x04\n      add\n      tag_31\n      swap1\n      tag_32\n      jump\t// in\n    tag_31:\n      mload(0x40)\n      dup1\n      swap2\n      sub\n      swap1\n      revert\n        /* \"contracts/advancedCalculator.sol\":750:861  if(operation == 4){... */\n    tag_30:\n        /* \"contracts/advancedCalculator.sol\":688:861  if(operation == 3){... */\n    tag_26:\n        /* \"contracts/advancedCalculator.sol\":623:861  if(operation == 2){... */\n    tag_22:\n        /* \"contracts/advancedCalculator.sol\":559:861  if(operation == 1){... */\n    tag_18:\n        /* \"contracts/advancedCalculator.sol\":485:867  function operationToCal(uint x, uint y, uint8 operation) public {... */\n      pop\n      pop\n      pop\n      jump\t// out\n        /* \"contracts/advancedCalculator.sol\":108:184  function addNumbers(uint x, uint y) internal {... */\n    tag_17:\n        /* \"contracts/advancedCalculator.sol\":176:177  y */\n      dup1\n        /* \"contracts/advancedCalculator.sol\":172:173  x */\n      dup3\n        /* \"contracts/advancedCalculator.sol\":172:177  x + y */\n      tag_34\n      swap2\n      swap1\n      tag_35\n      jump\t// in\n    tag_34:\n        /* \"contracts/advancedCalculator.sol\":163:169  result */\n      0x00\n        /* \"contracts/advancedCalculator.sol\":163:177  result = x + y */\n      dup2\n      swap1\n      sstore\n      pop\n        /* \"contracts/advancedCalculator.sol\":108:184  function addNumbers(uint x, uint y) internal {... */\n      pop\n      pop\n      jump\t// out\n        /* \"contracts/advancedCalculator.sol\":190:268  function subtractNum(uint x, uint y) internal  {... */\n    tag_21:\n        /* \"contracts/advancedCalculator.sol\":260:261  y */\n      dup1\n        /* \"contracts/advancedCalculator.sol\":256:257  x */\n      dup3\n        /* \"contracts/advancedCalculator.sol\":256:261  x - y */\n      tag_37\n      swap2\n      swap1\n      tag_38\n      jump\t// in\n    tag_37:\n        /* \"contracts/advancedCalculator.sol\":247:253  result */\n      0x00\n        /* \"contracts/advancedCalculator.sol\":247:261  result = x - y */\n      dup2\n      swap1\n      sstore\n      pop\n        /* \"contracts/advancedCalculator.sol\":190:268  function subtractNum(uint x, uint y) internal  {... */\n      pop\n      pop\n      jump\t// out\n        /* \"contracts/advancedCalculator.sol\":326:400  function multiply(uint x, uint y) internal {... */\n    tag_25:\n        /* \"contracts/advancedCalculator.sol\":392:393  y */\n      dup1\n        /* \"contracts/advancedCalculator.sol\":388:389  x */\n      dup3\n        /* \"contracts/advancedCalculator.sol\":388:393  x * y */\n      tag_40\n      swap2\n      swap1\n      tag_41\n      jump\t// in\n    tag_40:\n        /* \"contracts/advancedCalculator.sol\":379:385  result */\n      0x00\n        /* \"contracts/advancedCalculator.sol\":379:393  result = x * y */\n      dup2\n      swap1\n      sstore\n      pop\n        /* \"contracts/advancedCalculator.sol\":326:400  function multiply(uint x, uint y) internal {... */\n      pop\n      pop\n      jump\t// out\n        /* \"contracts/advancedCalculator.sol\":406:479  function divide(uint x, uint y) internal  {... */\n    tag_29:\n        /* \"contracts/advancedCalculator.sol\":471:472  y */\n      dup1\n        /* \"contracts/advancedCalculator.sol\":467:468  x */\n      dup3\n        /* \"contracts/advancedCalculator.sol\":467:472  x / y */\n      tag_43\n      swap2\n      swap1\n      tag_44\n      jump\t// in\n    tag_43:\n        /* \"contracts/advancedCalculator.sol\":458:464  result */\n      0x00\n        /* \"contracts/advancedCalculator.sol\":458:472  result = x / y */\n      dup2\n      swap1\n      sstore\n      pop\n        /* \"contracts/advancedCalculator.sol\":406:479  function divide(uint x, uint y) internal  {... */\n      pop\n      pop\n      jump\t// out\n        /* \"#utility.yul\":7:84   */\n    tag_45:\n        /* \"#utility.yul\":44:51   */\n      0x00\n        /* \"#utility.yul\":73:78   */\n      dup2\n        /* \"#utility.yul\":62:78   */\n      swap1\n      pop\n        /* \"#utility.yul\":7:84   */\n      swap2\n      swap1\n      pop\n      jump\t// out\n        /* \"#utility.yul\":90:208   */\n    tag_46:\n        /* \"#utility.yul\":177:201   */\n      tag_63\n        /* \"#utility.yul\":195:200   */\n      dup2\n        /* \"#utility.yul\":177:201   */\n      tag_45\n      jump\t// in\n    tag_63:\n        /* \"#utility.yul\":172:175   */\n      dup3\n        /* \"#utility.yul\":165:202   */\n      mstore\n        /* \"#utility.yul\":90:208   */\n      pop\n      pop\n      jump\t// out\n        /* \"#utility.yul\":214:436   */\n    tag_8:\n        /* \"#utility.yul\":307:311   */\n      0x00\n        /* \"#utility.yul\":345:347   */\n      0x20\n        /* \"#utility.yul\":334:343   */\n      dup3\n        /* \"#utility.yul\":330:348   */\n      add\n        /* \"#utility.yul\":322:348   */\n      swap1\n      pop\n        /* \"#utility.yul\":358:429   */\n      tag_65\n        /* \"#utility.yul\":426:427   */\n      0x00\n        /* \"#utility.yul\":415:424   */\n      dup4\n        /* \"#utility.yul\":411:428   */\n      add\n        /* \"#utility.yul\":402:408   */\n      dup5\n        /* \"#utility.yul\":358:429   */\n      tag_46\n      jump\t// in\n    tag_65:\n        /* \"#utility.yul\":214:436   */\n      swap3\n      swap2\n      pop\n      pop\n      jump\t// out\n        /* \"#utility.yul\":523:640   */\n    tag_48:\n        /* \"#utility.yul\":632:633   */\n      0x00\n        /* \"#utility.yul\":629:630   */\n      dup1\n        /* \"#utility.yul\":622:634   */\n      revert\n        /* \"#utility.yul\":769:891   */\n    tag_50:\n        /* \"#utility.yul\":842:866   */\n      tag_70\n        /* \"#utility.yul\":860:865   */\n      dup2\n        /* \"#utility.yul\":842:866   */\n      tag_45\n      jump\t// in\n    tag_70:\n        /* \"#utility.yul\":835:840   */\n      dup2\n        /* \"#utility.yul\":832:867   */\n      eq\n        /* \"#utility.yul\":822:885   */\n      tag_71\n      jumpi\n        /* \"#utility.yul\":881:882   */\n      0x00\n        /* \"#utility.yul\":878:879   */\n      dup1\n        /* \"#utility.yul\":871:883   */\n      revert\n        /* \"#utility.yul\":822:885   */\n    tag_71:\n        /* \"#utility.yul\":769:891   */\n      pop\n      jump\t// out\n        /* \"#utility.yul\":897:1036   */\n    tag_51:\n        /* \"#utility.yul\":943:948   */\n      0x00\n        /* \"#utility.yul\":981:987   */\n      dup2\n        /* \"#utility.yul\":968:988   */\n      calldataload\n        /* \"#utility.yul\":959:988   */\n      swap1\n      pop\n        /* \"#utility.yul\":997:1030   */\n      tag_73\n        /* \"#utility.yul\":1024:1029   */\n      dup2\n        /* \"#utility.yul\":997:1030   */\n      tag_50\n      jump\t// in\n    tag_73:\n        /* \"#utility.yul\":897:1036   */\n      swap3\n      swap2\n      pop\n      pop\n      jump\t// out\n        /* \"#utility.yul\":1042:1128   */\n    tag_52:\n        /* \"#utility.yul\":1077:1084   */\n      0x00\n        /* \"#utility.yul\":1117:1121   */\n      0xff\n        /* \"#utility.yul\":1110:1115   */\n      dup3\n        /* \"#utility.yul\":1106:1122   */\n      and\n        /* \"#utility.yul\":1095:1122   */\n      swap1\n      pop\n        /* \"#utility.yul\":1042:1128   */\n      swap2\n      swap1\n      pop\n      jump\t// out\n        /* \"#utility.yul\":1134:1252   */\n    tag_53:\n        /* \"#utility.yul\":1205:1227   */\n      tag_76\n        /* \"#utility.yul\":1221:1226   */\n      dup2\n        /* \"#utility.yul\":1205:1227   */\n      tag_52\n      jump\t// in\n    tag_76:\n        /* \"#utility.yul\":1198:1203   */\n      dup2\n        /* \"#utility.yul\":1195:1228   */\n      eq\n        /* \"#utility.yul\":1185:1246   */\n      tag_77\n      jumpi\n        /* \"#utility.yul\":1242:1243   */\n      0x00\n        /* \"#utility.yul\":1239:1240   */\n      dup1\n        /* \"#utility.yul\":1232:1244   */\n      revert\n        /* \"#utility.yul\":1185:1246   */\n    tag_77:\n        /* \"#utility.yul\":1134:1252   */\n      pop\n      jump\t// out\n        /* \"#utility.yul\":1258:1393   */\n    tag_54:\n        /* \"#utility.yul\":1302:1307   */\n      0x00\n        /* \"#utility.yul\":1340:1346   */\n      dup2\n        /* \"#utility.yul\":1327:1347   */\n      calldataload\n        /* \"#utility.yul\":1318:1347   */\n      swap1\n      pop\n        /* \"#utility.yul\":1356:1387   */\n      tag_79\n        /* \"#utility.yul\":1381:1386   */\n      dup2\n        /* \"#utility.yul\":1356:1387   */\n      tag_53\n      jump\t// in\n    tag_79:\n        /* \"#utility.yul\":1258:1393   */\n      swap3\n      swap2\n      pop\n      pop\n      jump\t// out\n        /* \"#utility.yul\":1399:2014   */\n    tag_11:\n        /* \"#utility.yul\":1474:1480   */\n      0x00\n        /* \"#utility.yul\":1482:1488   */\n      dup1\n        /* \"#utility.yul\":1490:1496   */\n      0x00\n        /* \"#utility.yul\":1539:1541   */\n      0x60\n        /* \"#utility.yul\":1527:1536   */\n      dup5\n        /* \"#utility.yul\":1518:1525   */\n      dup7\n        /* \"#utility.yul\":1514:1537   */\n      sub\n        /* \"#utility.yul\":1510:1542   */\n      slt\n        /* \"#utility.yul\":1507:1626   */\n      iszero\n      tag_81\n      jumpi\n        /* \"#utility.yul\":1545:1624   */\n      tag_82\n      tag_48\n      jump\t// in\n    tag_82:\n        /* \"#utility.yul\":1507:1626   */\n    tag_81:\n        /* \"#utility.yul\":1665:1666   */\n      0x00\n        /* \"#utility.yul\":1690:1743   */\n      tag_83\n        /* \"#utility.yul\":1735:1742   */\n      dup7\n        /* \"#utility.yul\":1726:1732   */\n      dup3\n        /* \"#utility.yul\":1715:1724   */\n      dup8\n        /* \"#utility.yul\":1711:1733   */\n      add\n        /* \"#utility.yul\":1690:1743   */\n      tag_51\n      jump\t// in\n    tag_83:\n        /* \"#utility.yul\":1680:1743   */\n      swap4\n      pop\n        /* \"#utility.yul\":1636:1753   */\n      pop\n        /* \"#utility.yul\":1792:1794   */\n      0x20\n        /* \"#utility.yul\":1818:1871   */\n      tag_84\n        /* \"#utility.yul\":1863:1870   */\n      dup7\n        /* \"#utility.yul\":1854:1860   */\n      dup3\n        /* \"#utility.yul\":1843:1852   */\n      dup8\n        /* \"#utility.yul\":1839:1861   */\n      add\n        /* \"#utility.yul\":1818:1871   */\n      tag_51\n      jump\t// in\n    tag_84:\n        /* \"#utility.yul\":1808:1871   */\n      swap3\n      pop\n        /* \"#utility.yul\":1763:1881   */\n      pop\n        /* \"#utility.yul\":1920:1922   */\n      0x40\n        /* \"#utility.yul\":1946:1997   */\n      tag_85\n        /* \"#utility.yul\":1989:1996   */\n      dup7\n        /* \"#utility.yul\":1980:1986   */\n      dup3\n        /* \"#utility.yul\":1969:1978   */\n      dup8\n        /* \"#utility.yul\":1965:1987   */\n      add\n        /* \"#utility.yul\":1946:1997   */\n      tag_54\n      jump\t// in\n    tag_85:\n        /* \"#utility.yul\":1936:1997   */\n      swap2\n      pop\n        /* \"#utility.yul\":1891:2007   */\n      pop\n        /* \"#utility.yul\":1399:2014   */\n      swap3\n      pop\n      swap3\n      pop\n      swap3\n      jump\t// out\n        /* \"#utility.yul\":2020:2189   */\n    tag_55:\n        /* \"#utility.yul\":2104:2115   */\n      0x00\n        /* \"#utility.yul\":2138:2144   */\n      dup3\n        /* \"#utility.yul\":2133:2136   */\n      dup3\n        /* \"#utility.yul\":2126:2145   */\n      mstore\n        /* \"#utility.yul\":2178:2182   */\n      0x20\n        /* \"#utility.yul\":2173:2176   */\n      dup3\n        /* \"#utility.yul\":2169:2183   */\n      add\n        /* \"#utility.yul\":2154:2183   */\n      swap1\n      pop\n        /* \"#utility.yul\":2020:2189   */\n      swap3\n      swap2\n      pop\n      pop\n      jump\t// out\n        /* \"#utility.yul\":2195:2362   */\n    tag_56:\n        /* \"#utility.yul\":2335:2354   */\n      0x496e76616c6964204f7065726174696f6e000000000000000000000000000000\n        /* \"#utility.yul\":2331:2332   */\n      0x00\n        /* \"#utility.yul\":2323:2329   */\n      dup3\n        /* \"#utility.yul\":2319:2333   */\n      add\n        /* \"#utility.yul\":2312:2355   */\n      mstore\n        /* \"#utility.yul\":2195:2362   */\n      pop\n      jump\t// out\n        /* \"#utility.yul\":2368:2734   */\n    tag_57:\n        /* \"#utility.yul\":2510:2513   */\n      0x00\n        /* \"#utility.yul\":2531:2598   */\n      tag_89\n        /* \"#utility.yul\":2595:2597   */\n      0x11\n        /* \"#utility.yul\":2590:2593   */\n      dup4\n        /* \"#utility.yul\":2531:2598   */\n      tag_55\n      jump\t// in\n    tag_89:\n        /* \"#utility.yul\":2524:2598   */\n      swap2\n      pop\n        /* \"#utility.yul\":2607:2700   */\n      tag_90\n        /* \"#utility.yul\":2696:2699   */\n      dup3\n        /* \"#utility.yul\":2607:2700   */\n      tag_56\n      jump\t// in\n    tag_90:\n        /* \"#utility.yul\":2725:2727   */\n      0x20\n        /* \"#utility.yul\":2720:2723   */\n      dup3\n        /* \"#utility.yul\":2716:2728   */\n      add\n        /* \"#utility.yul\":2709:2728   */\n      swap1\n      pop\n        /* \"#utility.yul\":2368:2734   */\n      swap2\n      swap1\n      pop\n      jump\t// out\n        /* \"#utility.yul\":2740:3159   */\n    tag_32:\n        /* \"#utility.yul\":2906:2910   */\n      0x00\n        /* \"#utility.yul\":2944:2946   */\n      0x20\n        /* \"#utility.yul\":2933:2942   */\n      dup3\n        /* \"#utility.yul\":2929:2947   */\n      add\n        /* \"#utility.yul\":2921:2947   */\n      swap1\n      pop\n        /* \"#utility.yul\":2993:3002   */\n      dup2\n        /* \"#utility.yul\":2987:2991   */\n      dup2\n        /* \"#utility.yul\":2983:3003   */\n      sub\n        /* \"#utility.yul\":2979:2980   */\n      0x00\n        /* \"#utility.yul\":2968:2977   */\n      dup4\n        /* \"#utility.yul\":2964:2981   */\n      add\n        /* \"#utility.yul\":2957:3004   */\n      mstore\n        /* \"#utility.yul\":3021:3152   */\n      tag_92\n        /* \"#utility.yul\":3147:3151   */\n      dup2\n        /* \"#utility.yul\":3021:3152   */\n      tag_57\n      jump\t// in\n    tag_92:\n        /* \"#utility.yul\":3013:3152   */\n      swap1\n      pop\n        /* \"#utility.yul\":2740:3159   */\n      swap2\n      swap1\n      pop\n      jump\t// out\n        /* \"#utility.yul\":3165:3345   */\n    tag_58:\n        /* \"#utility.yul\":3213:3290   */\n      0x4e487b7100000000000000000000000000000000000000000000000000000000\n        /* \"#utility.yul\":3210:3211   */\n      0x00\n        /* \"#utility.yul\":3203:3291   */\n      mstore\n        /* \"#utility.yul\":3310:3314   */\n      0x11\n        /* \"#utility.yul\":3307:3308   */\n      0x04\n        /* \"#utility.yul\":3300:3315   */\n      mstore\n        /* \"#utility.yul\":3334:3338   */\n      0x24\n        /* \"#utility.yul\":3331:3332   */\n      0x00\n        /* \"#utility.yul\":3324:3339   */\n      revert\n        /* \"#utility.yul\":3351:3542   */\n    tag_35:\n        /* \"#utility.yul\":3391:3394   */\n      0x00\n        /* \"#utility.yul\":3410:3430   */\n      tag_95\n        /* \"#utility.yul\":3428:3429   */\n      dup3\n        /* \"#utility.yul\":3410:3430   */\n      tag_45\n      jump\t// in\n    tag_95:\n        /* \"#utility.yul\":3405:3430   */\n      swap2\n      pop\n        /* \"#utility.yul\":3444:3464   */\n      tag_96\n        /* \"#utility.yul\":3462:3463   */\n      dup4\n        /* \"#utility.yul\":3444:3464   */\n      tag_45\n      jump\t// in\n    tag_96:\n        /* \"#utility.yul\":3439:3464   */\n      swap3\n      pop\n        /* \"#utility.yul\":3487:3488   */\n      dup3\n        /* \"#utility.yul\":3484:3485   */\n      dup3\n        /* \"#utility.yul\":3480:3489   */\n      add\n        /* \"#utility.yul\":3473:3489   */\n      swap1\n      pop\n        /* \"#utility.yul\":3508:3511   */\n      dup1\n        /* \"#utility.yul\":3505:3506   */\n      dup3\n        /* \"#utility.yul\":3502:3512   */\n      gt\n        /* \"#utility.yul\":3499:3535   */\n      iszero\n      tag_97\n      jumpi\n        /* \"#utility.yul\":3515:3533   */\n      tag_98\n      tag_58\n      jump\t// in\n    tag_98:\n        /* \"#utility.yul\":3499:3535   */\n    tag_97:\n        /* \"#utility.yul\":3351:3542   */\n      swap3\n      swap2\n      pop\n      pop\n      jump\t// out\n        /* \"#utility.yul\":3548:3742   */\n    tag_38:\n        /* \"#utility.yul\":3588:3592   */\n      0x00\n        /* \"#utility.yul\":3608:3628   */\n      tag_100\n        /* \"#utility.yul\":3626:3627   */\n      dup3\n        /* \"#utility.yul\":3608:3628   */\n      tag_45\n      jump\t// in\n    tag_100:\n        /* \"#utility.yul\":3603:3628   */\n      swap2\n      pop\n        /* \"#utility.yul\":3642:3662   */\n      tag_101\n        /* \"#utility.yul\":3660:3661   */\n      dup4\n        /* \"#utility.yul\":3642:3662   */\n      tag_45\n      jump\t// in\n    tag_101:\n        /* \"#utility.yul\":3637:3662   */\n      swap3\n      pop\n        /* \"#utility.yul\":3686:3687   */\n      dup3\n        /* \"#utility.yul\":3683:3684   */\n      dup3\n        /* \"#utility.yul\":3679:3688   */\n      sub\n        /* \"#utility.yul\":3671:3688   */\n      swap1\n      pop\n        /* \"#utility.yul\":3710:3711   */\n      dup2\n        /* \"#utility.yul\":3704:3708   */\n      dup2\n        /* \"#utility.yul\":3701:3712   */\n      gt\n        /* \"#utility.yul\":3698:3735   */\n      iszero\n      tag_102\n      jumpi\n        /* \"#utility.yul\":3715:3733   */\n      tag_103\n      tag_58\n      jump\t// in\n    tag_103:\n        /* \"#utility.yul\":3698:3735   */\n    tag_102:\n        /* \"#utility.yul\":3548:3742   */\n      swap3\n      swap2\n      pop\n      pop\n      jump\t// out\n        /* \"#utility.yul\":3748:4158   */\n    tag_41:\n        /* \"#utility.yul\":3788:3795   */\n      0x00\n        /* \"#utility.yul\":3811:3831   */\n      tag_105\n        /* \"#utility.yul\":3829:3830   */\n      dup3\n        /* \"#utility.yul\":3811:3831   */\n      tag_45\n      jump\t// in\n    tag_105:\n        /* \"#utility.yul\":3806:3831   */\n      swap2\n      pop\n        /* \"#utility.yul\":3845:3865   */\n      tag_106\n        /* \"#utility.yul\":3863:3864   */\n      dup4\n        /* \"#utility.yul\":3845:3865   */\n      tag_45\n      jump\t// in\n    tag_106:\n        /* \"#utility.yul\":3840:3865   */\n      swap3\n      pop\n        /* \"#utility.yul\":3900:3901   */\n      dup3\n        /* \"#utility.yul\":3897:3898   */\n      dup3\n        /* \"#utility.yul\":3893:3902   */\n      mul\n        /* \"#utility.yul\":3922:3952   */\n      tag_107\n        /* \"#utility.yul\":3940:3951   */\n      dup2\n        /* \"#utility.yul\":3922:3952   */\n      tag_45\n      jump\t// in\n    tag_107:\n        /* \"#utility.yul\":3911:3952   */\n      swap2\n      pop\n        /* \"#utility.yul\":4101:4102   */\n      dup3\n        /* \"#utility.yul\":4092:4099   */\n      dup3\n        /* \"#utility.yul\":4088:4103   */\n      div\n        /* \"#utility.yul\":4085:4086   */\n      dup5\n        /* \"#utility.yul\":4082:4104   */\n      eq\n        /* \"#utility.yul\":4062:4063   */\n      dup4\n        /* \"#utility.yul\":4055:4064   */\n      iszero\n        /* \"#utility.yul\":4035:4118   */\n      or\n        /* \"#utility.yul\":4012:4151   */\n      tag_108\n      jumpi\n        /* \"#utility.yul\":4131:4149   */\n      tag_109\n      tag_58\n      jump\t// in\n    tag_109:\n        /* \"#utility.yul\":4012:4151   */\n    tag_108:\n        /* \"#utility.yul\":3796:4158   */\n      pop\n        /* \"#utility.yul\":3748:4158   */\n      swap3\n      swap2\n      pop\n      pop\n      jump\t// out\n        /* \"#utility.yul\":4164:4344   */\n    tag_59:\n        /* \"#utility.yul\":4212:4289   */\n      0x4e487b7100000000000000000000000000000000000000000000000000000000\n        /* \"#utility.yul\":4209:4210   */\n      0x00\n        /* \"#utility.yul\":4202:4290   */\n      mstore\n        /* \"#utility.yul\":4309:4313   */\n      0x12\n        /* \"#utility.yul\":4306:4307   */\n      0x04\n        /* \"#utility.yul\":4299:4314   */\n      mstore\n        /* \"#utility.yul\":4333:4337   */\n      0x24\n        /* \"#utility.yul\":4330:4331   */\n      0x00\n        /* \"#utility.yul\":4323:4338   */\n      revert\n        /* \"#utility.yul\":4350:4535   */\n    tag_44:\n        /* \"#utility.yul\":4390:4391   */\n      0x00\n        /* \"#utility.yul\":4407:4427   */\n      tag_112\n        /* \"#utility.yul\":4425:4426   */\n      dup3\n        /* \"#utility.yul\":4407:4427   */\n      tag_45\n      jump\t// in\n    tag_112:\n        /* \"#utility.yul\":4402:4427   */\n      swap2\n      pop\n        /* \"#utility.yul\":4441:4461   */\n      tag_113\n        /* \"#utility.yul\":4459:4460   */\n      dup4\n        /* \"#utility.yul\":4441:4461   */\n      tag_45\n      jump\t// in\n    tag_113:\n        /* \"#utility.yul\":4436:4461   */\n      swap3\n      pop\n        /* \"#utility.yul\":4480:4481   */\n      dup3\n        /* \"#utility.yul\":4470:4505   */\n      tag_114\n      jumpi\n        /* \"#utility.yul\":4485:4503   */\n      tag_115\n      tag_59\n      jump\t// in\n    tag_115:\n        /* \"#utility.yul\":4470:4505   */\n    tag_114:\n        /* \"#utility.yul\":4527:4528   */\n      dup3\n        /* \"#utility.yul\":4524:4525   */\n      dup3\n        /* \"#utility.yul\":4520:4529   */\n      div\n        /* \"#utility.yul\":4515:4529   */\n      swap1\n      pop\n        /* \"#utility.yul\":4350:4535   */\n      swap3\n      swap2\n      pop\n      pop\n      jump\t// out\n\n    auxdata: 0xa2646970667358221220c6c5e8606f7dfa3cdbd39ff6533c37929303a0d09db80fad2caadf6d5914689264736f6c634300081a0033\n}\n",
				"bytecode": {
					"linkReferences": {},
					"object": "6080604052348015600e575f80fd5b5061043d8061001c5f395ff3fe608060405234801561000f575f80fd5b5060043610610034575f3560e01c806369bd01c414610038578063d7d301a714610056575b5f80fd5b610040610072565b60405161004d9190610191565b60405180910390f35b610070600480360381019061006b919061020e565b61007a565b005b5f8054905090565b60018160ff16036100945761008f8383610125565b610120565b60028160ff16036100ae576100a9838361013a565b61011f565b60038160ff16036100c8576100c3838361014f565b61011e565b60048160ff16036100e2576100dd8383610164565b61011d565b6040517f08c379a0000000000000000000000000000000000000000000000000000000008152600401610114906102b8565b60405180910390fd5b5b5b5b505050565b80826101319190610303565b5f819055505050565b80826101469190610336565b5f819055505050565b808261015b9190610369565b5f819055505050565b808261017091906103d7565b5f819055505050565b5f819050919050565b61018b81610179565b82525050565b5f6020820190506101a45f830184610182565b92915050565b5f80fd5b6101b781610179565b81146101c1575f80fd5b50565b5f813590506101d2816101ae565b92915050565b5f60ff82169050919050565b6101ed816101d8565b81146101f7575f80fd5b50565b5f81359050610208816101e4565b92915050565b5f805f60608486031215610225576102246101aa565b5b5f610232868287016101c4565b9350506020610243868287016101c4565b9250506040610254868287016101fa565b9150509250925092565b5f82825260208201905092915050565b7f496e76616c6964204f7065726174696f6e0000000000000000000000000000005f82015250565b5f6102a260118361025e565b91506102ad8261026e565b602082019050919050565b5f6020820190508181035f8301526102cf81610296565b9050919050565b7f4e487b71000000000000000000000000000000000000000000000000000000005f52601160045260245ffd5b5f61030d82610179565b915061031883610179565b92508282019050808211156103305761032f6102d6565b5b92915050565b5f61034082610179565b915061034b83610179565b9250828203905081811115610363576103626102d6565b5b92915050565b5f61037382610179565b915061037e83610179565b925082820261038c81610179565b915082820484148315176103a3576103a26102d6565b5b5092915050565b7f4e487b71000000000000000000000000000000000000000000000000000000005f52601260045260245ffd5b5f6103e182610179565b91506103ec83610179565b9250826103fc576103fb6103aa565b5b82820490509291505056fea2646970667358221220c6c5e8606f7dfa3cdbd39ff6533c37929303a0d09db80fad2caadf6d5914689264736f6c634300081a0033",
					"opcodes": "PUSH1 0x80 PUSH1 0x40 MSTORE CALLVALUE DUP1 ISZERO PUSH1 0xE JUMPI PUSH0 DUP1 REVERT JUMPDEST POP PUSH2 0x43D DUP1 PUSH2 0x1C PUSH0 CODECOPY PUSH0 RETURN INVALID PUSH1 0x80 PUSH1 0x40 MSTORE CALLVALUE DUP1 ISZERO PUSH2 0xF JUMPI PUSH0 DUP1 REVERT JUMPDEST POP PUSH1 0x4 CALLDATASIZE LT PUSH2 0x34 JUMPI PUSH0 CALLDATALOAD PUSH1 0xE0 SHR DUP1 PUSH4 0x69BD01C4 EQ PUSH2 0x38 JUMPI DUP1 PUSH4 0xD7D301A7 EQ PUSH2 0x56 JUMPI JUMPDEST PUSH0 DUP1 REVERT JUMPDEST PUSH2 0x40 PUSH2 0x72 JUMP JUMPDEST PUSH1 0x40 MLOAD PUSH2 0x4D SWAP2 SWAP1 PUSH2 0x191 JUMP JUMPDEST PUSH1 0x40 MLOAD DUP1 SWAP2 SUB SWAP1 RETURN JUMPDEST PUSH2 0x70 PUSH1 0x4 DUP1 CALLDATASIZE SUB DUP2 ADD SWAP1 PUSH2 0x6B SWAP2 SWAP1 PUSH2 0x20E JUMP JUMPDEST PUSH2 0x7A JUMP JUMPDEST STOP JUMPDEST PUSH0 DUP1 SLOAD SWAP1 POP SWAP1 JUMP JUMPDEST PUSH1 0x1 DUP2 PUSH1 0xFF AND SUB PUSH2 0x94 JUMPI PUSH2 0x8F DUP4 DUP4 PUSH2 0x125 JUMP JUMPDEST PUSH2 0x120 JUMP JUMPDEST PUSH1 0x2 DUP2 PUSH1 0xFF AND SUB PUSH2 0xAE JUMPI PUSH2 0xA9 DUP4 DUP4 PUSH2 0x13A JUMP JUMPDEST PUSH2 0x11F JUMP JUMPDEST PUSH1 0x3 DUP2 PUSH1 0xFF AND SUB PUSH2 0xC8 JUMPI PUSH2 0xC3 DUP4 DUP4 PUSH2 0x14F JUMP JUMPDEST PUSH2 0x11E JUMP JUMPDEST PUSH1 0x4 DUP2 PUSH1 0xFF AND SUB PUSH2 0xE2 JUMPI PUSH2 0xDD DUP4 DUP4 PUSH2 0x164 JUMP JUMPDEST PUSH2 0x11D JUMP JUMPDEST PUSH1 0x40 MLOAD PUSH32 0x8C379A000000000000000000000000000000000000000000000000000000000 DUP2 MSTORE PUSH1 0x4 ADD PUSH2 0x114 SWAP1 PUSH2 0x2B8 JUMP JUMPDEST PUSH1 0x40 MLOAD DUP1 SWAP2 SUB SWAP1 REVERT JUMPDEST JUMPDEST JUMPDEST JUMPDEST POP POP POP JUMP JUMPDEST DUP1 DUP3 PUSH2 0x131 SWAP2 SWAP1 PUSH2 0x303 JUMP JUMPDEST PUSH0 DUP2 SWAP1 SSTORE POP POP POP JUMP JUMPDEST DUP1 DUP3 PUSH2 0x146 SWAP2 SWAP1 PUSH2 0x336 JUMP JUMPDEST PUSH0 DUP2 SWAP1 SSTORE POP POP POP JUMP JUMPDEST DUP1 DUP3 PUSH2 0x15B SWAP2 SWAP1 PUSH2 0x369 JUMP JUMPDEST PUSH0 DUP2 SWAP1 SSTORE POP POP POP JUMP JUMPDEST DUP1 DUP3 PUSH2 0x170 SWAP2 SWAP1 PUSH2 0x3D7 JUMP JUMPDEST PUSH0 DUP2 SWAP1 SSTORE POP POP POP JUMP JUMPDEST PUSH0 DUP2 SWAP1 POP SWAP2 SWAP1 POP JUMP JUMPDEST PUSH2 0x18B DUP2 PUSH2 0x179 JUMP JUMPDEST DUP3 MSTORE POP POP JUMP JUMPDEST PUSH0 PUSH1 0x20 DUP3 ADD SWAP1 POP PUSH2 0x1A4 PUSH0 DUP4 ADD DUP5 PUSH2 0x182 JUMP JUMPDEST SWAP3 SWAP2 POP POP JUMP JUMPDEST PUSH0 DUP1 REVERT JUMPDEST PUSH2 0x1B7 DUP2 PUSH2 0x179 JUMP JUMPDEST DUP2 EQ PUSH2 0x1C1 JUMPI PUSH0 DUP1 REVERT JUMPDEST POP JUMP JUMPDEST PUSH0 DUP2 CALLDATALOAD SWAP1 POP PUSH2 0x1D2 DUP2 PUSH2 0x1AE JUMP JUMPDEST SWAP3 SWAP2 POP POP JUMP JUMPDEST PUSH0 PUSH1 0xFF DUP3 AND SWAP1 POP SWAP2 SWAP1 POP JUMP JUMPDEST PUSH2 0x1ED DUP2 PUSH2 0x1D8 JUMP JUMPDEST DUP2 EQ PUSH2 0x1F7 JUMPI PUSH0 DUP1 REVERT JUMPDEST POP JUMP JUMPDEST PUSH0 DUP2 CALLDATALOAD SWAP1 POP PUSH2 0x208 DUP2 PUSH2 0x1E4 JUMP JUMPDEST SWAP3 SWAP2 POP POP JUMP JUMPDEST PUSH0 DUP1 PUSH0 PUSH1 0x60 DUP5 DUP7 SUB SLT ISZERO PUSH2 0x225 JUMPI PUSH2 0x224 PUSH2 0x1AA JUMP JUMPDEST JUMPDEST PUSH0 PUSH2 0x232 DUP7 DUP3 DUP8 ADD PUSH2 0x1C4 JUMP JUMPDEST SWAP4 POP POP PUSH1 0x20 PUSH2 0x243 DUP7 DUP3 DUP8 ADD PUSH2 0x1C4 JUMP JUMPDEST SWAP3 POP POP PUSH1 0x40 PUSH2 0x254 DUP7 DUP3 DUP8 ADD PUSH2 0x1FA JUMP JUMPDEST SWAP2 POP POP SWAP3 POP SWAP3 POP SWAP3 JUMP JUMPDEST PUSH0 DUP3 DUP3 MSTORE PUSH1 0x20 DUP3 ADD SWAP1 POP SWAP3 SWAP2 POP POP JUMP JUMPDEST PUSH32 0x496E76616C6964204F7065726174696F6E000000000000000000000000000000 PUSH0 DUP3 ADD MSTORE POP JUMP JUMPDEST PUSH0 PUSH2 0x2A2 PUSH1 0x11 DUP4 PUSH2 0x25E JUMP JUMPDEST SWAP2 POP PUSH2 0x2AD DUP3 PUSH2 0x26E JUMP JUMPDEST PUSH1 0x20 DUP3 ADD SWAP1 POP SWAP2 SWAP1 POP JUMP JUMPDEST PUSH0 PUSH1 0x20 DUP3 ADD SWAP1 POP DUP2 DUP2 SUB PUSH0 DUP4 ADD MSTORE PUSH2 0x2CF DUP2 PUSH2 0x296 JUMP JUMPDEST SWAP1 POP SWAP2 SWAP1 POP JUMP JUMPDEST PUSH32 0x4E487B7100000000000000000000000000000000000000000000000000000000 PUSH0 MSTORE PUSH1 0x11 PUSH1 0x4 MSTORE PUSH1 0x24 PUSH0 REVERT JUMPDEST PUSH0 PUSH2 0x30D DUP3 PUSH2 0x179 JUMP JUMPDEST SWAP2 POP PUSH2 0x318 DUP4 PUSH2 0x179 JUMP JUMPDEST SWAP3 POP DUP3 DUP3 ADD SWAP1 POP DUP1 DUP3 GT ISZERO PUSH2 0x330 JUMPI PUSH2 0x32F PUSH2 0x2D6 JUMP JUMPDEST JUMPDEST SWAP3 SWAP2 POP POP JUMP JUMPDEST PUSH0 PUSH2 0x340 DUP3 PUSH2 0x179 JUMP JUMPDEST SWAP2 POP PUSH2 0x34B DUP4 PUSH2 0x179 JUMP JUMPDEST SWAP3 POP DUP3 DUP3 SUB SWAP1 POP DUP2 DUP2 GT ISZERO PUSH2 0x363 JUMPI PUSH2 0x362 PUSH2 0x2D6 JUMP JUMPDEST JUMPDEST SWAP3 SWAP2 POP POP JUMP JUMPDEST PUSH0 PUSH2 0x373 DUP3 PUSH2 0x179 JUMP JUMPDEST SWAP2 POP PUSH2 0x37E DUP4 PUSH2 0x179 JUMP JUMPDEST SWAP3 POP DUP3 DUP3 MUL PUSH2 0x38C DUP2 PUSH2 0x179 JUMP JUMPDEST SWAP2 POP DUP3 DUP3 DIV DUP5 EQ DUP4 ISZERO OR PUSH2 0x3A3 JUMPI PUSH2 0x3A2 PUSH2 0x2D6 JUMP JUMPDEST JUMPDEST POP SWAP3 SWAP2 POP POP JUMP JUMPDEST PUSH32 0x4E487B7100000000000000000000000000000000000000000000000000000000 PUSH0 MSTORE PUSH1 0x12 PUSH1 0x4 MSTORE PUSH1 0x24 PUSH0 REVERT JUMPDEST PUSH0 PUSH2 0x3E1 DUP3 PUSH2 0x179 JUMP JUMPDEST SWAP2 POP PUSH2 0x3EC DUP4 PUSH2 0x179 JUMP JUMPDEST SWAP3 POP DUP3 PUSH2 0x3FC JUMPI PUSH2 0x3FB PUSH2 0x3AA JUMP JUMPDEST JUMPDEST DUP3 DUP3 DIV SWAP1 POP SWAP3 SWAP2 POP POP JUMP INVALID LOG2 PUSH5 0x6970667358 0x22 SLT KECCAK256 0xC6 0xC5 0xE8 PUSH1 0x6F PUSH30 0xFA3CDBD39FF6533C37929303A0D09DB80FAD2CAADF6D5914689264736F6C PUSH4 0x4300081A STOP CALLER "
				},
				"gasEstimates": {
					"creation": {
						"codeDepositCost": "217000",
						"executionCost": "255",
						"totalCost": "217255"
					},
					"external": {
						"getvalue()": "2410",
						"operationToCal(uint256,uint256,uint8)": "infinite"
					},
					"internal": {
						"divide(uint256,uint256)": "infinite",
						"multiply(uint256,uint256)": "infinite"
					}
				},
				"methodIdentifiers": {
					"getvalue()": "69bd01c4",
					"operationToCal(uint256,uint256,uint8)": "d7d301a7"
				}
			},
			"storageLayout": {
				"storage": [
					{
						"astId": 3,
						"contract": "contracts/advancedCalculator.sol:AdvancedCalculator",
						"label": "result",
						"offset": 0,
						"slot": "0",
						"type": "t_uint256"
					}
				],
				"types": {
					"t_uint256": {
						"encoding": "inplace",
						"label": "uint256",
						"numberOfBytes": "32"
					}
				}
			},
			"userdoc": {
				"kind": "user",
				"methods": {},
				"version": 1
			}
		}
	}
}