{
	"contracts/twitter.sol": {
		"Twitter": {
			"abi": [
				{
					"inputs": [
						{
							"internalType": "string",
							"name": "_tweet",
							"type": "string"
						}
					],
					"name": "createTweet",
					"outputs": [],
					"stateMutability": "nonpayable",
					"type": "function"
				},
				{
					"inputs": [
						{
							"internalType": "uint256",
							"name": "_i",
							"type": "uint256"
						}
					],
					"name": "get",
					"outputs": [
						{
							"components": [
								{
									"internalType": "address",
									"name": "author",
									"type": "address"
								},
								{
									"internalType": "string",
									"name": "content",
									"type": "string"
								},
								{
									"internalType": "uint256",
									"name": "timestamp",
									"type": "uint256"
								},
								{
									"internalType": "uint256",
									"name": "likes",
									"type": "uint256"
								}
							],
							"internalType": "struct Twitter.Tweet",
							"name": "",
							"type": "tuple"
						}
					],
					"stateMutability": "view",
					"type": "function"
				},
				{
					"inputs": [],
					"name": "getAllTweets",
					"outputs": [
						{
							"components": [
								{
									"internalType": "address",
									"name": "author",
									"type": "address"
								},
								{
									"internalType": "string",
									"name": "content",
									"type": "string"
								},
								{
									"internalType": "uint256",
									"name": "timestamp",
									"type": "uint256"
								},
								{
									"internalType": "uint256",
									"name": "likes",
									"type": "uint256"
								}
							],
							"internalType": "struct Twitter.Tweet[]",
							"name": "",
							"type": "tuple[]"
						}
					],
					"stateMutability": "view",
					"type": "function"
				},
				{
					"inputs": [
						{
							"internalType": "address",
							"name": "",
							"type": "address"
						},
						{
							"internalType": "uint256",
							"name": "",
							"type": "uint256"
						}
					],
					"name": "tweets",
					"outputs": [
						{
							"internalType": "address",
							"name": "author",
							"type": "address"
						},
						{
							"internalType": "string",
							"name": "content",
							"type": "string"
						},
						{
							"internalType": "uint256",
							"name": "timestamp",
							"type": "uint256"
						},
						{
							"internalType": "uint256",
							"name": "likes",
							"type": "uint256"
						}
					],
					"stateMutability": "view",
					"type": "function"
				}
			],
			"devdoc": {
				"kind": "dev",
				"methods": {},
				"version": 1
			},
			"evm": {
				"assembly": "    /* \"contracts/twitter.sol\":58:878  contract Twitter{... */\n  mstore(0x40, 0x80)\n  callvalue\n  dup1\n  iszero\n  tag_1\n  jumpi\n  0x00\n  dup1\n  revert\ntag_1:\n  pop\n  dataSize(sub_0)\n  dup1\n  dataOffset(sub_0)\n  0x00\n  codecopy\n  0x00\n  return\nstop\n\nsub_0: assembly {\n        /* \"contracts/twitter.sol\":58:878  contract Twitter{... */\n      mstore(0x40, 0x80)\n      callvalue\n      dup1\n      iszero\n      tag_1\n      jumpi\n      0x00\n      dup1\n      revert\n    tag_1:\n      pop\n      jumpi(tag_2, lt(calldatasize, 0x04))\n      shr(0xe0, calldataload(0x00))\n      dup1\n      0x05a1b4a9\n      eq\n      tag_3\n      jumpi\n      dup1\n      0x53256135\n      eq\n      tag_4\n      jumpi\n      dup1\n      0x7c9cd2bc\n      eq\n      tag_5\n      jumpi\n      dup1\n      0x9507d39a\n      eq\n      tag_6\n      jumpi\n    tag_2:\n      0x00\n      dup1\n      revert\n        /* \"contracts/twitter.sol\":249:290  mapping(address => Tweet[]) public tweets */\n    tag_3:\n      tag_7\n      0x04\n      dup1\n      calldatasize\n      sub\n      dup2\n      add\n      swap1\n      tag_8\n      swap2\n      swap1\n      tag_9\n      jump\t// in\n    tag_8:\n      tag_10\n      jump\t// in\n    tag_7:\n      mload(0x40)\n      tag_11\n      swap5\n      swap4\n      swap3\n      swap2\n      swap1\n      tag_12\n      jump\t// in\n    tag_11:\n      mload(0x40)\n      dup1\n      swap2\n      sub\n      swap1\n      return\n        /* \"contracts/twitter.sol\":773:874  function getAllTweets() public view returns(Tweet[] memory){... */\n    tag_4:\n      tag_13\n      tag_14\n      jump\t// in\n    tag_13:\n      mload(0x40)\n      tag_15\n      swap2\n      swap1\n      tag_16\n      jump\t// in\n    tag_15:\n      mload(0x40)\n      dup1\n      swap2\n      sub\n      swap1\n      return\n        /* \"contracts/twitter.sol\":297:660  function createTweet(string memory _tweet) public{... */\n    tag_5:\n      tag_17\n      0x04\n      dup1\n      calldatasize\n      sub\n      dup2\n      add\n      swap1\n      tag_18\n      swap2\n      swap1\n      tag_19\n      jump\t// in\n    tag_18:\n      tag_20\n      jump\t// in\n    tag_17:\n      stop\n        /* \"contracts/twitter.sol\":666:767  function get(uint _i) view public returns(Tweet memory){... */\n    tag_6:\n      tag_21\n      0x04\n      dup1\n      calldatasize\n      sub\n      dup2\n      add\n      swap1\n      tag_22\n      swap2\n      swap1\n      tag_23\n      jump\t// in\n    tag_22:\n      tag_24\n      jump\t// in\n    tag_21:\n      mload(0x40)\n      tag_25\n      swap2\n      swap1\n      tag_26\n      jump\t// in\n    tag_25:\n      mload(0x40)\n      dup1\n      swap2\n      sub\n      swap1\n      return\n        /* \"contracts/twitter.sol\":249:290  mapping(address => Tweet[]) public tweets */\n    tag_10:\n      mstore(0x20, 0x00)\n      dup2\n      0x00\n      mstore\n      keccak256(0x00, 0x40)\n      dup2\n      dup2\n      sload\n      dup2\n      lt\n      tag_27\n      jumpi\n      0x00\n      dup1\n      revert\n    tag_27:\n      swap1\n      0x00\n      mstore\n      keccak256(0x00, 0x20)\n      swap1\n      0x04\n      mul\n      add\n      0x00\n      swap2\n      pop\n      swap2\n      pop\n      pop\n      dup1\n      0x00\n      add\n      0x00\n      swap1\n      sload\n      swap1\n      0x0100\n      exp\n      swap1\n      div\n      0xffffffffffffffffffffffffffffffffffffffff\n      and\n      swap1\n      dup1\n      0x01\n      add\n      dup1\n      sload\n      tag_29\n      swap1\n      tag_30\n      jump\t// in\n    tag_29:\n      dup1\n      0x1f\n      add\n      0x20\n      dup1\n      swap2\n      div\n      mul\n      0x20\n      add\n      mload(0x40)\n      swap1\n      dup2\n      add\n      0x40\n      mstore\n      dup1\n      swap3\n      swap2\n      swap1\n      dup2\n      dup2\n      mstore\n      0x20\n      add\n      dup3\n      dup1\n      sload\n      tag_31\n      swap1\n      tag_30\n      jump\t// in\n    tag_31:\n      dup1\n      iszero\n      tag_32\n      jumpi\n      dup1\n      0x1f\n      lt\n      tag_33\n      jumpi\n      0x0100\n      dup1\n      dup4\n      sload\n      div\n      mul\n      dup4\n      mstore\n      swap2\n      0x20\n      add\n      swap2\n      jump(tag_32)\n    tag_33:\n      dup3\n      add\n      swap2\n      swap1\n      0x00\n      mstore\n      keccak256(0x00, 0x20)\n      swap1\n    tag_34:\n      dup2\n      sload\n      dup2\n      mstore\n      swap1\n      0x01\n      add\n      swap1\n      0x20\n      add\n      dup1\n      dup4\n      gt\n      tag_34\n      jumpi\n      dup3\n      swap1\n      sub\n      0x1f\n      and\n      dup3\n      add\n      swap2\n    tag_32:\n      pop\n      pop\n      pop\n      pop\n      pop\n      swap1\n      dup1\n      0x02\n      add\n      sload\n      swap1\n      dup1\n      0x03\n      add\n      sload\n      swap1\n      pop\n      dup5\n      jump\t// out\n        /* \"contracts/twitter.sol\":773:874  function getAllTweets() public view returns(Tweet[] memory){... */\n    tag_14:\n        /* \"contracts/twitter.sol\":817:831  Tweet[] memory */\n      0x60\n        /* \"contracts/twitter.sol\":849:855  tweets */\n      0x00\n        /* \"contracts/twitter.sol\":849:867  tweets[msg.sender] */\n      dup1\n        /* \"contracts/twitter.sol\":856:866  msg.sender */\n      caller\n        /* \"contracts/twitter.sol\":849:867  tweets[msg.sender] */\n      0xffffffffffffffffffffffffffffffffffffffff\n      and\n      0xffffffffffffffffffffffffffffffffffffffff\n      and\n      dup2\n      mstore\n      0x20\n      add\n      swap1\n      dup2\n      mstore\n      0x20\n      add\n      0x00\n      keccak256\n        /* \"contracts/twitter.sol\":842:867  return tweets[msg.sender] */\n      dup1\n      sload\n      dup1\n      0x20\n      mul\n      0x20\n      add\n      mload(0x40)\n      swap1\n      dup2\n      add\n      0x40\n      mstore\n      dup1\n      swap3\n      swap2\n      swap1\n      dup2\n      dup2\n      mstore\n      0x20\n      add\n      0x00\n      swap1\n    tag_36:\n      dup3\n      dup3\n      lt\n      iszero\n      tag_37\n      jumpi\n      dup4\n      dup3\n      swap1\n      0x00\n      mstore\n      keccak256(0x00, 0x20)\n      swap1\n      0x04\n      mul\n      add\n      mload(0x40)\n      dup1\n      0x80\n      add\n      0x40\n      mstore\n      swap1\n      dup2\n      0x00\n      dup3\n      add\n      0x00\n      swap1\n      sload\n      swap1\n      0x0100\n      exp\n      swap1\n      div\n      0xffffffffffffffffffffffffffffffffffffffff\n      and\n      0xffffffffffffffffffffffffffffffffffffffff\n      and\n      0xffffffffffffffffffffffffffffffffffffffff\n      and\n      dup2\n      mstore\n      0x20\n      add\n      0x01\n      dup3\n      add\n      dup1\n      sload\n      tag_39\n      swap1\n      tag_30\n      jump\t// in\n    tag_39:\n      dup1\n      0x1f\n      add\n      0x20\n      dup1\n      swap2\n      div\n      mul\n      0x20\n      add\n      mload(0x40)\n      swap1\n      dup2\n      add\n      0x40\n      mstore\n      dup1\n      swap3\n      swap2\n      swap1\n      dup2\n      dup2\n      mstore\n      0x20\n      add\n      dup3\n      dup1\n      sload\n      tag_40\n      swap1\n      tag_30\n      jump\t// in\n    tag_40:\n      dup1\n      iszero\n      tag_41\n      jumpi\n      dup1\n      0x1f\n      lt\n      tag_42\n      jumpi\n      0x0100\n      dup1\n      dup4\n      sload\n      div\n      mul\n      dup4\n      mstore\n      swap2\n      0x20\n      add\n      swap2\n      jump(tag_41)\n    tag_42:\n      dup3\n      add\n      swap2\n      swap1\n      0x00\n      mstore\n      keccak256(0x00, 0x20)\n      swap1\n    tag_43:\n      dup2\n      sload\n      dup2\n      mstore\n      swap1\n      0x01\n      add\n      swap1\n      0x20\n      add\n      dup1\n      dup4\n      gt\n      tag_43\n      jumpi\n      dup3\n      swap1\n      sub\n      0x1f\n      and\n      dup3\n      add\n      swap2\n    tag_41:\n      pop\n      pop\n      pop\n      pop\n      pop\n      dup2\n      mstore\n      0x20\n      add\n      0x02\n      dup3\n      add\n      sload\n      dup2\n      mstore\n      0x20\n      add\n      0x03\n      dup3\n      add\n      sload\n      dup2\n      mstore\n      pop\n      pop\n      dup2\n      mstore\n      0x20\n      add\n      swap1\n      0x01\n      add\n      swap1\n      jump(tag_36)\n    tag_37:\n      pop\n      pop\n      pop\n      pop\n      swap1\n      pop\n        /* \"contracts/twitter.sol\":773:874  function getAllTweets() public view returns(Tweet[] memory){... */\n      swap1\n      jump\t// out\n        /* \"contracts/twitter.sol\":297:660  function createTweet(string memory _tweet) public{... */\n    tag_20:\n        /* \"contracts/twitter.sol\":116:119  280 */\n      0x0118\n        /* \"contracts/twitter.sol\":365:405  bytes(_tweet).length <= MAX_TWEET_LENGTH */\n      0xffff\n      and\n        /* \"contracts/twitter.sol\":371:377  _tweet */\n      dup2\n        /* \"contracts/twitter.sol\":365:385  bytes(_tweet).length */\n      mload\n        /* \"contracts/twitter.sol\":365:405  bytes(_tweet).length <= MAX_TWEET_LENGTH */\n      gt\n      iszero\n        /* \"contracts/twitter.sol\":357:433  require(bytes(_tweet).length <= MAX_TWEET_LENGTH, \"Tweet too long to post.\") */\n      tag_45\n      jumpi\n      mload(0x40)\n      0x08c379a000000000000000000000000000000000000000000000000000000000\n      dup2\n      mstore\n      0x04\n      add\n      tag_46\n      swap1\n      tag_47\n      jump\t// in\n    tag_46:\n      mload(0x40)\n      dup1\n      swap2\n      sub\n      swap1\n      revert\n    tag_45:\n        /* \"contracts/twitter.sol\":444:465  Tweet memory newTweet */\n      0x00\n        /* \"contracts/twitter.sol\":468:608  Tweet({... */\n      mload(0x40)\n      dup1\n      0x80\n      add\n      0x40\n      mstore\n      dup1\n        /* \"contracts/twitter.sol\":496:506  msg.sender */\n      caller\n        /* \"contracts/twitter.sol\":468:608  Tweet({... */\n      0xffffffffffffffffffffffffffffffffffffffff\n      and\n      dup2\n      mstore\n      0x20\n      add\n        /* \"contracts/twitter.sol\":529:535  _tweet */\n      dup4\n        /* \"contracts/twitter.sol\":468:608  Tweet({... */\n      dup2\n      mstore\n      0x20\n      add\n        /* \"contracts/twitter.sol\":560:575  block.timestamp */\n      timestamp\n        /* \"contracts/twitter.sol\":468:608  Tweet({... */\n      dup2\n      mstore\n      0x20\n      add\n        /* \"contracts/twitter.sol\":596:597  0 */\n      0x00\n        /* \"contracts/twitter.sol\":468:608  Tweet({... */\n      dup2\n      mstore\n      pop\n        /* \"contracts/twitter.sol\":444:608  Tweet memory newTweet = Tweet({... */\n      swap1\n      pop\n        /* \"contracts/twitter.sol\":620:626  tweets */\n      0x00\n        /* \"contracts/twitter.sol\":620:638  tweets[msg.sender] */\n      dup1\n        /* \"contracts/twitter.sol\":627:637  msg.sender */\n      caller\n        /* \"contracts/twitter.sol\":620:638  tweets[msg.sender] */\n      0xffffffffffffffffffffffffffffffffffffffff\n      and\n      0xffffffffffffffffffffffffffffffffffffffff\n      and\n      dup2\n      mstore\n      0x20\n      add\n      swap1\n      dup2\n      mstore\n      0x20\n      add\n      0x00\n      keccak256\n        /* \"contracts/twitter.sol\":644:652  newTweet */\n      dup2\n        /* \"contracts/twitter.sol\":620:653  tweets[msg.sender].push(newTweet) */\n      swap1\n      dup1\n      0x01\n      dup2\n      sload\n      add\n      dup1\n      dup3\n      sstore\n      dup1\n      swap2\n      pop\n      pop\n      0x01\n      swap1\n      sub\n      swap1\n      0x00\n      mstore\n      keccak256(0x00, 0x20)\n      swap1\n      0x04\n      mul\n      add\n      0x00\n      swap1\n      swap2\n      swap1\n      swap2\n      swap1\n      swap2\n      pop\n      0x00\n      dup3\n      add\n      mload\n      dup2\n      0x00\n      add\n      exp(0x0100, 0x00)\n      dup2\n      sload\n      dup2\n      0xffffffffffffffffffffffffffffffffffffffff\n      mul\n      not\n      and\n      swap1\n      dup4\n      0xffffffffffffffffffffffffffffffffffffffff\n      and\n      mul\n      or\n      swap1\n      sstore\n      pop\n      0x20\n      dup3\n      add\n      mload\n      dup2\n      0x01\n      add\n      swap1\n      dup2\n      tag_49\n      swap2\n      swap1\n      tag_50\n      jump\t// in\n    tag_49:\n      pop\n      0x40\n      dup3\n      add\n      mload\n      dup2\n      0x02\n      add\n      sstore\n      0x60\n      dup3\n      add\n      mload\n      dup2\n      0x03\n      add\n      sstore\n      pop\n      pop\n        /* \"contracts/twitter.sol\":346:660  {... */\n      pop\n        /* \"contracts/twitter.sol\":297:660  function createTweet(string memory _tweet) public{... */\n      pop\n      jump\t// out\n        /* \"contracts/twitter.sol\":666:767  function get(uint _i) view public returns(Tweet memory){... */\n    tag_24:\n        /* \"contracts/twitter.sol\":708:720  Tweet memory */\n      tag_51\n      tag_52\n      jump\t// in\n    tag_51:\n        /* \"contracts/twitter.sol\":738:744  tweets */\n      0x00\n        /* \"contracts/twitter.sol\":738:756  tweets[msg.sender] */\n      dup1\n        /* \"contracts/twitter.sol\":745:755  msg.sender */\n      caller\n        /* \"contracts/twitter.sol\":738:756  tweets[msg.sender] */\n      0xffffffffffffffffffffffffffffffffffffffff\n      and\n      0xffffffffffffffffffffffffffffffffffffffff\n      and\n      dup2\n      mstore\n      0x20\n      add\n      swap1\n      dup2\n      mstore\n      0x20\n      add\n      0x00\n      keccak256\n        /* \"contracts/twitter.sol\":757:759  _i */\n      dup3\n        /* \"contracts/twitter.sol\":738:760  tweets[msg.sender][_i] */\n      dup2\n      sload\n      dup2\n      lt\n      tag_54\n      jumpi\n      tag_55\n      tag_56\n      jump\t// in\n    tag_55:\n    tag_54:\n      swap1\n      0x00\n      mstore\n      keccak256(0x00, 0x20)\n      swap1\n      0x04\n      mul\n      add\n        /* \"contracts/twitter.sol\":731:760  return tweets[msg.sender][_i] */\n      mload(0x40)\n      dup1\n      0x80\n      add\n      0x40\n      mstore\n      swap1\n      dup2\n      0x00\n      dup3\n      add\n      0x00\n      swap1\n      sload\n      swap1\n      0x0100\n      exp\n      swap1\n      div\n      0xffffffffffffffffffffffffffffffffffffffff\n      and\n      0xffffffffffffffffffffffffffffffffffffffff\n      and\n      0xffffffffffffffffffffffffffffffffffffffff\n      and\n      dup2\n      mstore\n      0x20\n      add\n      0x01\n      dup3\n      add\n      dup1\n      sload\n      tag_58\n      swap1\n      tag_30\n      jump\t// in\n    tag_58:\n      dup1\n      0x1f\n      add\n      0x20\n      dup1\n      swap2\n      div\n      mul\n      0x20\n      add\n      mload(0x40)\n      swap1\n      dup2\n      add\n      0x40\n      mstore\n      dup1\n      swap3\n      swap2\n      swap1\n      dup2\n      dup2\n      mstore\n      0x20\n      add\n      dup3\n      dup1\n      sload\n      tag_59\n      swap1\n      tag_30\n      jump\t// in\n    tag_59:\n      dup1\n      iszero\n      tag_60\n      jumpi\n      dup1\n      0x1f\n      lt\n      tag_61\n      jumpi\n      0x0100\n      dup1\n      dup4\n      sload\n      div\n      mul\n      dup4\n      mstore\n      swap2\n      0x20\n      add\n      swap2\n      jump(tag_60)\n    tag_61:\n      dup3\n      add\n      swap2\n      swap1\n      0x00\n      mstore\n      keccak256(0x00, 0x20)\n      swap1\n    tag_62:\n      dup2\n      sload\n      dup2\n      mstore\n      swap1\n      0x01\n      add\n      swap1\n      0x20\n      add\n      dup1\n      dup4\n      gt\n      tag_62\n      jumpi\n      dup3\n      swap1\n      sub\n      0x1f\n      and\n      dup3\n      add\n      swap2\n    tag_60:\n      pop\n      pop\n      pop\n      pop\n      pop\n      dup2\n      mstore\n      0x20\n      add\n      0x02\n      dup3\n      add\n      sload\n      dup2\n      mstore\n      0x20\n      add\n      0x03\n      dup3\n      add\n      sload\n      dup2\n      mstore\n      pop\n      pop\n      swap1\n      pop\n        /* \"contracts/twitter.sol\":666:767  function get(uint _i) view public returns(Tweet memory){... */\n      swap2\n      swap1\n      pop\n      jump\t// out\n    tag_52:\n      mload(0x40)\n      dup1\n      0x80\n      add\n      0x40\n      mstore\n      dup1\n      and(0xffffffffffffffffffffffffffffffffffffffff, 0x00)\n      dup2\n      mstore\n      0x20\n      add\n      0x60\n      dup2\n      mstore\n      0x20\n      add\n      0x00\n      dup2\n      mstore\n      0x20\n      add\n      0x00\n      dup2\n      mstore\n      pop\n      swap1\n      jump\t// out\n        /* \"#utility.yul\":7:82   */\n    tag_63:\n        /* \"#utility.yul\":40:46   */\n      0x00\n        /* \"#utility.yul\":73:75   */\n      0x40\n        /* \"#utility.yul\":67:76   */\n      mload\n        /* \"#utility.yul\":57:76   */\n      swap1\n      pop\n        /* \"#utility.yul\":7:82   */\n      swap1\n      jump\t// out\n        /* \"#utility.yul\":88:205   */\n    tag_64:\n        /* \"#utility.yul\":197:198   */\n      0x00\n        /* \"#utility.yul\":194:195   */\n      dup1\n        /* \"#utility.yul\":187:199   */\n      revert\n        /* \"#utility.yul\":211:328   */\n    tag_65:\n        /* \"#utility.yul\":320:321   */\n      0x00\n        /* \"#utility.yul\":317:318   */\n      dup1\n        /* \"#utility.yul\":310:322   */\n      revert\n        /* \"#utility.yul\":334:460   */\n    tag_66:\n        /* \"#utility.yul\":371:378   */\n      0x00\n        /* \"#utility.yul\":411:453   */\n      0xffffffffffffffffffffffffffffffffffffffff\n        /* \"#utility.yul\":404:409   */\n      dup3\n        /* \"#utility.yul\":400:454   */\n      and\n        /* \"#utility.yul\":389:454   */\n      swap1\n      pop\n        /* \"#utility.yul\":334:460   */\n      swap2\n      swap1\n      pop\n      jump\t// out\n        /* \"#utility.yul\":466:562   */\n    tag_67:\n        /* \"#utility.yul\":503:510   */\n      0x00\n        /* \"#utility.yul\":532:556   */\n      tag_125\n        /* \"#utility.yul\":550:555   */\n      dup3\n        /* \"#utility.yul\":532:556   */\n      tag_66\n      jump\t// in\n    tag_125:\n        /* \"#utility.yul\":521:556   */\n      swap1\n      pop\n        /* \"#utility.yul\":466:562   */\n      swap2\n      swap1\n      pop\n      jump\t// out\n        /* \"#utility.yul\":568:690   */\n    tag_68:\n        /* \"#utility.yul\":641:665   */\n      tag_127\n        /* \"#utility.yul\":659:664   */\n      dup2\n        /* \"#utility.yul\":641:665   */\n      tag_67\n      jump\t// in\n    tag_127:\n        /* \"#utility.yul\":634:639   */\n      dup2\n        /* \"#utility.yul\":631:666   */\n      eq\n        /* \"#utility.yul\":621:684   */\n      tag_128\n      jumpi\n        /* \"#utility.yul\":680:681   */\n      0x00\n        /* \"#utility.yul\":677:678   */\n      dup1\n        /* \"#utility.yul\":670:682   */\n      revert\n        /* \"#utility.yul\":621:684   */\n    tag_128:\n        /* \"#utility.yul\":568:690   */\n      pop\n      jump\t// out\n        /* \"#utility.yul\":696:835   */\n    tag_69:\n        /* \"#utility.yul\":742:747   */\n      0x00\n        /* \"#utility.yul\":780:786   */\n      dup2\n        /* \"#utility.yul\":767:787   */\n      calldataload\n        /* \"#utility.yul\":758:787   */\n      swap1\n      pop\n        /* \"#utility.yul\":796:829   */\n      tag_130\n        /* \"#utility.yul\":823:828   */\n      dup2\n        /* \"#utility.yul\":796:829   */\n      tag_68\n      jump\t// in\n    tag_130:\n        /* \"#utility.yul\":696:835   */\n      swap3\n      swap2\n      pop\n      pop\n      jump\t// out\n        /* \"#utility.yul\":841:918   */\n    tag_70:\n        /* \"#utility.yul\":878:885   */\n      0x00\n        /* \"#utility.yul\":907:912   */\n      dup2\n        /* \"#utility.yul\":896:912   */\n      swap1\n      pop\n        /* \"#utility.yul\":841:918   */\n      swap2\n      swap1\n      pop\n      jump\t// out\n        /* \"#utility.yul\":924:1046   */\n    tag_71:\n        /* \"#utility.yul\":997:1021   */\n      tag_133\n        /* \"#utility.yul\":1015:1020   */\n      dup2\n        /* \"#utility.yul\":997:1021   */\n      tag_70\n      jump\t// in\n    tag_133:\n        /* \"#utility.yul\":990:995   */\n      dup2\n        /* \"#utility.yul\":987:1022   */\n      eq\n        /* \"#utility.yul\":977:1040   */\n      tag_134\n      jumpi\n        /* \"#utility.yul\":1036:1037   */\n      0x00\n        /* \"#utility.yul\":1033:1034   */\n      dup1\n        /* \"#utility.yul\":1026:1038   */\n      revert\n        /* \"#utility.yul\":977:1040   */\n    tag_134:\n        /* \"#utility.yul\":924:1046   */\n      pop\n      jump\t// out\n        /* \"#utility.yul\":1052:1191   */\n    tag_72:\n        /* \"#utility.yul\":1098:1103   */\n      0x00\n        /* \"#utility.yul\":1136:1142   */\n      dup2\n        /* \"#utility.yul\":1123:1143   */\n      calldataload\n        /* \"#utility.yul\":1114:1143   */\n      swap1\n      pop\n        /* \"#utility.yul\":1152:1185   */\n      tag_136\n        /* \"#utility.yul\":1179:1184   */\n      dup2\n        /* \"#utility.yul\":1152:1185   */\n      tag_71\n      jump\t// in\n    tag_136:\n        /* \"#utility.yul\":1052:1191   */\n      swap3\n      swap2\n      pop\n      pop\n      jump\t// out\n        /* \"#utility.yul\":1197:1671   */\n    tag_9:\n        /* \"#utility.yul\":1265:1271   */\n      0x00\n        /* \"#utility.yul\":1273:1279   */\n      dup1\n        /* \"#utility.yul\":1322:1324   */\n      0x40\n        /* \"#utility.yul\":1310:1319   */\n      dup4\n        /* \"#utility.yul\":1301:1308   */\n      dup6\n        /* \"#utility.yul\":1297:1320   */\n      sub\n        /* \"#utility.yul\":1293:1325   */\n      slt\n        /* \"#utility.yul\":1290:1409   */\n      iszero\n      tag_138\n      jumpi\n        /* \"#utility.yul\":1328:1407   */\n      tag_139\n      tag_64\n      jump\t// in\n    tag_139:\n        /* \"#utility.yul\":1290:1409   */\n    tag_138:\n        /* \"#utility.yul\":1448:1449   */\n      0x00\n        /* \"#utility.yul\":1473:1526   */\n      tag_140\n        /* \"#utility.yul\":1518:1525   */\n      dup6\n        /* \"#utility.yul\":1509:1515   */\n      dup3\n        /* \"#utility.yul\":1498:1507   */\n      dup7\n        /* \"#utility.yul\":1494:1516   */\n      add\n        /* \"#utility.yul\":1473:1526   */\n      tag_69\n      jump\t// in\n    tag_140:\n        /* \"#utility.yul\":1463:1526   */\n      swap3\n      pop\n        /* \"#utility.yul\":1419:1536   */\n      pop\n        /* \"#utility.yul\":1575:1577   */\n      0x20\n        /* \"#utility.yul\":1601:1654   */\n      tag_141\n        /* \"#utility.yul\":1646:1653   */\n      dup6\n        /* \"#utility.yul\":1637:1643   */\n      dup3\n        /* \"#utility.yul\":1626:1635   */\n      dup7\n        /* \"#utility.yul\":1622:1644   */\n      add\n        /* \"#utility.yul\":1601:1654   */\n      tag_72\n      jump\t// in\n    tag_141:\n        /* \"#utility.yul\":1591:1654   */\n      swap2\n      pop\n        /* \"#utility.yul\":1546:1664   */\n      pop\n        /* \"#utility.yul\":1197:1671   */\n      swap3\n      pop\n      swap3\n      swap1\n      pop\n      jump\t// out\n        /* \"#utility.yul\":1677:1795   */\n    tag_73:\n        /* \"#utility.yul\":1764:1788   */\n      tag_143\n        /* \"#utility.yul\":1782:1787   */\n      dup2\n        /* \"#utility.yul\":1764:1788   */\n      tag_67\n      jump\t// in\n    tag_143:\n        /* \"#utility.yul\":1759:1762   */\n      dup3\n        /* \"#utility.yul\":1752:1789   */\n      mstore\n        /* \"#utility.yul\":1677:1795   */\n      pop\n      pop\n      jump\t// out\n        /* \"#utility.yul\":1801:1900   */\n    tag_74:\n        /* \"#utility.yul\":1853:1859   */\n      0x00\n        /* \"#utility.yul\":1887:1892   */\n      dup2\n        /* \"#utility.yul\":1881:1893   */\n      mload\n        /* \"#utility.yul\":1871:1893   */\n      swap1\n      pop\n        /* \"#utility.yul\":1801:1900   */\n      swap2\n      swap1\n      pop\n      jump\t// out\n        /* \"#utility.yul\":1906:2075   */\n    tag_75:\n        /* \"#utility.yul\":1990:2001   */\n      0x00\n        /* \"#utility.yul\":2024:2030   */\n      dup3\n        /* \"#utility.yul\":2019:2022   */\n      dup3\n        /* \"#utility.yul\":2012:2031   */\n      mstore\n        /* \"#utility.yul\":2064:2068   */\n      0x20\n        /* \"#utility.yul\":2059:2062   */\n      dup3\n        /* \"#utility.yul\":2055:2069   */\n      add\n        /* \"#utility.yul\":2040:2069   */\n      swap1\n      pop\n        /* \"#utility.yul\":1906:2075   */\n      swap3\n      swap2\n      pop\n      pop\n      jump\t// out\n        /* \"#utility.yul\":2081:2220   */\n    tag_76:\n        /* \"#utility.yul\":2170:2176   */\n      dup3\n        /* \"#utility.yul\":2165:2168   */\n      dup2\n        /* \"#utility.yul\":2160:2163   */\n      dup4\n        /* \"#utility.yul\":2154:2177   */\n      mcopy\n        /* \"#utility.yul\":2211:2212   */\n      0x00\n        /* \"#utility.yul\":2202:2208   */\n      dup4\n        /* \"#utility.yul\":2197:2200   */\n      dup4\n        /* \"#utility.yul\":2193:2209   */\n      add\n        /* \"#utility.yul\":2186:2213   */\n      mstore\n        /* \"#utility.yul\":2081:2220   */\n      pop\n      pop\n      pop\n      jump\t// out\n        /* \"#utility.yul\":2226:2328   */\n    tag_77:\n        /* \"#utility.yul\":2267:2273   */\n      0x00\n        /* \"#utility.yul\":2318:2320   */\n      0x1f\n        /* \"#utility.yul\":2314:2321   */\n      not\n        /* \"#utility.yul\":2309:2311   */\n      0x1f\n        /* \"#utility.yul\":2302:2307   */\n      dup4\n        /* \"#utility.yul\":2298:2312   */\n      add\n        /* \"#utility.yul\":2294:2322   */\n      and\n        /* \"#utility.yul\":2284:2322   */\n      swap1\n      pop\n        /* \"#utility.yul\":2226:2328   */\n      swap2\n      swap1\n      pop\n      jump\t// out\n        /* \"#utility.yul\":2334:2711   */\n    tag_78:\n        /* \"#utility.yul\":2422:2425   */\n      0x00\n        /* \"#utility.yul\":2450:2489   */\n      tag_149\n        /* \"#utility.yul\":2483:2488   */\n      dup3\n        /* \"#utility.yul\":2450:2489   */\n      tag_74\n      jump\t// in\n    tag_149:\n        /* \"#utility.yul\":2505:2576   */\n      tag_150\n        /* \"#utility.yul\":2569:2575   */\n      dup2\n        /* \"#utility.yul\":2564:2567   */\n      dup6\n        /* \"#utility.yul\":2505:2576   */\n      tag_75\n      jump\t// in\n    tag_150:\n        /* \"#utility.yul\":2498:2576   */\n      swap4\n      pop\n        /* \"#utility.yul\":2585:2650   */\n      tag_151\n        /* \"#utility.yul\":2643:2649   */\n      dup2\n        /* \"#utility.yul\":2638:2641   */\n      dup6\n        /* \"#utility.yul\":2631:2635   */\n      0x20\n        /* \"#utility.yul\":2624:2629   */\n      dup7\n        /* \"#utility.yul\":2620:2636   */\n      add\n        /* \"#utility.yul\":2585:2650   */\n      tag_76\n      jump\t// in\n    tag_151:\n        /* \"#utility.yul\":2675:2704   */\n      tag_152\n        /* \"#utility.yul\":2697:2703   */\n      dup2\n        /* \"#utility.yul\":2675:2704   */\n      tag_77\n      jump\t// in\n    tag_152:\n        /* \"#utility.yul\":2670:2673   */\n      dup5\n        /* \"#utility.yul\":2666:2705   */\n      add\n        /* \"#utility.yul\":2659:2705   */\n      swap2\n      pop\n        /* \"#utility.yul\":2426:2711   */\n      pop\n        /* \"#utility.yul\":2334:2711   */\n      swap3\n      swap2\n      pop\n      pop\n      jump\t// out\n        /* \"#utility.yul\":2717:2835   */\n    tag_79:\n        /* \"#utility.yul\":2804:2828   */\n      tag_154\n        /* \"#utility.yul\":2822:2827   */\n      dup2\n        /* \"#utility.yul\":2804:2828   */\n      tag_70\n      jump\t// in\n    tag_154:\n        /* \"#utility.yul\":2799:2802   */\n      dup3\n        /* \"#utility.yul\":2792:2829   */\n      mstore\n        /* \"#utility.yul\":2717:2835   */\n      pop\n      pop\n      jump\t// out\n        /* \"#utility.yul\":2841:3485   */\n    tag_12:\n        /* \"#utility.yul\":3038:3042   */\n      0x00\n        /* \"#utility.yul\":3076:3079   */\n      0x80\n        /* \"#utility.yul\":3065:3074   */\n      dup3\n        /* \"#utility.yul\":3061:3080   */\n      add\n        /* \"#utility.yul\":3053:3080   */\n      swap1\n      pop\n        /* \"#utility.yul\":3090:3161   */\n      tag_156\n        /* \"#utility.yul\":3158:3159   */\n      0x00\n        /* \"#utility.yul\":3147:3156   */\n      dup4\n        /* \"#utility.yul\":3143:3160   */\n      add\n        /* \"#utility.yul\":3134:3140   */\n      dup8\n        /* \"#utility.yul\":3090:3161   */\n      tag_73\n      jump\t// in\n    tag_156:\n        /* \"#utility.yul\":3208:3217   */\n      dup2\n        /* \"#utility.yul\":3202:3206   */\n      dup2\n        /* \"#utility.yul\":3198:3218   */\n      sub\n        /* \"#utility.yul\":3193:3195   */\n      0x20\n        /* \"#utility.yul\":3182:3191   */\n      dup4\n        /* \"#utility.yul\":3178:3196   */\n      add\n        /* \"#utility.yul\":3171:3219   */\n      mstore\n        /* \"#utility.yul\":3236:3314   */\n      tag_157\n        /* \"#utility.yul\":3309:3313   */\n      dup2\n        /* \"#utility.yul\":3300:3306   */\n      dup7\n        /* \"#utility.yul\":3236:3314   */\n      tag_78\n      jump\t// in\n    tag_157:\n        /* \"#utility.yul\":3228:3314   */\n      swap1\n      pop\n        /* \"#utility.yul\":3324:3396   */\n      tag_158\n        /* \"#utility.yul\":3392:3394   */\n      0x40\n        /* \"#utility.yul\":3381:3390   */\n      dup4\n        /* \"#utility.yul\":3377:3395   */\n      add\n        /* \"#utility.yul\":3368:3374   */\n      dup6\n        /* \"#utility.yul\":3324:3396   */\n      tag_79\n      jump\t// in\n    tag_158:\n        /* \"#utility.yul\":3406:3478   */\n      tag_159\n        /* \"#utility.yul\":3474:3476   */\n      0x60\n        /* \"#utility.yul\":3463:3472   */\n      dup4\n        /* \"#utility.yul\":3459:3477   */\n      add\n        /* \"#utility.yul\":3450:3456   */\n      dup5\n        /* \"#utility.yul\":3406:3478   */\n      tag_79\n      jump\t// in\n    tag_159:\n        /* \"#utility.yul\":2841:3485   */\n      swap6\n      swap5\n      pop\n      pop\n      pop\n      pop\n      pop\n      jump\t// out\n        /* \"#utility.yul\":3491:3626   */\n    tag_80:\n        /* \"#utility.yul\":3579:3585   */\n      0x00\n        /* \"#utility.yul\":3613:3618   */\n      dup2\n        /* \"#utility.yul\":3607:3619   */\n      mload\n        /* \"#utility.yul\":3597:3619   */\n      swap1\n      pop\n        /* \"#utility.yul\":3491:3626   */\n      swap2\n      swap1\n      pop\n      jump\t// out\n        /* \"#utility.yul\":3632:3837   */\n    tag_81:\n        /* \"#utility.yul\":3752:3763   */\n      0x00\n        /* \"#utility.yul\":3786:3792   */\n      dup3\n        /* \"#utility.yul\":3781:3784   */\n      dup3\n        /* \"#utility.yul\":3774:3793   */\n      mstore\n        /* \"#utility.yul\":3826:3830   */\n      0x20\n        /* \"#utility.yul\":3821:3824   */\n      dup3\n        /* \"#utility.yul\":3817:3831   */\n      add\n        /* \"#utility.yul\":3802:3831   */\n      swap1\n      pop\n        /* \"#utility.yul\":3632:3837   */\n      swap3\n      swap2\n      pop\n      pop\n      jump\t// out\n        /* \"#utility.yul\":3843:3996   */\n    tag_82:\n        /* \"#utility.yul\":3931:3935   */\n      0x00\n        /* \"#utility.yul\":3954:3957   */\n      dup2\n        /* \"#utility.yul\":3946:3957   */\n      swap1\n      pop\n        /* \"#utility.yul\":3984:3988   */\n      0x20\n        /* \"#utility.yul\":3979:3982   */\n      dup3\n        /* \"#utility.yul\":3975:3989   */\n      add\n        /* \"#utility.yul\":3967:3989   */\n      swap1\n      pop\n        /* \"#utility.yul\":3843:3996   */\n      swap2\n      swap1\n      pop\n      jump\t// out\n        /* \"#utility.yul\":4002:4110   */\n    tag_83:\n        /* \"#utility.yul\":4079:4103   */\n      tag_164\n        /* \"#utility.yul\":4097:4102   */\n      dup2\n        /* \"#utility.yul\":4079:4103   */\n      tag_67\n      jump\t// in\n    tag_164:\n        /* \"#utility.yul\":4074:4077   */\n      dup3\n        /* \"#utility.yul\":4067:4104   */\n      mstore\n        /* \"#utility.yul\":4002:4110   */\n      pop\n      pop\n      jump\t// out\n        /* \"#utility.yul\":4116:4275   */\n    tag_84:\n        /* \"#utility.yul\":4190:4201   */\n      0x00\n        /* \"#utility.yul\":4224:4230   */\n      dup3\n        /* \"#utility.yul\":4219:4222   */\n      dup3\n        /* \"#utility.yul\":4212:4231   */\n      mstore\n        /* \"#utility.yul\":4264:4268   */\n      0x20\n        /* \"#utility.yul\":4259:4262   */\n      dup3\n        /* \"#utility.yul\":4255:4269   */\n      add\n        /* \"#utility.yul\":4240:4269   */\n      swap1\n      pop\n        /* \"#utility.yul\":4116:4275   */\n      swap3\n      swap2\n      pop\n      pop\n      jump\t// out\n        /* \"#utility.yul\":4281:4638   */\n    tag_85:\n        /* \"#utility.yul\":4359:4362   */\n      0x00\n        /* \"#utility.yul\":4387:4426   */\n      tag_167\n        /* \"#utility.yul\":4420:4425   */\n      dup3\n        /* \"#utility.yul\":4387:4426   */\n      tag_74\n      jump\t// in\n    tag_167:\n        /* \"#utility.yul\":4442:4503   */\n      tag_168\n        /* \"#utility.yul\":4496:4502   */\n      dup2\n        /* \"#utility.yul\":4491:4494   */\n      dup6\n        /* \"#utility.yul\":4442:4503   */\n      tag_84\n      jump\t// in\n    tag_168:\n        /* \"#utility.yul\":4435:4503   */\n      swap4\n      pop\n        /* \"#utility.yul\":4512:4577   */\n      tag_169\n        /* \"#utility.yul\":4570:4576   */\n      dup2\n        /* \"#utility.yul\":4565:4568   */\n      dup6\n        /* \"#utility.yul\":4558:4562   */\n      0x20\n        /* \"#utility.yul\":4551:4556   */\n      dup7\n        /* \"#utility.yul\":4547:4563   */\n      add\n        /* \"#utility.yul\":4512:4577   */\n      tag_76\n      jump\t// in\n    tag_169:\n        /* \"#utility.yul\":4602:4631   */\n      tag_170\n        /* \"#utility.yul\":4624:4630   */\n      dup2\n        /* \"#utility.yul\":4602:4631   */\n      tag_77\n      jump\t// in\n    tag_170:\n        /* \"#utility.yul\":4597:4600   */\n      dup5\n        /* \"#utility.yul\":4593:4632   */\n      add\n        /* \"#utility.yul\":4586:4632   */\n      swap2\n      pop\n        /* \"#utility.yul\":4363:4638   */\n      pop\n        /* \"#utility.yul\":4281:4638   */\n      swap3\n      swap2\n      pop\n      pop\n      jump\t// out\n        /* \"#utility.yul\":4644:4752   */\n    tag_86:\n        /* \"#utility.yul\":4721:4745   */\n      tag_172\n        /* \"#utility.yul\":4739:4744   */\n      dup2\n        /* \"#utility.yul\":4721:4745   */\n      tag_70\n      jump\t// in\n    tag_172:\n        /* \"#utility.yul\":4716:4719   */\n      dup3\n        /* \"#utility.yul\":4709:4746   */\n      mstore\n        /* \"#utility.yul\":4644:4752   */\n      pop\n      pop\n      jump\t// out\n        /* \"#utility.yul\":4810:5757   */\n    tag_87:\n        /* \"#utility.yul\":4911:4914   */\n      0x00\n        /* \"#utility.yul\":4947:4951   */\n      0x80\n        /* \"#utility.yul\":4942:4945   */\n      dup4\n        /* \"#utility.yul\":4938:4952   */\n      add\n        /* \"#utility.yul\":5036:5040   */\n      0x00\n        /* \"#utility.yul\":5029:5034   */\n      dup4\n        /* \"#utility.yul\":5025:5041   */\n      add\n        /* \"#utility.yul\":5019:5042   */\n      mload\n        /* \"#utility.yul\":5055:5118   */\n      tag_174\n        /* \"#utility.yul\":5112:5116   */\n      0x00\n        /* \"#utility.yul\":5107:5110   */\n      dup7\n        /* \"#utility.yul\":5103:5117   */\n      add\n        /* \"#utility.yul\":5089:5101   */\n      dup3\n        /* \"#utility.yul\":5055:5118   */\n      tag_83\n      jump\t// in\n    tag_174:\n        /* \"#utility.yul\":4962:5128   */\n      pop\n        /* \"#utility.yul\":5213:5217   */\n      0x20\n        /* \"#utility.yul\":5206:5211   */\n      dup4\n        /* \"#utility.yul\":5202:5218   */\n      add\n        /* \"#utility.yul\":5196:5219   */\n      mload\n        /* \"#utility.yul\":5266:5269   */\n      dup5\n        /* \"#utility.yul\":5260:5264   */\n      dup3\n        /* \"#utility.yul\":5256:5270   */\n      sub\n        /* \"#utility.yul\":5249:5253   */\n      0x20\n        /* \"#utility.yul\":5244:5247   */\n      dup7\n        /* \"#utility.yul\":5240:5254   */\n      add\n        /* \"#utility.yul\":5233:5271   */\n      mstore\n        /* \"#utility.yul\":5292:5365   */\n      tag_175\n        /* \"#utility.yul\":5360:5364   */\n      dup3\n        /* \"#utility.yul\":5346:5358   */\n      dup3\n        /* \"#utility.yul\":5292:5365   */\n      tag_85\n      jump\t// in\n    tag_175:\n        /* \"#utility.yul\":5284:5365   */\n      swap2\n      pop\n        /* \"#utility.yul\":5138:5376   */\n      pop\n        /* \"#utility.yul\":5463:5467   */\n      0x40\n        /* \"#utility.yul\":5456:5461   */\n      dup4\n        /* \"#utility.yul\":5452:5468   */\n      add\n        /* \"#utility.yul\":5446:5469   */\n      mload\n        /* \"#utility.yul\":5482:5545   */\n      tag_176\n        /* \"#utility.yul\":5539:5543   */\n      0x40\n        /* \"#utility.yul\":5534:5537   */\n      dup7\n        /* \"#utility.yul\":5530:5544   */\n      add\n        /* \"#utility.yul\":5516:5528   */\n      dup3\n        /* \"#utility.yul\":5482:5545   */\n      tag_86\n      jump\t// in\n    tag_176:\n        /* \"#utility.yul\":5386:5555   */\n      pop\n        /* \"#utility.yul\":5638:5642   */\n      0x60\n        /* \"#utility.yul\":5631:5636   */\n      dup4\n        /* \"#utility.yul\":5627:5643   */\n      add\n        /* \"#utility.yul\":5621:5644   */\n      mload\n        /* \"#utility.yul\":5657:5720   */\n      tag_177\n        /* \"#utility.yul\":5714:5718   */\n      0x60\n        /* \"#utility.yul\":5709:5712   */\n      dup7\n        /* \"#utility.yul\":5705:5719   */\n      add\n        /* \"#utility.yul\":5691:5703   */\n      dup3\n        /* \"#utility.yul\":5657:5720   */\n      tag_86\n      jump\t// in\n    tag_177:\n        /* \"#utility.yul\":5565:5730   */\n      pop\n        /* \"#utility.yul\":5747:5751   */\n      dup1\n        /* \"#utility.yul\":5740:5751   */\n      swap2\n      pop\n        /* \"#utility.yul\":4916:5757   */\n      pop\n        /* \"#utility.yul\":4810:5757   */\n      swap3\n      swap2\n      pop\n      pop\n      jump\t// out\n        /* \"#utility.yul\":5763:6003   */\n    tag_88:\n        /* \"#utility.yul\":5874:5884   */\n      0x00\n        /* \"#utility.yul\":5909:5997   */\n      tag_179\n        /* \"#utility.yul\":5993:5996   */\n      dup4\n        /* \"#utility.yul\":5985:5991   */\n      dup4\n        /* \"#utility.yul\":5909:5997   */\n      tag_87\n      jump\t// in\n    tag_179:\n        /* \"#utility.yul\":5895:5997   */\n      swap1\n      pop\n        /* \"#utility.yul\":5763:6003   */\n      swap3\n      swap2\n      pop\n      pop\n      jump\t// out\n        /* \"#utility.yul\":6009:6143   */\n    tag_89:\n        /* \"#utility.yul\":6100:6104   */\n      0x00\n        /* \"#utility.yul\":6132:6136   */\n      0x20\n        /* \"#utility.yul\":6127:6130   */\n      dup3\n        /* \"#utility.yul\":6123:6137   */\n      add\n        /* \"#utility.yul\":6115:6137   */\n      swap1\n      pop\n        /* \"#utility.yul\":6009:6143   */\n      swap2\n      swap1\n      pop\n      jump\t// out\n        /* \"#utility.yul\":6205:7284   */\n    tag_90:\n        /* \"#utility.yul\":6366:6369   */\n      0x00\n        /* \"#utility.yul\":6395:6470   */\n      tag_182\n        /* \"#utility.yul\":6464:6469   */\n      dup3\n        /* \"#utility.yul\":6395:6470   */\n      tag_80\n      jump\t// in\n    tag_182:\n        /* \"#utility.yul\":6486:6593   */\n      tag_183\n        /* \"#utility.yul\":6586:6592   */\n      dup2\n        /* \"#utility.yul\":6581:6584   */\n      dup6\n        /* \"#utility.yul\":6486:6593   */\n      tag_81\n      jump\t// in\n    tag_183:\n        /* \"#utility.yul\":6479:6593   */\n      swap4\n      pop\n        /* \"#utility.yul\":6619:6622   */\n      dup4\n        /* \"#utility.yul\":6664:6668   */\n      0x20\n        /* \"#utility.yul\":6656:6662   */\n      dup3\n        /* \"#utility.yul\":6652:6669   */\n      mul\n        /* \"#utility.yul\":6647:6650   */\n      dup6\n        /* \"#utility.yul\":6643:6670   */\n      add\n        /* \"#utility.yul\":6694:6771   */\n      tag_184\n        /* \"#utility.yul\":6765:6770   */\n      dup6\n        /* \"#utility.yul\":6694:6771   */\n      tag_82\n      jump\t// in\n    tag_184:\n        /* \"#utility.yul\":6794:6801   */\n      dup1\n        /* \"#utility.yul\":6825:6826   */\n      0x00\n        /* \"#utility.yul\":6810:7239   */\n    tag_185:\n        /* \"#utility.yul\":6835:6841   */\n      dup6\n        /* \"#utility.yul\":6832:6833   */\n      dup2\n        /* \"#utility.yul\":6829:6842   */\n      lt\n        /* \"#utility.yul\":6810:7239   */\n      iszero\n      tag_187\n      jumpi\n        /* \"#utility.yul\":6906:6915   */\n      dup5\n        /* \"#utility.yul\":6900:6904   */\n      dup5\n        /* \"#utility.yul\":6896:6916   */\n      sub\n        /* \"#utility.yul\":6891:6894   */\n      dup10\n        /* \"#utility.yul\":6884:6917   */\n      mstore\n        /* \"#utility.yul\":6957:6963   */\n      dup2\n        /* \"#utility.yul\":6951:6964   */\n      mload\n        /* \"#utility.yul\":6985:7091   */\n      tag_188\n        /* \"#utility.yul\":7086:7090   */\n      dup6\n        /* \"#utility.yul\":7071:7084   */\n      dup3\n        /* \"#utility.yul\":6985:7091   */\n      tag_88\n      jump\t// in\n    tag_188:\n        /* \"#utility.yul\":6977:7091   */\n      swap5\n      pop\n        /* \"#utility.yul\":7114:7195   */\n      tag_189\n        /* \"#utility.yul\":7188:7194   */\n      dup4\n        /* \"#utility.yul\":7114:7195   */\n      tag_89\n      jump\t// in\n    tag_189:\n        /* \"#utility.yul\":7104:7195   */\n      swap3\n      pop\n        /* \"#utility.yul\":7224:7228   */\n      0x20\n        /* \"#utility.yul\":7219:7222   */\n      dup11\n        /* \"#utility.yul\":7215:7229   */\n      add\n        /* \"#utility.yul\":7208:7229   */\n      swap10\n      pop\n        /* \"#utility.yul\":6870:7239   */\n      pop\n        /* \"#utility.yul\":6857:6858   */\n      0x01\n        /* \"#utility.yul\":6854:6855   */\n      dup2\n        /* \"#utility.yul\":6850:6859   */\n      add\n        /* \"#utility.yul\":6845:6859   */\n      swap1\n      pop\n        /* \"#utility.yul\":6810:7239   */\n      jump(tag_185)\n    tag_187:\n        /* \"#utility.yul\":6814:6828   */\n      pop\n        /* \"#utility.yul\":7255:7259   */\n      dup3\n        /* \"#utility.yul\":7248:7259   */\n      swap8\n      pop\n        /* \"#utility.yul\":7275:7278   */\n      dup8\n        /* \"#utility.yul\":7268:7278   */\n      swap6\n      pop\n        /* \"#utility.yul\":6371:7284   */\n      pop\n      pop\n      pop\n      pop\n      pop\n        /* \"#utility.yul\":6205:7284   */\n      swap3\n      swap2\n      pop\n      pop\n      jump\t// out\n        /* \"#utility.yul\":7290:7747   */\n    tag_16:\n        /* \"#utility.yul\":7475:7479   */\n      0x00\n        /* \"#utility.yul\":7513:7515   */\n      0x20\n        /* \"#utility.yul\":7502:7511   */\n      dup3\n        /* \"#utility.yul\":7498:7516   */\n      add\n        /* \"#utility.yul\":7490:7516   */\n      swap1\n      pop\n        /* \"#utility.yul\":7562:7571   */\n      dup2\n        /* \"#utility.yul\":7556:7560   */\n      dup2\n        /* \"#utility.yul\":7552:7572   */\n      sub\n        /* \"#utility.yul\":7548:7549   */\n      0x00\n        /* \"#utility.yul\":7537:7546   */\n      dup4\n        /* \"#utility.yul\":7533:7550   */\n      add\n        /* \"#utility.yul\":7526:7573   */\n      mstore\n        /* \"#utility.yul\":7590:7740   */\n      tag_191\n        /* \"#utility.yul\":7735:7739   */\n      dup2\n        /* \"#utility.yul\":7726:7732   */\n      dup5\n        /* \"#utility.yul\":7590:7740   */\n      tag_90\n      jump\t// in\n    tag_191:\n        /* \"#utility.yul\":7582:7740   */\n      swap1\n      pop\n        /* \"#utility.yul\":7290:7747   */\n      swap3\n      swap2\n      pop\n      pop\n      jump\t// out\n        /* \"#utility.yul\":7753:7870   */\n    tag_91:\n        /* \"#utility.yul\":7862:7863   */\n      0x00\n        /* \"#utility.yul\":7859:7860   */\n      dup1\n        /* \"#utility.yul\":7852:7864   */\n      revert\n        /* \"#utility.yul\":7876:7993   */\n    tag_92:\n        /* \"#utility.yul\":7985:7986   */\n      0x00\n        /* \"#utility.yul\":7982:7983   */\n      dup1\n        /* \"#utility.yul\":7975:7987   */\n      revert\n        /* \"#utility.yul\":7999:8179   */\n    tag_93:\n        /* \"#utility.yul\":8047:8124   */\n      0x4e487b7100000000000000000000000000000000000000000000000000000000\n        /* \"#utility.yul\":8044:8045   */\n      0x00\n        /* \"#utility.yul\":8037:8125   */\n      mstore\n        /* \"#utility.yul\":8144:8148   */\n      0x41\n        /* \"#utility.yul\":8141:8142   */\n      0x04\n        /* \"#utility.yul\":8134:8149   */\n      mstore\n        /* \"#utility.yul\":8168:8172   */\n      0x24\n        /* \"#utility.yul\":8165:8166   */\n      0x00\n        /* \"#utility.yul\":8158:8173   */\n      revert\n        /* \"#utility.yul\":8185:8466   */\n    tag_94:\n        /* \"#utility.yul\":8268:8295   */\n      tag_196\n        /* \"#utility.yul\":8290:8294   */\n      dup3\n        /* \"#utility.yul\":8268:8295   */\n      tag_77\n      jump\t// in\n    tag_196:\n        /* \"#utility.yul\":8260:8266   */\n      dup2\n        /* \"#utility.yul\":8256:8296   */\n      add\n        /* \"#utility.yul\":8398:8404   */\n      dup2\n        /* \"#utility.yul\":8386:8396   */\n      dup2\n        /* \"#utility.yul\":8383:8405   */\n      lt\n        /* \"#utility.yul\":8362:8380   */\n      0xffffffffffffffff\n        /* \"#utility.yul\":8350:8360   */\n      dup3\n        /* \"#utility.yul\":8347:8381   */\n      gt\n        /* \"#utility.yul\":8344:8406   */\n      or\n        /* \"#utility.yul\":8341:8429   */\n      iszero\n      tag_197\n      jumpi\n        /* \"#utility.yul\":8409:8427   */\n      tag_198\n      tag_93\n      jump\t// in\n    tag_198:\n        /* \"#utility.yul\":8341:8429   */\n    tag_197:\n        /* \"#utility.yul\":8449:8459   */\n      dup1\n        /* \"#utility.yul\":8445:8447   */\n      0x40\n        /* \"#utility.yul\":8438:8460   */\n      mstore\n        /* \"#utility.yul\":8228:8466   */\n      pop\n        /* \"#utility.yul\":8185:8466   */\n      pop\n      pop\n      jump\t// out\n        /* \"#utility.yul\":8472:8601   */\n    tag_95:\n        /* \"#utility.yul\":8506:8512   */\n      0x00\n        /* \"#utility.yul\":8533:8553   */\n      tag_200\n      tag_63\n      jump\t// in\n    tag_200:\n        /* \"#utility.yul\":8523:8553   */\n      swap1\n      pop\n        /* \"#utility.yul\":8562:8595   */\n      tag_201\n        /* \"#utility.yul\":8590:8594   */\n      dup3\n        /* \"#utility.yul\":8582:8588   */\n      dup3\n        /* \"#utility.yul\":8562:8595   */\n      tag_94\n      jump\t// in\n    tag_201:\n        /* \"#utility.yul\":8472:8601   */\n      swap2\n      swap1\n      pop\n      jump\t// out\n        /* \"#utility.yul\":8607:8915   */\n    tag_96:\n        /* \"#utility.yul\":8669:8673   */\n      0x00\n        /* \"#utility.yul\":8759:8777   */\n      0xffffffffffffffff\n        /* \"#utility.yul\":8751:8757   */\n      dup3\n        /* \"#utility.yul\":8748:8778   */\n      gt\n        /* \"#utility.yul\":8745:8801   */\n      iszero\n      tag_203\n      jumpi\n        /* \"#utility.yul\":8781:8799   */\n      tag_204\n      tag_93\n      jump\t// in\n    tag_204:\n        /* \"#utility.yul\":8745:8801   */\n    tag_203:\n        /* \"#utility.yul\":8819:8848   */\n      tag_205\n        /* \"#utility.yul\":8841:8847   */\n      dup3\n        /* \"#utility.yul\":8819:8848   */\n      tag_77\n      jump\t// in\n    tag_205:\n        /* \"#utility.yul\":8811:8848   */\n      swap1\n      pop\n        /* \"#utility.yul\":8903:8907   */\n      0x20\n        /* \"#utility.yul\":8897:8901   */\n      dup2\n        /* \"#utility.yul\":8893:8908   */\n      add\n        /* \"#utility.yul\":8885:8908   */\n      swap1\n      pop\n        /* \"#utility.yul\":8607:8915   */\n      swap2\n      swap1\n      pop\n      jump\t// out\n        /* \"#utility.yul\":8921:9069   */\n    tag_97:\n        /* \"#utility.yul\":9019:9025   */\n      dup3\n        /* \"#utility.yul\":9014:9017   */\n      dup2\n        /* \"#utility.yul\":9009:9012   */\n      dup4\n        /* \"#utility.yul\":8996:9026   */\n      calldatacopy\n        /* \"#utility.yul\":9060:9061   */\n      0x00\n        /* \"#utility.yul\":9051:9057   */\n      dup4\n        /* \"#utility.yul\":9046:9049   */\n      dup4\n        /* \"#utility.yul\":9042:9058   */\n      add\n        /* \"#utility.yul\":9035:9062   */\n      mstore\n        /* \"#utility.yul\":8921:9069   */\n      pop\n      pop\n      pop\n      jump\t// out\n        /* \"#utility.yul\":9075:9500   */\n    tag_98:\n        /* \"#utility.yul\":9153:9158   */\n      0x00\n        /* \"#utility.yul\":9178:9244   */\n      tag_208\n        /* \"#utility.yul\":9194:9243   */\n      tag_209\n        /* \"#utility.yul\":9236:9242   */\n      dup5\n        /* \"#utility.yul\":9194:9243   */\n      tag_96\n      jump\t// in\n    tag_209:\n        /* \"#utility.yul\":9178:9244   */\n      tag_95\n      jump\t// in\n    tag_208:\n        /* \"#utility.yul\":9169:9244   */\n      swap1\n      pop\n        /* \"#utility.yul\":9267:9273   */\n      dup3\n        /* \"#utility.yul\":9260:9265   */\n      dup2\n        /* \"#utility.yul\":9253:9274   */\n      mstore\n        /* \"#utility.yul\":9305:9309   */\n      0x20\n        /* \"#utility.yul\":9298:9303   */\n      dup2\n        /* \"#utility.yul\":9294:9310   */\n      add\n        /* \"#utility.yul\":9343:9346   */\n      dup5\n        /* \"#utility.yul\":9334:9340   */\n      dup5\n        /* \"#utility.yul\":9329:9332   */\n      dup5\n        /* \"#utility.yul\":9325:9341   */\n      add\n        /* \"#utility.yul\":9322:9347   */\n      gt\n        /* \"#utility.yul\":9319:9431   */\n      iszero\n      tag_210\n      jumpi\n        /* \"#utility.yul\":9350:9429   */\n      tag_211\n      tag_92\n      jump\t// in\n    tag_211:\n        /* \"#utility.yul\":9319:9431   */\n    tag_210:\n        /* \"#utility.yul\":9440:9494   */\n      tag_212\n        /* \"#utility.yul\":9487:9493   */\n      dup5\n        /* \"#utility.yul\":9482:9485   */\n      dup3\n        /* \"#utility.yul\":9477:9480   */\n      dup6\n        /* \"#utility.yul\":9440:9494   */\n      tag_97\n      jump\t// in\n    tag_212:\n        /* \"#utility.yul\":9159:9500   */\n      pop\n        /* \"#utility.yul\":9075:9500   */\n      swap4\n      swap3\n      pop\n      pop\n      pop\n      jump\t// out\n        /* \"#utility.yul\":9520:9860   */\n    tag_99:\n        /* \"#utility.yul\":9576:9581   */\n      0x00\n        /* \"#utility.yul\":9625:9628   */\n      dup3\n        /* \"#utility.yul\":9618:9622   */\n      0x1f\n        /* \"#utility.yul\":9610:9616   */\n      dup4\n        /* \"#utility.yul\":9606:9623   */\n      add\n        /* \"#utility.yul\":9602:9629   */\n      slt\n        /* \"#utility.yul\":9592:9714   */\n      tag_214\n      jumpi\n        /* \"#utility.yul\":9633:9712   */\n      tag_215\n      tag_91\n      jump\t// in\n    tag_215:\n        /* \"#utility.yul\":9592:9714   */\n    tag_214:\n        /* \"#utility.yul\":9750:9756   */\n      dup2\n        /* \"#utility.yul\":9737:9757   */\n      calldataload\n        /* \"#utility.yul\":9775:9854   */\n      tag_216\n        /* \"#utility.yul\":9850:9853   */\n      dup5\n        /* \"#utility.yul\":9842:9848   */\n      dup3\n        /* \"#utility.yul\":9835:9839   */\n      0x20\n        /* \"#utility.yul\":9827:9833   */\n      dup7\n        /* \"#utility.yul\":9823:9840   */\n      add\n        /* \"#utility.yul\":9775:9854   */\n      tag_98\n      jump\t// in\n    tag_216:\n        /* \"#utility.yul\":9766:9854   */\n      swap2\n      pop\n        /* \"#utility.yul\":9582:9860   */\n      pop\n        /* \"#utility.yul\":9520:9860   */\n      swap3\n      swap2\n      pop\n      pop\n      jump\t// out\n        /* \"#utility.yul\":9866:10375   */\n    tag_19:\n        /* \"#utility.yul\":9935:9941   */\n      0x00\n        /* \"#utility.yul\":9984:9986   */\n      0x20\n        /* \"#utility.yul\":9972:9981   */\n      dup3\n        /* \"#utility.yul\":9963:9970   */\n      dup5\n        /* \"#utility.yul\":9959:9982   */\n      sub\n        /* \"#utility.yul\":9955:9987   */\n      slt\n        /* \"#utility.yul\":9952:10071   */\n      iszero\n      tag_218\n      jumpi\n        /* \"#utility.yul\":9990:10069   */\n      tag_219\n      tag_64\n      jump\t// in\n    tag_219:\n        /* \"#utility.yul\":9952:10071   */\n    tag_218:\n        /* \"#utility.yul\":10138:10139   */\n      0x00\n        /* \"#utility.yul\":10127:10136   */\n      dup3\n        /* \"#utility.yul\":10123:10140   */\n      add\n        /* \"#utility.yul\":10110:10141   */\n      calldataload\n        /* \"#utility.yul\":10168:10186   */\n      0xffffffffffffffff\n        /* \"#utility.yul\":10160:10166   */\n      dup2\n        /* \"#utility.yul\":10157:10187   */\n      gt\n        /* \"#utility.yul\":10154:10271   */\n      iszero\n      tag_220\n      jumpi\n        /* \"#utility.yul\":10190:10269   */\n      tag_221\n      tag_65\n      jump\t// in\n    tag_221:\n        /* \"#utility.yul\":10154:10271   */\n    tag_220:\n        /* \"#utility.yul\":10295:10358   */\n      tag_222\n        /* \"#utility.yul\":10350:10357   */\n      dup5\n        /* \"#utility.yul\":10341:10347   */\n      dup3\n        /* \"#utility.yul\":10330:10339   */\n      dup6\n        /* \"#utility.yul\":10326:10348   */\n      add\n        /* \"#utility.yul\":10295:10358   */\n      tag_99\n      jump\t// in\n    tag_222:\n        /* \"#utility.yul\":10285:10358   */\n      swap2\n      pop\n        /* \"#utility.yul\":10081:10368   */\n      pop\n        /* \"#utility.yul\":9866:10375   */\n      swap3\n      swap2\n      pop\n      pop\n      jump\t// out\n        /* \"#utility.yul\":10381:10710   */\n    tag_23:\n        /* \"#utility.yul\":10440:10446   */\n      0x00\n        /* \"#utility.yul\":10489:10491   */\n      0x20\n        /* \"#utility.yul\":10477:10486   */\n      dup3\n        /* \"#utility.yul\":10468:10475   */\n      dup5\n        /* \"#utility.yul\":10464:10487   */\n      sub\n        /* \"#utility.yul\":10460:10492   */\n      slt\n        /* \"#utility.yul\":10457:10576   */\n      iszero\n      tag_224\n      jumpi\n        /* \"#utility.yul\":10495:10574   */\n      tag_225\n      tag_64\n      jump\t// in\n    tag_225:\n        /* \"#utility.yul\":10457:10576   */\n    tag_224:\n        /* \"#utility.yul\":10615:10616   */\n      0x00\n        /* \"#utility.yul\":10640:10693   */\n      tag_226\n        /* \"#utility.yul\":10685:10692   */\n      dup5\n        /* \"#utility.yul\":10676:10682   */\n      dup3\n        /* \"#utility.yul\":10665:10674   */\n      dup6\n        /* \"#utility.yul\":10661:10683   */\n      add\n        /* \"#utility.yul\":10640:10693   */\n      tag_72\n      jump\t// in\n    tag_226:\n        /* \"#utility.yul\":10630:10693   */\n      swap2\n      pop\n        /* \"#utility.yul\":10586:10703   */\n      pop\n        /* \"#utility.yul\":10381:10710   */\n      swap3\n      swap2\n      pop\n      pop\n      jump\t// out\n        /* \"#utility.yul\":10768:11725   */\n    tag_100:\n        /* \"#utility.yul\":10879:10882   */\n      0x00\n        /* \"#utility.yul\":10915:10919   */\n      0x80\n        /* \"#utility.yul\":10910:10913   */\n      dup4\n        /* \"#utility.yul\":10906:10920   */\n      add\n        /* \"#utility.yul\":11004:11008   */\n      0x00\n        /* \"#utility.yul\":10997:11002   */\n      dup4\n        /* \"#utility.yul\":10993:11009   */\n      add\n        /* \"#utility.yul\":10987:11010   */\n      mload\n        /* \"#utility.yul\":11023:11086   */\n      tag_228\n        /* \"#utility.yul\":11080:11084   */\n      0x00\n        /* \"#utility.yul\":11075:11078   */\n      dup7\n        /* \"#utility.yul\":11071:11085   */\n      add\n        /* \"#utility.yul\":11057:11069   */\n      dup3\n        /* \"#utility.yul\":11023:11086   */\n      tag_83\n      jump\t// in\n    tag_228:\n        /* \"#utility.yul\":10930:11096   */\n      pop\n        /* \"#utility.yul\":11181:11185   */\n      0x20\n        /* \"#utility.yul\":11174:11179   */\n      dup4\n        /* \"#utility.yul\":11170:11186   */\n      add\n        /* \"#utility.yul\":11164:11187   */\n      mload\n        /* \"#utility.yul\":11234:11237   */\n      dup5\n        /* \"#utility.yul\":11228:11232   */\n      dup3\n        /* \"#utility.yul\":11224:11238   */\n      sub\n        /* \"#utility.yul\":11217:11221   */\n      0x20\n        /* \"#utility.yul\":11212:11215   */\n      dup7\n        /* \"#utility.yul\":11208:11222   */\n      add\n        /* \"#utility.yul\":11201:11239   */\n      mstore\n        /* \"#utility.yul\":11260:11333   */\n      tag_229\n        /* \"#utility.yul\":11328:11332   */\n      dup3\n        /* \"#utility.yul\":11314:11326   */\n      dup3\n        /* \"#utility.yul\":11260:11333   */\n      tag_85\n      jump\t// in\n    tag_229:\n        /* \"#utility.yul\":11252:11333   */\n      swap2\n      pop\n        /* \"#utility.yul\":11106:11344   */\n      pop\n        /* \"#utility.yul\":11431:11435   */\n      0x40\n        /* \"#utility.yul\":11424:11429   */\n      dup4\n        /* \"#utility.yul\":11420:11436   */\n      add\n        /* \"#utility.yul\":11414:11437   */\n      mload\n        /* \"#utility.yul\":11450:11513   */\n      tag_230\n        /* \"#utility.yul\":11507:11511   */\n      0x40\n        /* \"#utility.yul\":11502:11505   */\n      dup7\n        /* \"#utility.yul\":11498:11512   */\n      add\n        /* \"#utility.yul\":11484:11496   */\n      dup3\n        /* \"#utility.yul\":11450:11513   */\n      tag_86\n      jump\t// in\n    tag_230:\n        /* \"#utility.yul\":11354:11523   */\n      pop\n        /* \"#utility.yul\":11606:11610   */\n      0x60\n        /* \"#utility.yul\":11599:11604   */\n      dup4\n        /* \"#utility.yul\":11595:11611   */\n      add\n        /* \"#utility.yul\":11589:11612   */\n      mload\n        /* \"#utility.yul\":11625:11688   */\n      tag_231\n        /* \"#utility.yul\":11682:11686   */\n      0x60\n        /* \"#utility.yul\":11677:11680   */\n      dup7\n        /* \"#utility.yul\":11673:11687   */\n      add\n        /* \"#utility.yul\":11659:11671   */\n      dup3\n        /* \"#utility.yul\":11625:11688   */\n      tag_86\n      jump\t// in\n    tag_231:\n        /* \"#utility.yul\":11533:11698   */\n      pop\n        /* \"#utility.yul\":11715:11719   */\n      dup1\n        /* \"#utility.yul\":11708:11719   */\n      swap2\n      pop\n        /* \"#utility.yul\":10884:11725   */\n      pop\n        /* \"#utility.yul\":10768:11725   */\n      swap3\n      swap2\n      pop\n      pop\n      jump\t// out\n        /* \"#utility.yul\":11731:12088   */\n    tag_26:\n        /* \"#utility.yul\":11866:11870   */\n      0x00\n        /* \"#utility.yul\":11904:11906   */\n      0x20\n        /* \"#utility.yul\":11893:11902   */\n      dup3\n        /* \"#utility.yul\":11889:11907   */\n      add\n        /* \"#utility.yul\":11881:11907   */\n      swap1\n      pop\n        /* \"#utility.yul\":11953:11962   */\n      dup2\n        /* \"#utility.yul\":11947:11951   */\n      dup2\n        /* \"#utility.yul\":11943:11963   */\n      sub\n        /* \"#utility.yul\":11939:11940   */\n      0x00\n        /* \"#utility.yul\":11928:11937   */\n      dup4\n        /* \"#utility.yul\":11924:11941   */\n      add\n        /* \"#utility.yul\":11917:11964   */\n      mstore\n        /* \"#utility.yul\":11981:12081   */\n      tag_233\n        /* \"#utility.yul\":12076:12080   */\n      dup2\n        /* \"#utility.yul\":12067:12073   */\n      dup5\n        /* \"#utility.yul\":11981:12081   */\n      tag_100\n      jump\t// in\n    tag_233:\n        /* \"#utility.yul\":11973:12081   */\n      swap1\n      pop\n        /* \"#utility.yul\":11731:12088   */\n      swap3\n      swap2\n      pop\n      pop\n      jump\t// out\n        /* \"#utility.yul\":12094:12274   */\n    tag_101:\n        /* \"#utility.yul\":12142:12219   */\n      0x4e487b7100000000000000000000000000000000000000000000000000000000\n        /* \"#utility.yul\":12139:12140   */\n      0x00\n        /* \"#utility.yul\":12132:12220   */\n      mstore\n        /* \"#utility.yul\":12239:12243   */\n      0x22\n        /* \"#utility.yul\":12236:12237   */\n      0x04\n        /* \"#utility.yul\":12229:12244   */\n      mstore\n        /* \"#utility.yul\":12263:12267   */\n      0x24\n        /* \"#utility.yul\":12260:12261   */\n      0x00\n        /* \"#utility.yul\":12253:12268   */\n      revert\n        /* \"#utility.yul\":12280:12600   */\n    tag_30:\n        /* \"#utility.yul\":12324:12330   */\n      0x00\n        /* \"#utility.yul\":12361:12362   */\n      0x02\n        /* \"#utility.yul\":12355:12359   */\n      dup3\n        /* \"#utility.yul\":12351:12363   */\n      div\n        /* \"#utility.yul\":12341:12363   */\n      swap1\n      pop\n        /* \"#utility.yul\":12408:12409   */\n      0x01\n        /* \"#utility.yul\":12402:12406   */\n      dup3\n        /* \"#utility.yul\":12398:12410   */\n      and\n        /* \"#utility.yul\":12429:12447   */\n      dup1\n        /* \"#utility.yul\":12419:12500   */\n      tag_236\n      jumpi\n        /* \"#utility.yul\":12485:12489   */\n      0x7f\n        /* \"#utility.yul\":12477:12483   */\n      dup3\n        /* \"#utility.yul\":12473:12490   */\n      and\n        /* \"#utility.yul\":12463:12490   */\n      swap2\n      pop\n        /* \"#utility.yul\":12419:12500   */\n    tag_236:\n        /* \"#utility.yul\":12547:12549   */\n      0x20\n        /* \"#utility.yul\":12539:12545   */\n      dup3\n        /* \"#utility.yul\":12536:12550   */\n      lt\n        /* \"#utility.yul\":12516:12534   */\n      dup2\n        /* \"#utility.yul\":12513:12551   */\n      sub\n        /* \"#utility.yul\":12510:12594   */\n      tag_237\n      jumpi\n        /* \"#utility.yul\":12566:12584   */\n      tag_238\n      tag_101\n      jump\t// in\n    tag_238:\n        /* \"#utility.yul\":12510:12594   */\n    tag_237:\n        /* \"#utility.yul\":12331:12600   */\n      pop\n        /* \"#utility.yul\":12280:12600   */\n      swap2\n      swap1\n      pop\n      jump\t// out\n        /* \"#utility.yul\":12606:12779   */\n    tag_102:\n        /* \"#utility.yul\":12746:12771   */\n      0x547765657420746f6f206c6f6e6720746f20706f73742e000000000000000000\n        /* \"#utility.yul\":12742:12743   */\n      0x00\n        /* \"#utility.yul\":12734:12740   */\n      dup3\n        /* \"#utility.yul\":12730:12744   */\n      add\n        /* \"#utility.yul\":12723:12772   */\n      mstore\n        /* \"#utility.yul\":12606:12779   */\n      pop\n      jump\t// out\n        /* \"#utility.yul\":12785:13151   */\n    tag_103:\n        /* \"#utility.yul\":12927:12930   */\n      0x00\n        /* \"#utility.yul\":12948:13015   */\n      tag_241\n        /* \"#utility.yul\":13012:13014   */\n      0x17\n        /* \"#utility.yul\":13007:13010   */\n      dup4\n        /* \"#utility.yul\":12948:13015   */\n      tag_75\n      jump\t// in\n    tag_241:\n        /* \"#utility.yul\":12941:13015   */\n      swap2\n      pop\n        /* \"#utility.yul\":13024:13117   */\n      tag_242\n        /* \"#utility.yul\":13113:13116   */\n      dup3\n        /* \"#utility.yul\":13024:13117   */\n      tag_102\n      jump\t// in\n    tag_242:\n        /* \"#utility.yul\":13142:13144   */\n      0x20\n        /* \"#utility.yul\":13137:13140   */\n      dup3\n        /* \"#utility.yul\":13133:13145   */\n      add\n        /* \"#utility.yul\":13126:13145   */\n      swap1\n      pop\n        /* \"#utility.yul\":12785:13151   */\n      swap2\n      swap1\n      pop\n      jump\t// out\n        /* \"#utility.yul\":13157:13576   */\n    tag_47:\n        /* \"#utility.yul\":13323:13327   */\n      0x00\n        /* \"#utility.yul\":13361:13363   */\n      0x20\n        /* \"#utility.yul\":13350:13359   */\n      dup3\n        /* \"#utility.yul\":13346:13364   */\n      add\n        /* \"#utility.yul\":13338:13364   */\n      swap1\n      pop\n        /* \"#utility.yul\":13410:13419   */\n      dup2\n        /* \"#utility.yul\":13404:13408   */\n      dup2\n        /* \"#utility.yul\":13400:13420   */\n      sub\n        /* \"#utility.yul\":13396:13397   */\n      0x00\n        /* \"#utility.yul\":13385:13394   */\n      dup4\n        /* \"#utility.yul\":13381:13398   */\n      add\n        /* \"#utility.yul\":13374:13421   */\n      mstore\n        /* \"#utility.yul\":13438:13569   */\n      tag_244\n        /* \"#utility.yul\":13564:13568   */\n      dup2\n        /* \"#utility.yul\":13438:13569   */\n      tag_103\n      jump\t// in\n    tag_244:\n        /* \"#utility.yul\":13430:13569   */\n      swap1\n      pop\n        /* \"#utility.yul\":13157:13576   */\n      swap2\n      swap1\n      pop\n      jump\t// out\n        /* \"#utility.yul\":13582:13723   */\n    tag_104:\n        /* \"#utility.yul\":13631:13635   */\n      0x00\n        /* \"#utility.yul\":13654:13657   */\n      dup2\n        /* \"#utility.yul\":13646:13657   */\n      swap1\n      pop\n        /* \"#utility.yul\":13677:13680   */\n      dup2\n        /* \"#utility.yul\":13674:13675   */\n      0x00\n        /* \"#utility.yul\":13667:13681   */\n      mstore\n        /* \"#utility.yul\":13711:13715   */\n      0x20\n        /* \"#utility.yul\":13708:13709   */\n      0x00\n        /* \"#utility.yul\":13698:13716   */\n      keccak256\n        /* \"#utility.yul\":13690:13716   */\n      swap1\n      pop\n        /* \"#utility.yul\":13582:13723   */\n      swap2\n      swap1\n      pop\n      jump\t// out\n        /* \"#utility.yul\":13729:13822   */\n    tag_105:\n        /* \"#utility.yul\":13766:13772   */\n      0x00\n        /* \"#utility.yul\":13813:13815   */\n      0x20\n        /* \"#utility.yul\":13808:13810   */\n      0x1f\n        /* \"#utility.yul\":13801:13806   */\n      dup4\n        /* \"#utility.yul\":13797:13811   */\n      add\n        /* \"#utility.yul\":13793:13816   */\n      div\n        /* \"#utility.yul\":13783:13816   */\n      swap1\n      pop\n        /* \"#utility.yul\":13729:13822   */\n      swap2\n      swap1\n      pop\n      jump\t// out\n        /* \"#utility.yul\":13828:13935   */\n    tag_106:\n        /* \"#utility.yul\":13872:13880   */\n      0x00\n        /* \"#utility.yul\":13922:13927   */\n      dup3\n        /* \"#utility.yul\":13916:13920   */\n      dup3\n        /* \"#utility.yul\":13912:13928   */\n      shl\n        /* \"#utility.yul\":13891:13928   */\n      swap1\n      pop\n        /* \"#utility.yul\":13828:13935   */\n      swap3\n      swap2\n      pop\n      pop\n      jump\t// out\n        /* \"#utility.yul\":13941:14334   */\n    tag_107:\n        /* \"#utility.yul\":14010:14016   */\n      0x00\n        /* \"#utility.yul\":14060:14061   */\n      0x08\n        /* \"#utility.yul\":14048:14058   */\n      dup4\n        /* \"#utility.yul\":14044:14062   */\n      mul\n        /* \"#utility.yul\":14083:14180   */\n      tag_249\n        /* \"#utility.yul\":14113:14179   */\n      0xffffffffffffffffffffffffffffffffffffffffffffffffffffffffffffffff\n        /* \"#utility.yul\":14102:14111   */\n      dup3\n        /* \"#utility.yul\":14083:14180   */\n      tag_106\n      jump\t// in\n    tag_249:\n        /* \"#utility.yul\":14201:14240   */\n      tag_250\n        /* \"#utility.yul\":14231:14239   */\n      dup7\n        /* \"#utility.yul\":14220:14229   */\n      dup4\n        /* \"#utility.yul\":14201:14240   */\n      tag_106\n      jump\t// in\n    tag_250:\n        /* \"#utility.yul\":14189:14240   */\n      swap6\n      pop\n        /* \"#utility.yul\":14273:14277   */\n      dup1\n        /* \"#utility.yul\":14269:14278   */\n      not\n        /* \"#utility.yul\":14262:14267   */\n      dup5\n        /* \"#utility.yul\":14258:14279   */\n      and\n        /* \"#utility.yul\":14249:14279   */\n      swap4\n      pop\n        /* \"#utility.yul\":14322:14326   */\n      dup1\n        /* \"#utility.yul\":14312:14320   */\n      dup7\n        /* \"#utility.yul\":14308:14327   */\n      and\n        /* \"#utility.yul\":14301:14306   */\n      dup5\n        /* \"#utility.yul\":14298:14328   */\n      or\n        /* \"#utility.yul\":14288:14328   */\n      swap3\n      pop\n        /* \"#utility.yul\":14017:14334   */\n      pop\n      pop\n        /* \"#utility.yul\":13941:14334   */\n      swap4\n      swap3\n      pop\n      pop\n      pop\n      jump\t// out\n        /* \"#utility.yul\":14340:14400   */\n    tag_108:\n        /* \"#utility.yul\":14368:14371   */\n      0x00\n        /* \"#utility.yul\":14389:14394   */\n      dup2\n        /* \"#utility.yul\":14382:14394   */\n      swap1\n      pop\n        /* \"#utility.yul\":14340:14400   */\n      swap2\n      swap1\n      pop\n      jump\t// out\n        /* \"#utility.yul\":14406:14548   */\n    tag_109:\n        /* \"#utility.yul\":14456:14465   */\n      0x00\n        /* \"#utility.yul\":14489:14542   */\n      tag_253\n        /* \"#utility.yul\":14507:14541   */\n      tag_254\n        /* \"#utility.yul\":14516:14540   */\n      tag_255\n        /* \"#utility.yul\":14534:14539   */\n      dup5\n        /* \"#utility.yul\":14516:14540   */\n      tag_70\n      jump\t// in\n    tag_255:\n        /* \"#utility.yul\":14507:14541   */\n      tag_108\n      jump\t// in\n    tag_254:\n        /* \"#utility.yul\":14489:14542   */\n      tag_70\n      jump\t// in\n    tag_253:\n        /* \"#utility.yul\":14476:14542   */\n      swap1\n      pop\n        /* \"#utility.yul\":14406:14548   */\n      swap2\n      swap1\n      pop\n      jump\t// out\n        /* \"#utility.yul\":14554:14629   */\n    tag_110:\n        /* \"#utility.yul\":14597:14600   */\n      0x00\n        /* \"#utility.yul\":14618:14623   */\n      dup2\n        /* \"#utility.yul\":14611:14623   */\n      swap1\n      pop\n        /* \"#utility.yul\":14554:14629   */\n      swap2\n      swap1\n      pop\n      jump\t// out\n        /* \"#utility.yul\":14635:14904   */\n    tag_111:\n        /* \"#utility.yul\":14745:14784   */\n      tag_258\n        /* \"#utility.yul\":14776:14783   */\n      dup4\n        /* \"#utility.yul\":14745:14784   */\n      tag_109\n      jump\t// in\n    tag_258:\n        /* \"#utility.yul\":14806:14897   */\n      tag_259\n        /* \"#utility.yul\":14855:14896   */\n      tag_260\n        /* \"#utility.yul\":14879:14895   */\n      dup3\n        /* \"#utility.yul\":14855:14896   */\n      tag_110\n      jump\t// in\n    tag_260:\n        /* \"#utility.yul\":14847:14853   */\n      dup5\n        /* \"#utility.yul\":14840:14844   */\n      dup5\n        /* \"#utility.yul\":14834:14845   */\n      sload\n        /* \"#utility.yul\":14806:14897   */\n      tag_107\n      jump\t// in\n    tag_259:\n        /* \"#utility.yul\":14800:14804   */\n      dup3\n        /* \"#utility.yul\":14793:14898   */\n      sstore\n        /* \"#utility.yul\":14711:14904   */\n      pop\n        /* \"#utility.yul\":14635:14904   */\n      pop\n      pop\n      pop\n      jump\t// out\n        /* \"#utility.yul\":14910:14983   */\n    tag_112:\n        /* \"#utility.yul\":14955:14958   */\n      0x00\n        /* \"#utility.yul\":14910:14983   */\n      swap1\n      jump\t// out\n        /* \"#utility.yul\":14989:15178   */\n    tag_113:\n        /* \"#utility.yul\":15066:15098   */\n      tag_263\n      tag_112\n      jump\t// in\n    tag_263:\n        /* \"#utility.yul\":15107:15172   */\n      tag_264\n        /* \"#utility.yul\":15165:15171   */\n      dup2\n        /* \"#utility.yul\":15157:15163   */\n      dup5\n        /* \"#utility.yul\":15151:15155   */\n      dup5\n        /* \"#utility.yul\":15107:15172   */\n      tag_111\n      jump\t// in\n    tag_264:\n        /* \"#utility.yul\":15042:15178   */\n      pop\n        /* \"#utility.yul\":14989:15178   */\n      pop\n      pop\n      jump\t// out\n        /* \"#utility.yul\":15184:15370   */\n    tag_114:\n        /* \"#utility.yul\":15244:15364   */\n    tag_266:\n        /* \"#utility.yul\":15261:15264   */\n      dup2\n        /* \"#utility.yul\":15254:15259   */\n      dup2\n        /* \"#utility.yul\":15251:15265   */\n      lt\n        /* \"#utility.yul\":15244:15364   */\n      iszero\n      tag_268\n      jumpi\n        /* \"#utility.yul\":15315:15354   */\n      tag_269\n        /* \"#utility.yul\":15352:15353   */\n      0x00\n        /* \"#utility.yul\":15345:15350   */\n      dup3\n        /* \"#utility.yul\":15315:15354   */\n      tag_113\n      jump\t// in\n    tag_269:\n        /* \"#utility.yul\":15288:15289   */\n      0x01\n        /* \"#utility.yul\":15281:15286   */\n      dup2\n        /* \"#utility.yul\":15277:15290   */\n      add\n        /* \"#utility.yul\":15268:15290   */\n      swap1\n      pop\n        /* \"#utility.yul\":15244:15364   */\n      jump(tag_266)\n    tag_268:\n        /* \"#utility.yul\":15184:15370   */\n      pop\n      pop\n      jump\t// out\n        /* \"#utility.yul\":15376:15919   */\n    tag_115:\n        /* \"#utility.yul\":15477:15479   */\n      0x1f\n        /* \"#utility.yul\":15472:15475   */\n      dup3\n        /* \"#utility.yul\":15469:15480   */\n      gt\n        /* \"#utility.yul\":15466:15912   */\n      iszero\n      tag_271\n      jumpi\n        /* \"#utility.yul\":15511:15549   */\n      tag_272\n        /* \"#utility.yul\":15543:15548   */\n      dup2\n        /* \"#utility.yul\":15511:15549   */\n      tag_104\n      jump\t// in\n    tag_272:\n        /* \"#utility.yul\":15595:15624   */\n      tag_273\n        /* \"#utility.yul\":15613:15623   */\n      dup5\n        /* \"#utility.yul\":15595:15624   */\n      tag_105\n      jump\t// in\n    tag_273:\n        /* \"#utility.yul\":15585:15593   */\n      dup2\n        /* \"#utility.yul\":15581:15625   */\n      add\n        /* \"#utility.yul\":15778:15780   */\n      0x20\n        /* \"#utility.yul\":15766:15776   */\n      dup6\n        /* \"#utility.yul\":15763:15781   */\n      lt\n        /* \"#utility.yul\":15760:15809   */\n      iszero\n      tag_274\n      jumpi\n        /* \"#utility.yul\":15799:15807   */\n      dup2\n        /* \"#utility.yul\":15784:15807   */\n      swap1\n      pop\n        /* \"#utility.yul\":15760:15809   */\n    tag_274:\n        /* \"#utility.yul\":15822:15902   */\n      tag_275\n        /* \"#utility.yul\":15878:15900   */\n      tag_276\n        /* \"#utility.yul\":15896:15899   */\n      dup6\n        /* \"#utility.yul\":15878:15900   */\n      tag_105\n      jump\t// in\n    tag_276:\n        /* \"#utility.yul\":15868:15876   */\n      dup4\n        /* \"#utility.yul\":15864:15901   */\n      add\n        /* \"#utility.yul\":15851:15862   */\n      dup3\n        /* \"#utility.yul\":15822:15902   */\n      tag_114\n      jump\t// in\n    tag_275:\n        /* \"#utility.yul\":15481:15912   */\n      pop\n      pop\n        /* \"#utility.yul\":15466:15912   */\n    tag_271:\n        /* \"#utility.yul\":15376:15919   */\n      pop\n      pop\n      pop\n      jump\t// out\n        /* \"#utility.yul\":15925:16042   */\n    tag_116:\n        /* \"#utility.yul\":15979:15987   */\n      0x00\n        /* \"#utility.yul\":16029:16034   */\n      dup3\n        /* \"#utility.yul\":16023:16027   */\n      dup3\n        /* \"#utility.yul\":16019:16035   */\n      shr\n        /* \"#utility.yul\":15998:16035   */\n      swap1\n      pop\n        /* \"#utility.yul\":15925:16042   */\n      swap3\n      swap2\n      pop\n      pop\n      jump\t// out\n        /* \"#utility.yul\":16048:16217   */\n    tag_117:\n        /* \"#utility.yul\":16092:16098   */\n      0x00\n        /* \"#utility.yul\":16125:16176   */\n      tag_279\n        /* \"#utility.yul\":16173:16174   */\n      0x00\n        /* \"#utility.yul\":16169:16175   */\n      not\n        /* \"#utility.yul\":16161:16166   */\n      dup5\n        /* \"#utility.yul\":16158:16159   */\n      0x08\n        /* \"#utility.yul\":16154:16167   */\n      mul\n        /* \"#utility.yul\":16125:16176   */\n      tag_116\n      jump\t// in\n    tag_279:\n        /* \"#utility.yul\":16121:16177   */\n      not\n        /* \"#utility.yul\":16206:16210   */\n      dup1\n        /* \"#utility.yul\":16200:16204   */\n      dup4\n        /* \"#utility.yul\":16196:16211   */\n      and\n        /* \"#utility.yul\":16186:16211   */\n      swap2\n      pop\n        /* \"#utility.yul\":16099:16217   */\n      pop\n        /* \"#utility.yul\":16048:16217   */\n      swap3\n      swap2\n      pop\n      pop\n      jump\t// out\n        /* \"#utility.yul\":16222:16517   */\n    tag_118:\n        /* \"#utility.yul\":16298:16302   */\n      0x00\n        /* \"#utility.yul\":16444:16473   */\n      tag_281\n        /* \"#utility.yul\":16469:16472   */\n      dup4\n        /* \"#utility.yul\":16463:16467   */\n      dup4\n        /* \"#utility.yul\":16444:16473   */\n      tag_117\n      jump\t// in\n    tag_281:\n        /* \"#utility.yul\":16436:16473   */\n      swap2\n      pop\n        /* \"#utility.yul\":16506:16509   */\n      dup3\n        /* \"#utility.yul\":16503:16504   */\n      0x02\n        /* \"#utility.yul\":16499:16510   */\n      mul\n        /* \"#utility.yul\":16493:16497   */\n      dup3\n        /* \"#utility.yul\":16490:16511   */\n      or\n        /* \"#utility.yul\":16482:16511   */\n      swap1\n      pop\n        /* \"#utility.yul\":16222:16517   */\n      swap3\n      swap2\n      pop\n      pop\n      jump\t// out\n        /* \"#utility.yul\":16522:17917   */\n    tag_50:\n        /* \"#utility.yul\":16639:16676   */\n      tag_283\n        /* \"#utility.yul\":16672:16675   */\n      dup3\n        /* \"#utility.yul\":16639:16676   */\n      tag_74\n      jump\t// in\n    tag_283:\n        /* \"#utility.yul\":16741:16759   */\n      0xffffffffffffffff\n        /* \"#utility.yul\":16733:16739   */\n      dup2\n        /* \"#utility.yul\":16730:16760   */\n      gt\n        /* \"#utility.yul\":16727:16783   */\n      iszero\n      tag_284\n      jumpi\n        /* \"#utility.yul\":16763:16781   */\n      tag_285\n      tag_93\n      jump\t// in\n    tag_285:\n        /* \"#utility.yul\":16727:16783   */\n    tag_284:\n        /* \"#utility.yul\":16807:16845   */\n      tag_286\n        /* \"#utility.yul\":16839:16843   */\n      dup3\n        /* \"#utility.yul\":16833:16844   */\n      sload\n        /* \"#utility.yul\":16807:16845   */\n      tag_30\n      jump\t// in\n    tag_286:\n        /* \"#utility.yul\":16892:16959   */\n      tag_287\n        /* \"#utility.yul\":16952:16958   */\n      dup3\n        /* \"#utility.yul\":16944:16950   */\n      dup3\n        /* \"#utility.yul\":16938:16942   */\n      dup6\n        /* \"#utility.yul\":16892:16959   */\n      tag_115\n      jump\t// in\n    tag_287:\n        /* \"#utility.yul\":16986:16987   */\n      0x00\n        /* \"#utility.yul\":17010:17014   */\n      0x20\n        /* \"#utility.yul\":16997:17014   */\n      swap1\n      pop\n        /* \"#utility.yul\":17042:17044   */\n      0x1f\n        /* \"#utility.yul\":17034:17040   */\n      dup4\n        /* \"#utility.yul\":17031:17045   */\n      gt\n        /* \"#utility.yul\":17059:17060   */\n      0x01\n        /* \"#utility.yul\":17054:17672   */\n      dup2\n      eq\n      tag_289\n      jumpi\n        /* \"#utility.yul\":17716:17717   */\n      0x00\n        /* \"#utility.yul\":17733:17739   */\n      dup5\n        /* \"#utility.yul\":17730:17807   */\n      iszero\n      tag_290\n      jumpi\n        /* \"#utility.yul\":17782:17791   */\n      dup3\n        /* \"#utility.yul\":17777:17780   */\n      dup8\n        /* \"#utility.yul\":17773:17792   */\n      add\n        /* \"#utility.yul\":17767:17793   */\n      mload\n        /* \"#utility.yul\":17758:17793   */\n      swap1\n      pop\n        /* \"#utility.yul\":17730:17807   */\n    tag_290:\n        /* \"#utility.yul\":17833:17900   */\n      tag_291\n        /* \"#utility.yul\":17893:17899   */\n      dup6\n        /* \"#utility.yul\":17886:17891   */\n      dup3\n        /* \"#utility.yul\":17833:17900   */\n      tag_118\n      jump\t// in\n    tag_291:\n        /* \"#utility.yul\":17827:17831   */\n      dup7\n        /* \"#utility.yul\":17820:17901   */\n      sstore\n        /* \"#utility.yul\":17689:17911   */\n      pop\n        /* \"#utility.yul\":17024:17911   */\n      jump(tag_288)\n        /* \"#utility.yul\":17054:17672   */\n    tag_289:\n        /* \"#utility.yul\":17106:17110   */\n      0x1f\n        /* \"#utility.yul\":17102:17111   */\n      not\n        /* \"#utility.yul\":17094:17100   */\n      dup5\n        /* \"#utility.yul\":17090:17112   */\n      and\n        /* \"#utility.yul\":17140:17177   */\n      tag_292\n        /* \"#utility.yul\":17172:17176   */\n      dup7\n        /* \"#utility.yul\":17140:17177   */\n      tag_104\n      jump\t// in\n    tag_292:\n        /* \"#utility.yul\":17199:17200   */\n      0x00\n        /* \"#utility.yul\":17213:17421   */\n    tag_293:\n        /* \"#utility.yul\":17227:17234   */\n      dup3\n        /* \"#utility.yul\":17224:17225   */\n      dup2\n        /* \"#utility.yul\":17221:17235   */\n      lt\n        /* \"#utility.yul\":17213:17421   */\n      iszero\n      tag_295\n      jumpi\n        /* \"#utility.yul\":17306:17315   */\n      dup5\n        /* \"#utility.yul\":17301:17304   */\n      dup10\n        /* \"#utility.yul\":17297:17316   */\n      add\n        /* \"#utility.yul\":17291:17317   */\n      mload\n        /* \"#utility.yul\":17283:17289   */\n      dup3\n        /* \"#utility.yul\":17276:17318   */\n      sstore\n        /* \"#utility.yul\":17357:17358   */\n      0x01\n        /* \"#utility.yul\":17349:17355   */\n      dup3\n        /* \"#utility.yul\":17345:17359   */\n      add\n        /* \"#utility.yul\":17335:17359   */\n      swap2\n      pop\n        /* \"#utility.yul\":17404:17406   */\n      0x20\n        /* \"#utility.yul\":17393:17402   */\n      dup6\n        /* \"#utility.yul\":17389:17407   */\n      add\n        /* \"#utility.yul\":17376:17407   */\n      swap5\n      pop\n        /* \"#utility.yul\":17250:17254   */\n      0x20\n        /* \"#utility.yul\":17247:17248   */\n      dup2\n        /* \"#utility.yul\":17243:17255   */\n      add\n        /* \"#utility.yul\":17238:17255   */\n      swap1\n      pop\n        /* \"#utility.yul\":17213:17421   */\n      jump(tag_293)\n    tag_295:\n        /* \"#utility.yul\":17449:17455   */\n      dup7\n        /* \"#utility.yul\":17440:17447   */\n      dup4\n        /* \"#utility.yul\":17437:17456   */\n      lt\n        /* \"#utility.yul\":17434:17613   */\n      iszero\n      tag_296\n      jumpi\n        /* \"#utility.yul\":17507:17516   */\n      dup5\n        /* \"#utility.yul\":17502:17505   */\n      dup10\n        /* \"#utility.yul\":17498:17517   */\n      add\n        /* \"#utility.yul\":17492:17518   */\n      mload\n        /* \"#utility.yul\":17550:17598   */\n      tag_297\n        /* \"#utility.yul\":17592:17596   */\n      0x1f\n        /* \"#utility.yul\":17584:17590   */\n      dup10\n        /* \"#utility.yul\":17580:17597   */\n      and\n        /* \"#utility.yul\":17569:17578   */\n      dup3\n        /* \"#utility.yul\":17550:17598   */\n      tag_117\n      jump\t// in\n    tag_297:\n        /* \"#utility.yul\":17542:17548   */\n      dup4\n        /* \"#utility.yul\":17535:17599   */\n      sstore\n        /* \"#utility.yul\":17457:17613   */\n      pop\n        /* \"#utility.yul\":17434:17613   */\n    tag_296:\n        /* \"#utility.yul\":17659:17660   */\n      0x01\n        /* \"#utility.yul\":17655:17656   */\n      0x02\n        /* \"#utility.yul\":17647:17653   */\n      dup9\n        /* \"#utility.yul\":17643:17657   */\n      mul\n        /* \"#utility.yul\":17639:17661   */\n      add\n        /* \"#utility.yul\":17633:17637   */\n      dup9\n        /* \"#utility.yul\":17626:17662   */\n      sstore\n        /* \"#utility.yul\":17061:17672   */\n      pop\n      pop\n      pop\n        /* \"#utility.yul\":17024:17911   */\n    tag_288:\n      pop\n        /* \"#utility.yul\":16614:17917   */\n      pop\n      pop\n      pop\n        /* \"#utility.yul\":16522:17917   */\n      pop\n      pop\n      jump\t// out\n        /* \"#utility.yul\":17923:18103   */\n    tag_56:\n        /* \"#utility.yul\":17971:18048   */\n      0x4e487b7100000000000000000000000000000000000000000000000000000000\n        /* \"#utility.yul\":17968:17969   */\n      0x00\n        /* \"#utility.yul\":17961:18049   */\n      mstore\n        /* \"#utility.yul\":18068:18072   */\n      0x32\n        /* \"#utility.yul\":18065:18066   */\n      0x04\n        /* \"#utility.yul\":18058:18073   */\n      mstore\n        /* \"#utility.yul\":18092:18096   */\n      0x24\n        /* \"#utility.yul\":18089:18090   */\n      0x00\n        /* \"#utility.yul\":18082:18097   */\n      revert\n\n    auxdata: 0xa2646970667358221220e97199fffd9cbc663c54d3c15f2833a9d3ce1f246623fbfb2ee077fb23a8c35964736f6c634300081a0033\n}\n",
				"bytecode": {
					"linkReferences": {},
					"object": "6080604052348015600e575f80fd5b50610f6c8061001c5f395ff3fe608060405234801561000f575f80fd5b506004361061004a575f3560e01c806305a1b4a91461004e57806353256135146100815780637c9cd2bc1461009f5780639507d39a146100bb575b5f80fd5b61006860048036038101906100639190610703565b6100eb565b60405161007894939291906107cf565b60405180910390f35b6100896101d5565b604051610096919061099a565b60405180910390f35b6100b960048036038101906100b49190610ae6565b610363565b005b6100d560048036038101906100d09190610b2d565b6104be565b6040516100e29190610bb8565b60405180910390f35b5f602052815f5260405f208181548110610103575f80fd5b905f5260205f2090600402015f9150915050805f015f9054906101000a900473ffffffffffffffffffffffffffffffffffffffff169080600101805461014890610c05565b80601f016020809104026020016040519081016040528092919081815260200182805461017490610c05565b80156101bf5780601f10610196576101008083540402835291602001916101bf565b820191905f5260205f20905b8154815290600101906020018083116101a257829003601f168201915b5050505050908060020154908060030154905084565b60605f803373ffffffffffffffffffffffffffffffffffffffff1673ffffffffffffffffffffffffffffffffffffffff1681526020019081526020015f20805480602002602001604051908101604052809291908181526020015f905b8282101561035a578382905f5260205f2090600402016040518060800160405290815f82015f9054906101000a900473ffffffffffffffffffffffffffffffffffffffff1673ffffffffffffffffffffffffffffffffffffffff1673ffffffffffffffffffffffffffffffffffffffff1681526020016001820180546102b790610c05565b80601f01602080910402602001604051908101604052809291908181526020018280546102e390610c05565b801561032e5780601f106103055761010080835404028352916020019161032e565b820191905f5260205f20905b81548152906001019060200180831161031157829003601f168201915b505050505081526020016002820154815260200160038201548152505081526020019060010190610232565b50505050905090565b61011861ffff16815111156103ad576040517f08c379a00000000000000000000000000000000000000000000000000000000081526004016103a490610c7f565b60405180910390fd5b5f60405180608001604052803373ffffffffffffffffffffffffffffffffffffffff1681526020018381526020014281526020015f81525090505f803373ffffffffffffffffffffffffffffffffffffffff1673ffffffffffffffffffffffffffffffffffffffff1681526020019081526020015f2081908060018154018082558091505060019003905f5260205f2090600402015f909190919091505f820151815f015f6101000a81548173ffffffffffffffffffffffffffffffffffffffff021916908373ffffffffffffffffffffffffffffffffffffffff16021790555060208201518160010190816104a39190610e3a565b50604082015181600201556060820151816003015550505050565b6104c661062a565b5f803373ffffffffffffffffffffffffffffffffffffffff1673ffffffffffffffffffffffffffffffffffffffff1681526020019081526020015f20828154811061051457610513610f09565b5b905f5260205f2090600402016040518060800160405290815f82015f9054906101000a900473ffffffffffffffffffffffffffffffffffffffff1673ffffffffffffffffffffffffffffffffffffffff1673ffffffffffffffffffffffffffffffffffffffff16815260200160018201805461058f90610c05565b80601f01602080910402602001604051908101604052809291908181526020018280546105bb90610c05565b80156106065780601f106105dd57610100808354040283529160200191610606565b820191905f5260205f20905b8154815290600101906020018083116105e957829003601f168201915b50505050508152602001600282015481526020016003820154815250509050919050565b60405180608001604052805f73ffffffffffffffffffffffffffffffffffffffff168152602001606081526020015f81526020015f81525090565b5f604051905090565b5f80fd5b5f80fd5b5f73ffffffffffffffffffffffffffffffffffffffff82169050919050565b5f61069f82610676565b9050919050565b6106af81610695565b81146106b9575f80fd5b50565b5f813590506106ca816106a6565b92915050565b5f819050919050565b6106e2816106d0565b81146106ec575f80fd5b50565b5f813590506106fd816106d9565b92915050565b5f80604083850312156107195761071861066e565b5b5f610726858286016106bc565b9250506020610737858286016106ef565b9150509250929050565b61074a81610695565b82525050565b5f81519050919050565b5f82825260208201905092915050565b8281835e5f83830152505050565b5f601f19601f8301169050919050565b5f61079282610750565b61079c818561075a565b93506107ac81856020860161076a565b6107b581610778565b840191505092915050565b6107c9816106d0565b82525050565b5f6080820190506107e25f830187610741565b81810360208301526107f48186610788565b905061080360408301856107c0565b61081060608301846107c0565b95945050505050565b5f81519050919050565b5f82825260208201905092915050565b5f819050602082019050919050565b61084b81610695565b82525050565b5f82825260208201905092915050565b5f61086b82610750565b6108758185610851565b935061088581856020860161076a565b61088e81610778565b840191505092915050565b6108a2816106d0565b82525050565b5f608083015f8301516108bd5f860182610842565b50602083015184820360208601526108d58282610861565b91505060408301516108ea6040860182610899565b5060608301516108fd6060860182610899565b508091505092915050565b5f61091383836108a8565b905092915050565b5f602082019050919050565b5f61093182610819565b61093b8185610823565b93508360208202850161094d85610833565b805f5b8581101561098857848403895281516109698582610908565b94506109748361091b565b925060208a01995050600181019050610950565b50829750879550505050505092915050565b5f6020820190508181035f8301526109b28184610927565b905092915050565b5f80fd5b5f80fd5b7f4e487b71000000000000000000000000000000000000000000000000000000005f52604160045260245ffd5b6109f882610778565b810181811067ffffffffffffffff82111715610a1757610a166109c2565b5b80604052505050565b5f610a29610665565b9050610a3582826109ef565b919050565b5f67ffffffffffffffff821115610a5457610a536109c2565b5b610a5d82610778565b9050602081019050919050565b828183375f83830152505050565b5f610a8a610a8584610a3a565b610a20565b905082815260208101848484011115610aa657610aa56109be565b5b610ab1848285610a6a565b509392505050565b5f82601f830112610acd57610acc6109ba565b5b8135610add848260208601610a78565b91505092915050565b5f60208284031215610afb57610afa61066e565b5b5f82013567ffffffffffffffff811115610b1857610b17610672565b5b610b2484828501610ab9565b91505092915050565b5f60208284031215610b4257610b4161066e565b5b5f610b4f848285016106ef565b91505092915050565b5f608083015f830151610b6d5f860182610842565b5060208301518482036020860152610b858282610861565b9150506040830151610b9a6040860182610899565b506060830151610bad6060860182610899565b508091505092915050565b5f6020820190508181035f830152610bd08184610b58565b905092915050565b7f4e487b71000000000000000000000000000000000000000000000000000000005f52602260045260245ffd5b5f6002820490506001821680610c1c57607f821691505b602082108103610c2f57610c2e610bd8565b5b50919050565b7f547765657420746f6f206c6f6e6720746f20706f73742e0000000000000000005f82015250565b5f610c6960178361075a565b9150610c7482610c35565b602082019050919050565b5f6020820190508181035f830152610c9681610c5d565b9050919050565b5f819050815f5260205f209050919050565b5f6020601f8301049050919050565b5f82821b905092915050565b5f60088302610cf97fffffffffffffffffffffffffffffffffffffffffffffffffffffffffffffffff82610cbe565b610d038683610cbe565b95508019841693508086168417925050509392505050565b5f819050919050565b5f610d3e610d39610d34846106d0565b610d1b565b6106d0565b9050919050565b5f819050919050565b610d5783610d24565b610d6b610d6382610d45565b848454610cca565b825550505050565b5f90565b610d7f610d73565b610d8a818484610d4e565b505050565b5b81811015610dad57610da25f82610d77565b600181019050610d90565b5050565b601f821115610df257610dc381610c9d565b610dcc84610caf565b81016020851015610ddb578190505b610def610de785610caf565b830182610d8f565b50505b505050565b5f82821c905092915050565b5f610e125f1984600802610df7565b1980831691505092915050565b5f610e2a8383610e03565b9150826002028217905092915050565b610e4382610750565b67ffffffffffffffff811115610e5c57610e5b6109c2565b5b610e668254610c05565b610e71828285610db1565b5f60209050601f831160018114610ea2575f8415610e90578287015190505b610e9a8582610e1f565b865550610f01565b601f198416610eb086610c9d565b5f5b82811015610ed757848901518255600182019150602085019450602081019050610eb2565b86831015610ef45784890151610ef0601f891682610e03565b8355505b6001600288020188555050505b505050505050565b7f4e487b71000000000000000000000000000000000000000000000000000000005f52603260045260245ffdfea2646970667358221220e97199fffd9cbc663c54d3c15f2833a9d3ce1f246623fbfb2ee077fb23a8c35964736f6c634300081a0033",
					"opcodes": "PUSH1 0x80 PUSH1 0x40 MSTORE CALLVALUE DUP1 ISZERO PUSH1 0xE JUMPI PUSH0 DUP1 REVERT JUMPDEST POP PUSH2 0xF6C DUP1 PUSH2 0x1C PUSH0 CODECOPY PUSH0 RETURN INVALID PUSH1 0x80 PUSH1 0x40 MSTORE CALLVALUE DUP1 ISZERO PUSH2 0xF JUMPI PUSH0 DUP1 REVERT JUMPDEST POP PUSH1 0x4 CALLDATASIZE LT PUSH2 0x4A JUMPI PUSH0 CALLDATALOAD PUSH1 0xE0 SHR DUP1 PUSH4 0x5A1B4A9 EQ PUSH2 0x4E JUMPI DUP1 PUSH4 0x53256135 EQ PUSH2 0x81 JUMPI DUP1 PUSH4 0x7C9CD2BC EQ PUSH2 0x9F JUMPI DUP1 PUSH4 0x9507D39A EQ PUSH2 0xBB JUMPI JUMPDEST PUSH0 DUP1 REVERT JUMPDEST PUSH2 0x68 PUSH1 0x4 DUP1 CALLDATASIZE SUB DUP2 ADD SWAP1 PUSH2 0x63 SWAP2 SWAP1 PUSH2 0x703 JUMP JUMPDEST PUSH2 0xEB JUMP JUMPDEST PUSH1 0x40 MLOAD PUSH2 0x78 SWAP5 SWAP4 SWAP3 SWAP2 SWAP1 PUSH2 0x7CF JUMP JUMPDEST PUSH1 0x40 MLOAD DUP1 SWAP2 SUB SWAP1 RETURN JUMPDEST PUSH2 0x89 PUSH2 0x1D5 JUMP JUMPDEST PUSH1 0x40 MLOAD PUSH2 0x96 SWAP2 SWAP1 PUSH2 0x99A JUMP JUMPDEST PUSH1 0x40 MLOAD DUP1 SWAP2 SUB SWAP1 RETURN JUMPDEST PUSH2 0xB9 PUSH1 0x4 DUP1 CALLDATASIZE SUB DUP2 ADD SWAP1 PUSH2 0xB4 SWAP2 SWAP1 PUSH2 0xAE6 JUMP JUMPDEST PUSH2 0x363 JUMP JUMPDEST STOP JUMPDEST PUSH2 0xD5 PUSH1 0x4 DUP1 CALLDATASIZE SUB DUP2 ADD SWAP1 PUSH2 0xD0 SWAP2 SWAP1 PUSH2 0xB2D JUMP JUMPDEST PUSH2 0x4BE JUMP JUMPDEST PUSH1 0x40 MLOAD PUSH2 0xE2 SWAP2 SWAP1 PUSH2 0xBB8 JUMP JUMPDEST PUSH1 0x40 MLOAD DUP1 SWAP2 SUB SWAP1 RETURN JUMPDEST PUSH0 PUSH1 0x20 MSTORE DUP2 PUSH0 MSTORE PUSH1 0x40 PUSH0 KECCAK256 DUP2 DUP2 SLOAD DUP2 LT PUSH2 0x103 JUMPI PUSH0 DUP1 REVERT JUMPDEST SWAP1 PUSH0 MSTORE PUSH1 0x20 PUSH0 KECCAK256 SWAP1 PUSH1 0x4 MUL ADD PUSH0 SWAP2 POP SWAP2 POP POP DUP1 PUSH0 ADD PUSH0 SWAP1 SLOAD SWAP1 PUSH2 0x100 EXP SWAP1 DIV PUSH20 0xFFFFFFFFFFFFFFFFFFFFFFFFFFFFFFFFFFFFFFFF AND SWAP1 DUP1 PUSH1 0x1 ADD DUP1 SLOAD PUSH2 0x148 SWAP1 PUSH2 0xC05 JUMP JUMPDEST DUP1 PUSH1 0x1F ADD PUSH1 0x20 DUP1 SWAP2 DIV MUL PUSH1 0x20 ADD PUSH1 0x40 MLOAD SWAP1 DUP2 ADD PUSH1 0x40 MSTORE DUP1 SWAP3 SWAP2 SWAP1 DUP2 DUP2 MSTORE PUSH1 0x20 ADD DUP3 DUP1 SLOAD PUSH2 0x174 SWAP1 PUSH2 0xC05 JUMP JUMPDEST DUP1 ISZERO PUSH2 0x1BF JUMPI DUP1 PUSH1 0x1F LT PUSH2 0x196 JUMPI PUSH2 0x100 DUP1 DUP4 SLOAD DIV MUL DUP4 MSTORE SWAP2 PUSH1 0x20 ADD SWAP2 PUSH2 0x1BF JUMP JUMPDEST DUP3 ADD SWAP2 SWAP1 PUSH0 MSTORE PUSH1 0x20 PUSH0 KECCAK256 SWAP1 JUMPDEST DUP2 SLOAD DUP2 MSTORE SWAP1 PUSH1 0x1 ADD SWAP1 PUSH1 0x20 ADD DUP1 DUP4 GT PUSH2 0x1A2 JUMPI DUP3 SWAP1 SUB PUSH1 0x1F AND DUP3 ADD SWAP2 JUMPDEST POP POP POP POP POP SWAP1 DUP1 PUSH1 0x2 ADD SLOAD SWAP1 DUP1 PUSH1 0x3 ADD SLOAD SWAP1 POP DUP5 JUMP JUMPDEST PUSH1 0x60 PUSH0 DUP1 CALLER PUSH20 0xFFFFFFFFFFFFFFFFFFFFFFFFFFFFFFFFFFFFFFFF AND PUSH20 0xFFFFFFFFFFFFFFFFFFFFFFFFFFFFFFFFFFFFFFFF AND DUP2 MSTORE PUSH1 0x20 ADD SWAP1 DUP2 MSTORE PUSH1 0x20 ADD PUSH0 KECCAK256 DUP1 SLOAD DUP1 PUSH1 0x20 MUL PUSH1 0x20 ADD PUSH1 0x40 MLOAD SWAP1 DUP2 ADD PUSH1 0x40 MSTORE DUP1 SWAP3 SWAP2 SWAP1 DUP2 DUP2 MSTORE PUSH1 0x20 ADD PUSH0 SWAP1 JUMPDEST DUP3 DUP3 LT ISZERO PUSH2 0x35A JUMPI DUP4 DUP3 SWAP1 PUSH0 MSTORE PUSH1 0x20 PUSH0 KECCAK256 SWAP1 PUSH1 0x4 MUL ADD PUSH1 0x40 MLOAD DUP1 PUSH1 0x80 ADD PUSH1 0x40 MSTORE SWAP1 DUP2 PUSH0 DUP3 ADD PUSH0 SWAP1 SLOAD SWAP1 PUSH2 0x100 EXP SWAP1 DIV PUSH20 0xFFFFFFFFFFFFFFFFFFFFFFFFFFFFFFFFFFFFFFFF AND PUSH20 0xFFFFFFFFFFFFFFFFFFFFFFFFFFFFFFFFFFFFFFFF AND PUSH20 0xFFFFFFFFFFFFFFFFFFFFFFFFFFFFFFFFFFFFFFFF AND DUP2 MSTORE PUSH1 0x20 ADD PUSH1 0x1 DUP3 ADD DUP1 SLOAD PUSH2 0x2B7 SWAP1 PUSH2 0xC05 JUMP JUMPDEST DUP1 PUSH1 0x1F ADD PUSH1 0x20 DUP1 SWAP2 DIV MUL PUSH1 0x20 ADD PUSH1 0x40 MLOAD SWAP1 DUP2 ADD PUSH1 0x40 MSTORE DUP1 SWAP3 SWAP2 SWAP1 DUP2 DUP2 MSTORE PUSH1 0x20 ADD DUP3 DUP1 SLOAD PUSH2 0x2E3 SWAP1 PUSH2 0xC05 JUMP JUMPDEST DUP1 ISZERO PUSH2 0x32E JUMPI DUP1 PUSH1 0x1F LT PUSH2 0x305 JUMPI PUSH2 0x100 DUP1 DUP4 SLOAD DIV MUL DUP4 MSTORE SWAP2 PUSH1 0x20 ADD SWAP2 PUSH2 0x32E JUMP JUMPDEST DUP3 ADD SWAP2 SWAP1 PUSH0 MSTORE PUSH1 0x20 PUSH0 KECCAK256 SWAP1 JUMPDEST DUP2 SLOAD DUP2 MSTORE SWAP1 PUSH1 0x1 ADD SWAP1 PUSH1 0x20 ADD DUP1 DUP4 GT PUSH2 0x311 JUMPI DUP3 SWAP1 SUB PUSH1 0x1F AND DUP3 ADD SWAP2 JUMPDEST POP POP POP POP POP DUP2 MSTORE PUSH1 0x20 ADD PUSH1 0x2 DUP3 ADD SLOAD DUP2 MSTORE PUSH1 0x20 ADD PUSH1 0x3 DUP3 ADD SLOAD DUP2 MSTORE POP POP DUP2 MSTORE PUSH1 0x20 ADD SWAP1 PUSH1 0x1 ADD SWAP1 PUSH2 0x232 JUMP JUMPDEST POP POP POP POP SWAP1 POP SWAP1 JUMP JUMPDEST PUSH2 0x118 PUSH2 0xFFFF AND DUP2 MLOAD GT ISZERO PUSH2 0x3AD JUMPI PUSH1 0x40 MLOAD PUSH32 0x8C379A000000000000000000000000000000000000000000000000000000000 DUP2 MSTORE PUSH1 0x4 ADD PUSH2 0x3A4 SWAP1 PUSH2 0xC7F JUMP JUMPDEST PUSH1 0x40 MLOAD DUP1 SWAP2 SUB SWAP1 REVERT JUMPDEST PUSH0 PUSH1 0x40 MLOAD DUP1 PUSH1 0x80 ADD PUSH1 0x40 MSTORE DUP1 CALLER PUSH20 0xFFFFFFFFFFFFFFFFFFFFFFFFFFFFFFFFFFFFFFFF AND DUP2 MSTORE PUSH1 0x20 ADD DUP4 DUP2 MSTORE PUSH1 0x20 ADD TIMESTAMP DUP2 MSTORE PUSH1 0x20 ADD PUSH0 DUP2 MSTORE POP SWAP1 POP PUSH0 DUP1 CALLER PUSH20 0xFFFFFFFFFFFFFFFFFFFFFFFFFFFFFFFFFFFFFFFF AND PUSH20 0xFFFFFFFFFFFFFFFFFFFFFFFFFFFFFFFFFFFFFFFF AND DUP2 MSTORE PUSH1 0x20 ADD SWAP1 DUP2 MSTORE PUSH1 0x20 ADD PUSH0 KECCAK256 DUP2 SWAP1 DUP1 PUSH1 0x1 DUP2 SLOAD ADD DUP1 DUP3 SSTORE DUP1 SWAP2 POP POP PUSH1 0x1 SWAP1 SUB SWAP1 PUSH0 MSTORE PUSH1 0x20 PUSH0 KECCAK256 SWAP1 PUSH1 0x4 MUL ADD PUSH0 SWAP1 SWAP2 SWAP1 SWAP2 SWAP1 SWAP2 POP PUSH0 DUP3 ADD MLOAD DUP2 PUSH0 ADD PUSH0 PUSH2 0x100 EXP DUP2 SLOAD DUP2 PUSH20 0xFFFFFFFFFFFFFFFFFFFFFFFFFFFFFFFFFFFFFFFF MUL NOT AND SWAP1 DUP4 PUSH20 0xFFFFFFFFFFFFFFFFFFFFFFFFFFFFFFFFFFFFFFFF AND MUL OR SWAP1 SSTORE POP PUSH1 0x20 DUP3 ADD MLOAD DUP2 PUSH1 0x1 ADD SWAP1 DUP2 PUSH2 0x4A3 SWAP2 SWAP1 PUSH2 0xE3A JUMP JUMPDEST POP PUSH1 0x40 DUP3 ADD MLOAD DUP2 PUSH1 0x2 ADD SSTORE PUSH1 0x60 DUP3 ADD MLOAD DUP2 PUSH1 0x3 ADD SSTORE POP POP POP POP JUMP JUMPDEST PUSH2 0x4C6 PUSH2 0x62A JUMP JUMPDEST PUSH0 DUP1 CALLER PUSH20 0xFFFFFFFFFFFFFFFFFFFFFFFFFFFFFFFFFFFFFFFF AND PUSH20 0xFFFFFFFFFFFFFFFFFFFFFFFFFFFFFFFFFFFFFFFF AND DUP2 MSTORE PUSH1 0x20 ADD SWAP1 DUP2 MSTORE PUSH1 0x20 ADD PUSH0 KECCAK256 DUP3 DUP2 SLOAD DUP2 LT PUSH2 0x514 JUMPI PUSH2 0x513 PUSH2 0xF09 JUMP JUMPDEST JUMPDEST SWAP1 PUSH0 MSTORE PUSH1 0x20 PUSH0 KECCAK256 SWAP1 PUSH1 0x4 MUL ADD PUSH1 0x40 MLOAD DUP1 PUSH1 0x80 ADD PUSH1 0x40 MSTORE SWAP1 DUP2 PUSH0 DUP3 ADD PUSH0 SWAP1 SLOAD SWAP1 PUSH2 0x100 EXP SWAP1 DIV PUSH20 0xFFFFFFFFFFFFFFFFFFFFFFFFFFFFFFFFFFFFFFFF AND PUSH20 0xFFFFFFFFFFFFFFFFFFFFFFFFFFFFFFFFFFFFFFFF AND PUSH20 0xFFFFFFFFFFFFFFFFFFFFFFFFFFFFFFFFFFFFFFFF AND DUP2 MSTORE PUSH1 0x20 ADD PUSH1 0x1 DUP3 ADD DUP1 SLOAD PUSH2 0x58F SWAP1 PUSH2 0xC05 JUMP JUMPDEST DUP1 PUSH1 0x1F ADD PUSH1 0x20 DUP1 SWAP2 DIV MUL PUSH1 0x20 ADD PUSH1 0x40 MLOAD SWAP1 DUP2 ADD PUSH1 0x40 MSTORE DUP1 SWAP3 SWAP2 SWAP1 DUP2 DUP2 MSTORE PUSH1 0x20 ADD DUP3 DUP1 SLOAD PUSH2 0x5BB SWAP1 PUSH2 0xC05 JUMP JUMPDEST DUP1 ISZERO PUSH2 0x606 JUMPI DUP1 PUSH1 0x1F LT PUSH2 0x5DD JUMPI PUSH2 0x100 DUP1 DUP4 SLOAD DIV MUL DUP4 MSTORE SWAP2 PUSH1 0x20 ADD SWAP2 PUSH2 0x606 JUMP JUMPDEST DUP3 ADD SWAP2 SWAP1 PUSH0 MSTORE PUSH1 0x20 PUSH0 KECCAK256 SWAP1 JUMPDEST DUP2 SLOAD DUP2 MSTORE SWAP1 PUSH1 0x1 ADD SWAP1 PUSH1 0x20 ADD DUP1 DUP4 GT PUSH2 0x5E9 JUMPI DUP3 SWAP1 SUB PUSH1 0x1F AND DUP3 ADD SWAP2 JUMPDEST POP POP POP POP POP DUP2 MSTORE PUSH1 0x20 ADD PUSH1 0x2 DUP3 ADD SLOAD DUP2 MSTORE PUSH1 0x20 ADD PUSH1 0x3 DUP3 ADD SLOAD DUP2 MSTORE POP POP SWAP1 POP SWAP2 SWAP1 POP JUMP JUMPDEST PUSH1 0x40 MLOAD DUP1 PUSH1 0x80 ADD PUSH1 0x40 MSTORE DUP1 PUSH0 PUSH20 0xFFFFFFFFFFFFFFFFFFFFFFFFFFFFFFFFFFFFFFFF AND DUP2 MSTORE PUSH1 0x20 ADD PUSH1 0x60 DUP2 MSTORE PUSH1 0x20 ADD PUSH0 DUP2 MSTORE PUSH1 0x20 ADD PUSH0 DUP2 MSTORE POP SWAP1 JUMP JUMPDEST PUSH0 PUSH1 0x40 MLOAD SWAP1 POP SWAP1 JUMP JUMPDEST PUSH0 DUP1 REVERT JUMPDEST PUSH0 DUP1 REVERT JUMPDEST PUSH0 PUSH20 0xFFFFFFFFFFFFFFFFFFFFFFFFFFFFFFFFFFFFFFFF DUP3 AND SWAP1 POP SWAP2 SWAP1 POP JUMP JUMPDEST PUSH0 PUSH2 0x69F DUP3 PUSH2 0x676 JUMP JUMPDEST SWAP1 POP SWAP2 SWAP1 POP JUMP JUMPDEST PUSH2 0x6AF DUP2 PUSH2 0x695 JUMP JUMPDEST DUP2 EQ PUSH2 0x6B9 JUMPI PUSH0 DUP1 REVERT JUMPDEST POP JUMP JUMPDEST PUSH0 DUP2 CALLDATALOAD SWAP1 POP PUSH2 0x6CA DUP2 PUSH2 0x6A6 JUMP JUMPDEST SWAP3 SWAP2 POP POP JUMP JUMPDEST PUSH0 DUP2 SWAP1 POP SWAP2 SWAP1 POP JUMP JUMPDEST PUSH2 0x6E2 DUP2 PUSH2 0x6D0 JUMP JUMPDEST DUP2 EQ PUSH2 0x6EC JUMPI PUSH0 DUP1 REVERT JUMPDEST POP JUMP JUMPDEST PUSH0 DUP2 CALLDATALOAD SWAP1 POP PUSH2 0x6FD DUP2 PUSH2 0x6D9 JUMP JUMPDEST SWAP3 SWAP2 POP POP JUMP JUMPDEST PUSH0 DUP1 PUSH1 0x40 DUP4 DUP6 SUB SLT ISZERO PUSH2 0x719 JUMPI PUSH2 0x718 PUSH2 0x66E JUMP JUMPDEST JUMPDEST PUSH0 PUSH2 0x726 DUP6 DUP3 DUP7 ADD PUSH2 0x6BC JUMP JUMPDEST SWAP3 POP POP PUSH1 0x20 PUSH2 0x737 DUP6 DUP3 DUP7 ADD PUSH2 0x6EF JUMP JUMPDEST SWAP2 POP POP SWAP3 POP SWAP3 SWAP1 POP JUMP JUMPDEST PUSH2 0x74A DUP2 PUSH2 0x695 JUMP JUMPDEST DUP3 MSTORE POP POP JUMP JUMPDEST PUSH0 DUP2 MLOAD SWAP1 POP SWAP2 SWAP1 POP JUMP JUMPDEST PUSH0 DUP3 DUP3 MSTORE PUSH1 0x20 DUP3 ADD SWAP1 POP SWAP3 SWAP2 POP POP JUMP JUMPDEST DUP3 DUP2 DUP4 MCOPY PUSH0 DUP4 DUP4 ADD MSTORE POP POP POP JUMP JUMPDEST PUSH0 PUSH1 0x1F NOT PUSH1 0x1F DUP4 ADD AND SWAP1 POP SWAP2 SWAP1 POP JUMP JUMPDEST PUSH0 PUSH2 0x792 DUP3 PUSH2 0x750 JUMP JUMPDEST PUSH2 0x79C DUP2 DUP6 PUSH2 0x75A JUMP JUMPDEST SWAP4 POP PUSH2 0x7AC DUP2 DUP6 PUSH1 0x20 DUP7 ADD PUSH2 0x76A JUMP JUMPDEST PUSH2 0x7B5 DUP2 PUSH2 0x778 JUMP JUMPDEST DUP5 ADD SWAP2 POP POP SWAP3 SWAP2 POP POP JUMP JUMPDEST PUSH2 0x7C9 DUP2 PUSH2 0x6D0 JUMP JUMPDEST DUP3 MSTORE POP POP JUMP JUMPDEST PUSH0 PUSH1 0x80 DUP3 ADD SWAP1 POP PUSH2 0x7E2 PUSH0 DUP4 ADD DUP8 PUSH2 0x741 JUMP JUMPDEST DUP2 DUP2 SUB PUSH1 0x20 DUP4 ADD MSTORE PUSH2 0x7F4 DUP2 DUP7 PUSH2 0x788 JUMP JUMPDEST SWAP1 POP PUSH2 0x803 PUSH1 0x40 DUP4 ADD DUP6 PUSH2 0x7C0 JUMP JUMPDEST PUSH2 0x810 PUSH1 0x60 DUP4 ADD DUP5 PUSH2 0x7C0 JUMP JUMPDEST SWAP6 SWAP5 POP POP POP POP POP JUMP JUMPDEST PUSH0 DUP2 MLOAD SWAP1 POP SWAP2 SWAP1 POP JUMP JUMPDEST PUSH0 DUP3 DUP3 MSTORE PUSH1 0x20 DUP3 ADD SWAP1 POP SWAP3 SWAP2 POP POP JUMP JUMPDEST PUSH0 DUP2 SWAP1 POP PUSH1 0x20 DUP3 ADD SWAP1 POP SWAP2 SWAP1 POP JUMP JUMPDEST PUSH2 0x84B DUP2 PUSH2 0x695 JUMP JUMPDEST DUP3 MSTORE POP POP JUMP JUMPDEST PUSH0 DUP3 DUP3 MSTORE PUSH1 0x20 DUP3 ADD SWAP1 POP SWAP3 SWAP2 POP POP JUMP JUMPDEST PUSH0 PUSH2 0x86B DUP3 PUSH2 0x750 JUMP JUMPDEST PUSH2 0x875 DUP2 DUP6 PUSH2 0x851 JUMP JUMPDEST SWAP4 POP PUSH2 0x885 DUP2 DUP6 PUSH1 0x20 DUP7 ADD PUSH2 0x76A JUMP JUMPDEST PUSH2 0x88E DUP2 PUSH2 0x778 JUMP JUMPDEST DUP5 ADD SWAP2 POP POP SWAP3 SWAP2 POP POP JUMP JUMPDEST PUSH2 0x8A2 DUP2 PUSH2 0x6D0 JUMP JUMPDEST DUP3 MSTORE POP POP JUMP JUMPDEST PUSH0 PUSH1 0x80 DUP4 ADD PUSH0 DUP4 ADD MLOAD PUSH2 0x8BD PUSH0 DUP7 ADD DUP3 PUSH2 0x842 JUMP JUMPDEST POP PUSH1 0x20 DUP4 ADD MLOAD DUP5 DUP3 SUB PUSH1 0x20 DUP7 ADD MSTORE PUSH2 0x8D5 DUP3 DUP3 PUSH2 0x861 JUMP JUMPDEST SWAP2 POP POP PUSH1 0x40 DUP4 ADD MLOAD PUSH2 0x8EA PUSH1 0x40 DUP7 ADD DUP3 PUSH2 0x899 JUMP JUMPDEST POP PUSH1 0x60 DUP4 ADD MLOAD PUSH2 0x8FD PUSH1 0x60 DUP7 ADD DUP3 PUSH2 0x899 JUMP JUMPDEST POP DUP1 SWAP2 POP POP SWAP3 SWAP2 POP POP JUMP JUMPDEST PUSH0 PUSH2 0x913 DUP4 DUP4 PUSH2 0x8A8 JUMP JUMPDEST SWAP1 POP SWAP3 SWAP2 POP POP JUMP JUMPDEST PUSH0 PUSH1 0x20 DUP3 ADD SWAP1 POP SWAP2 SWAP1 POP JUMP JUMPDEST PUSH0 PUSH2 0x931 DUP3 PUSH2 0x819 JUMP JUMPDEST PUSH2 0x93B DUP2 DUP6 PUSH2 0x823 JUMP JUMPDEST SWAP4 POP DUP4 PUSH1 0x20 DUP3 MUL DUP6 ADD PUSH2 0x94D DUP6 PUSH2 0x833 JUMP JUMPDEST DUP1 PUSH0 JUMPDEST DUP6 DUP2 LT ISZERO PUSH2 0x988 JUMPI DUP5 DUP5 SUB DUP10 MSTORE DUP2 MLOAD PUSH2 0x969 DUP6 DUP3 PUSH2 0x908 JUMP JUMPDEST SWAP5 POP PUSH2 0x974 DUP4 PUSH2 0x91B JUMP JUMPDEST SWAP3 POP PUSH1 0x20 DUP11 ADD SWAP10 POP POP PUSH1 0x1 DUP2 ADD SWAP1 POP PUSH2 0x950 JUMP JUMPDEST POP DUP3 SWAP8 POP DUP8 SWAP6 POP POP POP POP POP POP SWAP3 SWAP2 POP POP JUMP JUMPDEST PUSH0 PUSH1 0x20 DUP3 ADD SWAP1 POP DUP2 DUP2 SUB PUSH0 DUP4 ADD MSTORE PUSH2 0x9B2 DUP2 DUP5 PUSH2 0x927 JUMP JUMPDEST SWAP1 POP SWAP3 SWAP2 POP POP JUMP JUMPDEST PUSH0 DUP1 REVERT JUMPDEST PUSH0 DUP1 REVERT JUMPDEST PUSH32 0x4E487B7100000000000000000000000000000000000000000000000000000000 PUSH0 MSTORE PUSH1 0x41 PUSH1 0x4 MSTORE PUSH1 0x24 PUSH0 REVERT JUMPDEST PUSH2 0x9F8 DUP3 PUSH2 0x778 JUMP JUMPDEST DUP2 ADD DUP2 DUP2 LT PUSH8 0xFFFFFFFFFFFFFFFF DUP3 GT OR ISZERO PUSH2 0xA17 JUMPI PUSH2 0xA16 PUSH2 0x9C2 JUMP JUMPDEST JUMPDEST DUP1 PUSH1 0x40 MSTORE POP POP POP JUMP JUMPDEST PUSH0 PUSH2 0xA29 PUSH2 0x665 JUMP JUMPDEST SWAP1 POP PUSH2 0xA35 DUP3 DUP3 PUSH2 0x9EF JUMP JUMPDEST SWAP2 SWAP1 POP JUMP JUMPDEST PUSH0 PUSH8 0xFFFFFFFFFFFFFFFF DUP3 GT ISZERO PUSH2 0xA54 JUMPI PUSH2 0xA53 PUSH2 0x9C2 JUMP JUMPDEST JUMPDEST PUSH2 0xA5D DUP3 PUSH2 0x778 JUMP JUMPDEST SWAP1 POP PUSH1 0x20 DUP2 ADD SWAP1 POP SWAP2 SWAP1 POP JUMP JUMPDEST DUP3 DUP2 DUP4 CALLDATACOPY PUSH0 DUP4 DUP4 ADD MSTORE POP POP POP JUMP JUMPDEST PUSH0 PUSH2 0xA8A PUSH2 0xA85 DUP5 PUSH2 0xA3A JUMP JUMPDEST PUSH2 0xA20 JUMP JUMPDEST SWAP1 POP DUP3 DUP2 MSTORE PUSH1 0x20 DUP2 ADD DUP5 DUP5 DUP5 ADD GT ISZERO PUSH2 0xAA6 JUMPI PUSH2 0xAA5 PUSH2 0x9BE JUMP JUMPDEST JUMPDEST PUSH2 0xAB1 DUP5 DUP3 DUP6 PUSH2 0xA6A JUMP JUMPDEST POP SWAP4 SWAP3 POP POP POP JUMP JUMPDEST PUSH0 DUP3 PUSH1 0x1F DUP4 ADD SLT PUSH2 0xACD JUMPI PUSH2 0xACC PUSH2 0x9BA JUMP JUMPDEST JUMPDEST DUP2 CALLDATALOAD PUSH2 0xADD DUP5 DUP3 PUSH1 0x20 DUP7 ADD PUSH2 0xA78 JUMP JUMPDEST SWAP2 POP POP SWAP3 SWAP2 POP POP JUMP JUMPDEST PUSH0 PUSH1 0x20 DUP3 DUP5 SUB SLT ISZERO PUSH2 0xAFB JUMPI PUSH2 0xAFA PUSH2 0x66E JUMP JUMPDEST JUMPDEST PUSH0 DUP3 ADD CALLDATALOAD PUSH8 0xFFFFFFFFFFFFFFFF DUP2 GT ISZERO PUSH2 0xB18 JUMPI PUSH2 0xB17 PUSH2 0x672 JUMP JUMPDEST JUMPDEST PUSH2 0xB24 DUP5 DUP3 DUP6 ADD PUSH2 0xAB9 JUMP JUMPDEST SWAP2 POP POP SWAP3 SWAP2 POP POP JUMP JUMPDEST PUSH0 PUSH1 0x20 DUP3 DUP5 SUB SLT ISZERO PUSH2 0xB42 JUMPI PUSH2 0xB41 PUSH2 0x66E JUMP JUMPDEST JUMPDEST PUSH0 PUSH2 0xB4F DUP5 DUP3 DUP6 ADD PUSH2 0x6EF JUMP JUMPDEST SWAP2 POP POP SWAP3 SWAP2 POP POP JUMP JUMPDEST PUSH0 PUSH1 0x80 DUP4 ADD PUSH0 DUP4 ADD MLOAD PUSH2 0xB6D PUSH0 DUP7 ADD DUP3 PUSH2 0x842 JUMP JUMPDEST POP PUSH1 0x20 DUP4 ADD MLOAD DUP5 DUP3 SUB PUSH1 0x20 DUP7 ADD MSTORE PUSH2 0xB85 DUP3 DUP3 PUSH2 0x861 JUMP JUMPDEST SWAP2 POP POP PUSH1 0x40 DUP4 ADD MLOAD PUSH2 0xB9A PUSH1 0x40 DUP7 ADD DUP3 PUSH2 0x899 JUMP JUMPDEST POP PUSH1 0x60 DUP4 ADD MLOAD PUSH2 0xBAD PUSH1 0x60 DUP7 ADD DUP3 PUSH2 0x899 JUMP JUMPDEST POP DUP1 SWAP2 POP POP SWAP3 SWAP2 POP POP JUMP JUMPDEST PUSH0 PUSH1 0x20 DUP3 ADD SWAP1 POP DUP2 DUP2 SUB PUSH0 DUP4 ADD MSTORE PUSH2 0xBD0 DUP2 DUP5 PUSH2 0xB58 JUMP JUMPDEST SWAP1 POP SWAP3 SWAP2 POP POP JUMP JUMPDEST PUSH32 0x4E487B7100000000000000000000000000000000000000000000000000000000 PUSH0 MSTORE PUSH1 0x22 PUSH1 0x4 MSTORE PUSH1 0x24 PUSH0 REVERT JUMPDEST PUSH0 PUSH1 0x2 DUP3 DIV SWAP1 POP PUSH1 0x1 DUP3 AND DUP1 PUSH2 0xC1C JUMPI PUSH1 0x7F DUP3 AND SWAP2 POP JUMPDEST PUSH1 0x20 DUP3 LT DUP2 SUB PUSH2 0xC2F JUMPI PUSH2 0xC2E PUSH2 0xBD8 JUMP JUMPDEST JUMPDEST POP SWAP2 SWAP1 POP JUMP JUMPDEST PUSH32 0x547765657420746F6F206C6F6E6720746F20706F73742E000000000000000000 PUSH0 DUP3 ADD MSTORE POP JUMP JUMPDEST PUSH0 PUSH2 0xC69 PUSH1 0x17 DUP4 PUSH2 0x75A JUMP JUMPDEST SWAP2 POP PUSH2 0xC74 DUP3 PUSH2 0xC35 JUMP JUMPDEST PUSH1 0x20 DUP3 ADD SWAP1 POP SWAP2 SWAP1 POP JUMP JUMPDEST PUSH0 PUSH1 0x20 DUP3 ADD SWAP1 POP DUP2 DUP2 SUB PUSH0 DUP4 ADD MSTORE PUSH2 0xC96 DUP2 PUSH2 0xC5D JUMP JUMPDEST SWAP1 POP SWAP2 SWAP1 POP JUMP JUMPDEST PUSH0 DUP2 SWAP1 POP DUP2 PUSH0 MSTORE PUSH1 0x20 PUSH0 KECCAK256 SWAP1 POP SWAP2 SWAP1 POP JUMP JUMPDEST PUSH0 PUSH1 0x20 PUSH1 0x1F DUP4 ADD DIV SWAP1 POP SWAP2 SWAP1 POP JUMP JUMPDEST PUSH0 DUP3 DUP3 SHL SWAP1 POP SWAP3 SWAP2 POP POP JUMP JUMPDEST PUSH0 PUSH1 0x8 DUP4 MUL PUSH2 0xCF9 PUSH32 0xFFFFFFFFFFFFFFFFFFFFFFFFFFFFFFFFFFFFFFFFFFFFFFFFFFFFFFFFFFFFFFFF DUP3 PUSH2 0xCBE JUMP JUMPDEST PUSH2 0xD03 DUP7 DUP4 PUSH2 0xCBE JUMP JUMPDEST SWAP6 POP DUP1 NOT DUP5 AND SWAP4 POP DUP1 DUP7 AND DUP5 OR SWAP3 POP POP POP SWAP4 SWAP3 POP POP POP JUMP JUMPDEST PUSH0 DUP2 SWAP1 POP SWAP2 SWAP1 POP JUMP JUMPDEST PUSH0 PUSH2 0xD3E PUSH2 0xD39 PUSH2 0xD34 DUP5 PUSH2 0x6D0 JUMP JUMPDEST PUSH2 0xD1B JUMP JUMPDEST PUSH2 0x6D0 JUMP JUMPDEST SWAP1 POP SWAP2 SWAP1 POP JUMP JUMPDEST PUSH0 DUP2 SWAP1 POP SWAP2 SWAP1 POP JUMP JUMPDEST PUSH2 0xD57 DUP4 PUSH2 0xD24 JUMP JUMPDEST PUSH2 0xD6B PUSH2 0xD63 DUP3 PUSH2 0xD45 JUMP JUMPDEST DUP5 DUP5 SLOAD PUSH2 0xCCA JUMP JUMPDEST DUP3 SSTORE POP POP POP POP JUMP JUMPDEST PUSH0 SWAP1 JUMP JUMPDEST PUSH2 0xD7F PUSH2 0xD73 JUMP JUMPDEST PUSH2 0xD8A DUP2 DUP5 DUP5 PUSH2 0xD4E JUMP JUMPDEST POP POP POP JUMP JUMPDEST JUMPDEST DUP2 DUP2 LT ISZERO PUSH2 0xDAD JUMPI PUSH2 0xDA2 PUSH0 DUP3 PUSH2 0xD77 JUMP JUMPDEST PUSH1 0x1 DUP2 ADD SWAP1 POP PUSH2 0xD90 JUMP JUMPDEST POP POP JUMP JUMPDEST PUSH1 0x1F DUP3 GT ISZERO PUSH2 0xDF2 JUMPI PUSH2 0xDC3 DUP2 PUSH2 0xC9D JUMP JUMPDEST PUSH2 0xDCC DUP5 PUSH2 0xCAF JUMP JUMPDEST DUP2 ADD PUSH1 0x20 DUP6 LT ISZERO PUSH2 0xDDB JUMPI DUP2 SWAP1 POP JUMPDEST PUSH2 0xDEF PUSH2 0xDE7 DUP6 PUSH2 0xCAF JUMP JUMPDEST DUP4 ADD DUP3 PUSH2 0xD8F JUMP JUMPDEST POP POP JUMPDEST POP POP POP JUMP JUMPDEST PUSH0 DUP3 DUP3 SHR SWAP1 POP SWAP3 SWAP2 POP POP JUMP JUMPDEST PUSH0 PUSH2 0xE12 PUSH0 NOT DUP5 PUSH1 0x8 MUL PUSH2 0xDF7 JUMP JUMPDEST NOT DUP1 DUP4 AND SWAP2 POP POP SWAP3 SWAP2 POP POP JUMP JUMPDEST PUSH0 PUSH2 0xE2A DUP4 DUP4 PUSH2 0xE03 JUMP JUMPDEST SWAP2 POP DUP3 PUSH1 0x2 MUL DUP3 OR SWAP1 POP SWAP3 SWAP2 POP POP JUMP JUMPDEST PUSH2 0xE43 DUP3 PUSH2 0x750 JUMP JUMPDEST PUSH8 0xFFFFFFFFFFFFFFFF DUP2 GT ISZERO PUSH2 0xE5C JUMPI PUSH2 0xE5B PUSH2 0x9C2 JUMP JUMPDEST JUMPDEST PUSH2 0xE66 DUP3 SLOAD PUSH2 0xC05 JUMP JUMPDEST PUSH2 0xE71 DUP3 DUP3 DUP6 PUSH2 0xDB1 JUMP JUMPDEST PUSH0 PUSH1 0x20 SWAP1 POP PUSH1 0x1F DUP4 GT PUSH1 0x1 DUP2 EQ PUSH2 0xEA2 JUMPI PUSH0 DUP5 ISZERO PUSH2 0xE90 JUMPI DUP3 DUP8 ADD MLOAD SWAP1 POP JUMPDEST PUSH2 0xE9A DUP6 DUP3 PUSH2 0xE1F JUMP JUMPDEST DUP7 SSTORE POP PUSH2 0xF01 JUMP JUMPDEST PUSH1 0x1F NOT DUP5 AND PUSH2 0xEB0 DUP7 PUSH2 0xC9D JUMP JUMPDEST PUSH0 JUMPDEST DUP3 DUP2 LT ISZERO PUSH2 0xED7 JUMPI DUP5 DUP10 ADD MLOAD DUP3 SSTORE PUSH1 0x1 DUP3 ADD SWAP2 POP PUSH1 0x20 DUP6 ADD SWAP5 POP PUSH1 0x20 DUP2 ADD SWAP1 POP PUSH2 0xEB2 JUMP JUMPDEST DUP7 DUP4 LT ISZERO PUSH2 0xEF4 JUMPI DUP5 DUP10 ADD MLOAD PUSH2 0xEF0 PUSH1 0x1F DUP10 AND DUP3 PUSH2 0xE03 JUMP JUMPDEST DUP4 SSTORE POP JUMPDEST PUSH1 0x1 PUSH1 0x2 DUP9 MUL ADD DUP9 SSTORE POP POP POP JUMPDEST POP POP POP POP POP POP JUMP JUMPDEST PUSH32 0x4E487B7100000000000000000000000000000000000000000000000000000000 PUSH0 MSTORE PUSH1 0x32 PUSH1 0x4 MSTORE PUSH1 0x24 PUSH0 REVERT INVALID LOG2 PUSH5 0x6970667358 0x22 SLT KECCAK256 0xE9 PUSH18 0x99FFFD9CBC663C54D3C15F2833A9D3CE1F24 PUSH7 0x23FBFB2EE077FB 0x23 0xA8 0xC3 MSIZE PUSH5 0x736F6C6343 STOP ADDMOD BYTE STOP CALLER "
				},
				"gasEstimates": {
					"creation": {
						"codeDepositCost": "789600",
						"executionCost": "823",
						"totalCost": "790423"
					},
					"external": {
						"createTweet(string)": "infinite",
						"get(uint256)": "infinite",
						"getAllTweets()": "infinite",
						"tweets(address,uint256)": "infinite"
					}
				},
				"methodIdentifiers": {
					"createTweet(string)": "7c9cd2bc",
					"get(uint256)": "9507d39a",
					"getAllTweets()": "53256135",
					"tweets(address,uint256)": "05a1b4a9"
				}
			},
			"storageLayout": {
				"storage": [
					{
						"astId": 19,
						"contract": "contracts/twitter.sol:Twitter",
						"label": "tweets",
						"offset": 0,
						"slot": "0",
						"type": "t_mapping(t_address,t_array(t_struct(Tweet)13_storage)dyn_storage)"
					}
				],
				"types": {
					"t_address": {
						"encoding": "inplace",
						"label": "address",
						"numberOfBytes": "20"
					},
					"t_array(t_struct(Tweet)13_storage)dyn_storage": {
						"base": "t_struct(Tweet)13_storage",
						"encoding": "dynamic_array",
						"label": "struct Twitter.Tweet[]",
						"numberOfBytes": "32"
					},
					"t_mapping(t_address,t_array(t_struct(Tweet)13_storage)dyn_storage)": {
						"encoding": "mapping",
						"key": "t_address",
						"label": "mapping(address => struct Twitter.Tweet[])",
						"numberOfBytes": "32",
						"value": "t_array(t_struct(Tweet)13_storage)dyn_storage"
					},
					"t_string_storage": {
						"encoding": "bytes",
						"label": "string",
						"numberOfBytes": "32"
					},
					"t_struct(Tweet)13_storage": {
						"encoding": "inplace",
						"label": "struct Twitter.Tweet",
						"members": [
							{
								"astId": 6,
								"contract": "contracts/twitter.sol:Twitter",
								"label": "author",
								"offset": 0,
								"slot": "0",
								"type": "t_address"
							},
							{
								"astId": 8,
								"contract": "contracts/twitter.sol:Twitter",
								"label": "content",
								"offset": 0,
								"slot": "1",
								"type": "t_string_storage"
							},
							{
								"astId": 10,
								"contract": "contracts/twitter.sol:Twitter",
								"label": "timestamp",
								"offset": 0,
								"slot": "2",
								"type": "t_uint256"
							},
							{
								"astId": 12,
								"contract": "contracts/twitter.sol:Twitter",
								"label": "likes",
								"offset": 0,
								"slot": "3",
								"type": "t_uint256"
							}
						],
						"numberOfBytes": "128"
					},
					"t_uint256": {
						"encoding": "inplace",
						"label": "uint256",
						"numberOfBytes": "32"
					}
				}
			},
			"userdoc": {
				"kind": "user",
				"methods": {},
				"version": 1
			}
		}
	}
}